:020000040000fa
:080000000002040000000000f2
:020000040000fa
:0400080034030000bd
:020000040000fa
:04000c007603000077
:020000040000fa
:04001000d603000013
:020000040000fa
:040014005403000091
:020000040000fa
:04001800960300004b
:020000040000fa
:04001c00b603000027
:020000040000fa
:04002000f6030000e3
:020000040000fa
:04002400780400005c
:020000040000fa
:040028007804000058
:020000040000fa
:04002c007804000054
:020000040000fa
:040030007804000050
:020000040000fa
:040034004204000082
:020000040000fa
:040038007804000048
:020000040000fa
:04003c007804000044
:020000040000fa
:040040007804000040
:020000040000fa
:04004400780400003c
:020000040000fa
:040048007804000038
:020000040000fa
:04004c007804000034
:020000040000fa
:040050007804000030
:020000040000fa
:04005400780400002c
:020000040000fa
:040058007804000028
:020000040000fa
:04005c007804000024
:020000040000fa
:040060007804000020
:020000040000fa
:04006400780400001c
:020000040000fa
:040068007804000018
:020000040000fa
:04006c007804000014
:020000040000fa
:040070007804000010
:020000040000fa
:04007400780400000c
:020000040000fa
:040078007804000008
:020000040000fa
:04007c007804000004
:020000040000fa
:040080007804000000
:020000040000fa
:0400840078040000fc
:020000040000fa
:0400880078040000f8
:020000040000fa
:04008c0078040000f4
:020000040000fa
:0400900078040000f0
:020000040000fa
:0400940078040000ec
:020000040000fa
:0400980078040000e8
:020000040000fa
:04009c0078040000e4
:020000040000fa
:0400a00078040000e0
:020000040000fa
:0400a40078040000dc
:020000040000fa
:0400a80078040000d8
:020000040000fa
:0400ac0078040000d4
:020000040000fa
:0400b00078040000d0
:020000040000fa
:0400b4000203000043
:020000040000fa
:0400b80078040000c8
:020000040000fa
:0400bc0078040000c4
:020000040000fa
:0400c00078040000c0
:020000040000fa
:0400c40078040000bc
:020000040000fa
:0400c80078040000b8
:020000040000fa
:0400cc0078040000b4
:020000040000fa
:0400d00078040000b0
:020000040000fa
:0400d40078040000ac
:020000040000fa
:0400d80078040000a8
:020000040000fa
:0400dc0078040000a4
:020000040000fa
:0400e00078040000a0
:020000040000fa
:0400e400780400009c
:020000040000fa
:0400e8007804000098
:020000040000fa
:0400ec007804000094
:020000040000fa
:0400f0007804000090
:020000040000fa
:0400f400780400008c
:020000040000fa
:0400f8007804000088
:020000040000fa
:0400fc007804000084
:020000040000fa
:04010000780400007f
:020000040000fa
:04010400780400007b
:020000040000fa
:040108007804000077
:020000040000fa
:04010c007804000073
:020000040000fa
:04011000780400006f
:020000040000fa
:04011400780400006b
:020000040000fa
:040118007804000067
:020000040000fa
:04011c007804000063
:020000040000fa
:04012000780400005f
:020000040000fa
:04012400780400005b
:020000040000fa
:040128007804000057
:020000040000fa
:04012c007804000053
:020000040000fa
:04013000780400004f
:020000040000fa
:04013400780400004b
:020000040000fa
:040138007804000047
:020000040000fa
:04013c007804000043
:020000040000fa
:04014000780400003f
:020000040000fa
:04014400780400003b
:020000040000fa
:040148007804000037
:020000040000fa
:04014c007804000033
:020000040000fa
:04015000780400002f
:020000040000fa
:04015400780400002b
:020000040000fa
:040158007804000027
:020000040000fa
:04015c007804000023
:020000040000fa
:04016000780400001f
:020000040000fa
:04016400780400001b
:020000040000fa
:040168007804000017
:020000040000fa
:04016c007804000013
:020000040000fa
:04017000780400000f
:020000040000fa
:04017400780400000b
:020000040000fa
:040178007804000007
:020000040000fa
:04017c007804000003
:020000040000fa
:0401800078040000ff
:020000040000fa
:0401840078040000fb
:020000040000fa
:0401880078040000f7
:020000040000fa
:04018c0078040000f3
:020000040000fa
:0401900078040000ef
:020000040000fa
:0401940078040000eb
:020000040000fa
:0401980078040000e7
:020000040000fa
:04019c0078040000e3
:020000040000fa
:0401a00078040000df
:020000040000fa
:0401a40078040000db
:020000040000fa
:0401a80078040000d7
:020000040000fa
:0401ac0078040000d3
:020000040000fa
:0401b00078040000cf
:020000040000fa
:0401b40078040000cb
:020000040000fa
:0401b80078040000c7
:020000040000fa
:0401bc0078040000c3
:020000040000fa
:0401c00078040000bf
:020000040000fa
:0401c40078040000bb
:020000040000fa
:0401c80078040000b7
:020000040000fa
:0401cc0078040000b3
:020000040000fa
:0401d00078040000af
:020000040000fa
:0401d40078040000ab
:020000040000fa
:0401d80078040000a7
:020000040000fa
:0401dc0078040000a3
:020000040000fa
:0401e000780400009f
:020000040000fa
:0401e400780400009b
:020000040000fa
:0401e8007804000097
:020000040000fa
:0401ec007804000093
:020000040000fa
:0401f000780400008f
:020000040000fa
:0401f400780400008b
:020000040000fa
:0401f8007804000087
:020000040000fa
:0401fc007804000083
:020000040000fa
:04020000780400007e
:020000040000fa
:04020400780400007a
:020000040000fa
:040208007804000076
:020000040000fa
:04020c007804000072
:020000040000fa
:04021000780400006e
:020000040000fa
:04021400780400006a
:020000040000fa
:040218007804000066
:020000040000fa
:04021c007804000062
:020000040000fa
:04022000780400005e
:020000040000fa
:04022400780400005a
:020000040000fa
:040228007804000056
:020000040000fa
:04022c007804000052
:020000040000fa
:04023000780400004e
:020000040000fa
:04023400780400004a
:020000040000fa
:040238007804000046
:020000040000fa
:04023c007804000042
:020000040000fa
:04024000780400003e
:020000040000fa
:04024400780400003a
:020000040000fa
:040248007804000036
:020000040000fa
:04024c007804000032
:020000040000fa
:04025000780400002e
:020000040000fa
:04025400780400002a
:020000040000fa
:040258007804000026
:020000040000fa
:04025c007804000022
:020000040000fa
:04026000780400001e
:020000040000fa
:04026400780400001a
:020000040000fa
:040268007804000016
:020000040000fa
:04026c007804000012
:020000040000fa
:04027000780400000e
:020000040000fa
:04027400780400000a
:020000040000fa
:040278007804000006
:020000040000fa
:04027c007804000002
:020000040000fa
:0402800078040000fe
:020000040000fa
:0402840078040000fa
:020000040000fa
:0402880078040000f6
:020000040000fa
:04028c0078040000f2
:020000040000fa
:0402900078040000ee
:020000040000fa
:0402940078040000ea
:020000040000fa
:0402980078040000e6
:020000040000fa
:04029c0078040000e2
:020000040000fa
:0402a00078040000de
:020000040000fa
:0402a40078040000da
:020000040000fa
:0402a80078040000d6
:020000040000fa
:0402ac0078040000d2
:020000040000fa
:0402b00078040000ce
:020000040000fa
:0402b40078040000ca
:020000040000fa
:0402b80078040000c6
:020000040000fa
:0402bc0078040000c2
:020000040000fa
:0402c00078040000be
:020000040000fa
:0402c40078040000ba
:020000040000fa
:0402c80078040000b6
:020000040000fa
:0402cc0078040000b2
:020000040000fa
:0402d00078040000ae
:020000040000fa
:0402d40078040000aa
:020000040000fa
:0402d80078040000a6
:020000040000fa
:0402dc0078040000a2
:020000040000fa
:0402e000780400009e
:020000040000fa
:0402e400780400009a
:020000040000fa
:0402e8007804000096
:020000040000fa
:0402ec007804000092
:020000040000fa
:0402f000780400008e
:020000040000fa
:0402f400780400008a
:020000040000fa
:0402f8007804000086
:020000040000fa
:0402fc007804000082
:020000040000fa
:04030000780400007d
:020000040000fa
:040304007804000079
:020000040000fa
:040308007804000075
:020000040000fa
:04030c007804000071
:020000040000fa
:04031000780400006d
:020000040000fa
:100400000f4021000eff24000e01880000000000b4
:10041000000020000000e000020032000001200087
:100420002002880014000700330107000000e000ec
:1004300003003a00e05121000100200002003700d3
:100440000000200001002000810f70000100320038
:100450000f000700000020000000e0000200320052
:100460000000020000000000c611020000000000b1
:100470000040da000000fe00200020000000e00044
:1004800002003200100020009001880000000600e9
:10049000a1028800800478000000eb001f003700f4
:1004a000e284440054a0b4009905ba00e2844400f8
:1004b00054a0b4009906ba00e284440054a0b400e9
:1004c0000006eb00476fde00fd07b200ae018800ba
:1004d000636ce10003003a000ad801000000eb0061
:1004e0000e003700606ce10008003a00004deb00a0
:1004f0000a05e800020039003420ec000af0a000f0
:100500008b05e900f9ff3e00040037006168e10057
:10051000010032000086eb000b00070019c7ba008b
:100520000e04e0001905ba0003003a000a00e000da
:10053000dbff3a0000000600fe07b200ae028800b2
:100540008a047800f5ff37000cd0a300e20f4d00bd
:100550001c003b0089027800354dba000a05e8000e
:10056000020039003420ec000af0a0008b05e900fd
:100570000f003200254dba000a05e80002003900dc
:100580003420ec000af0a0008b05e90008003200de
:100590000c00e0000600320015cdba000a05e800a4
:1005a000020039003420ec000af0a0008b05e900bd
:1005b0008984e80054a0b4000b00e000e2ff3a0098
:1005c000000006009902ba00055d78008b05e9007d
:1005d000f7ff3200c82ade00055d78008b05e900d0
:1005e000f3ff32000c00e000f1ff320019ddba0029
:1005f000eeff37005a0c04000000000094120400c3
:10060000000000003600f800809fbe00829fbe0000
:10061000849fbe00869fbe000000fa00512080002b
:1006200000042000008060000000e00006003200ae
:10063000008080000000e0000200320000808000a6
:10064000000001000ac4a9000468a9000080fa00a3
:100650004f03be004f02be004f01be004f00be0060
:100660003600f900004006003600f800809fbe000a
:10067000829fbe00849fbe00869fbe000000fa00dd
:10068000c028a9000000eb00170907000080fa004d
:100690004f03be004f02be004f01be004f00be0020
:1006a0003600f900004006003600f800809fbe00ca
:1006b000829fbe00849fbe00869fbe000000fa009d
:1006c0000e090700c048a900100020000609070015
:1006d0000080fa004f03be004f02be004f01be0073
:1006e0004f00be003600f900004006003600f8005a
:1006f000809fbe00829fbe00849fbe00869fbe007a
:100700000000fa00c068a90020002000f6080700d9
:100710000080fa004f03be004f02be004f01be0032
:100720004f00be003600f900004006003600f80019
:10073000809fbe00829fbe00849fbe00869fbe0039
:100740000000fa00c088a90030002000e608070079
:100750000080fa004f03be004f02be004f01be00f2
:100760004f00be003600f900004006003600f800d9
:10077000809fbe00829fbe00849fbe00869fbe00f9
:100780000000fa00c0a8a90040002000d608070019
:100790000080fa004f03be004f02be004f01be00b2
:1007a0004f00be003600f900004006003600f80099
:1007b000809fbe00829fbe00849fbe00869fbe00b9
:1007c0000000fa00c608a90070002000c608070053
:1007d0000080fa004f03be004f02be004f01be0072
:1007e0004f00be003600f900004006003600f80059
:1007f000809fbe00829fbe00849fbe00869fbe0079
:100800000000fa00214680000010200000806000f7
:100810000000e00003003200c508a900c00020006d
:10082000b108070021468000000028000080600019
:100830000000e00003003200c5e8a90080002000ad
:10084000a908070021468000000220000080600007
:100850000000e00003003200c4a8a90090002000be
:10086000a108070020468000700060000000e00042
:1008700003003200c488a900a00020009a080700e5
:10088000ffff37003600f800809fbe00829fbe0049
:10089000849fbe00869fbe000000fa00308080006a
:1008a0000000e00002003200308080000000010003
:1008b00030032100104078008040e8003003210020
:1008c000014878002003210011c0b30001487800de
:1008d0000068a9000080fa004f03be004f02be006e
:1008e0004f01be004f00be003600f9000040060078
:0c08f0000040da000000fe0000000500df
:020000040000fa
:1008fc000200fa00000f78001e007800e10f500093
:10090c0009003200e10f500005003900e20f5000e1
:10091c0007003200e30f50000700320008003700d8
:10092c0001eba8000600370011eba800040037000b
:10093c0021eba8000200370031eba80000000000fa
:10094c000080fa00000006000400fa00000f780096
:10095c00110798001e007800e10f50000b003200c8
:10096c00e10f500005003900e20f50000b0032007f
:10097c00e30f50000d003200100037009e00900075
:10098c0021588800062bef000c0037009e009000c9
:10099c00a1588800162bef00080037009e0090002d
:1009ac0021598800262bef00040037009e00900090
:1009bc00a1598800362bef00000000000080fa00df
:1009cc00000006000400fa00000f780011079800e0
:1009dc001e007800e10f50000a003200e10f5000b9
:1009ec0005003900e20f500009003200e30f5000ff
:1009fc000a0032000c0037009e00900061588800fd
:100a0c00090037009e009000e1588800060037006e
:100a1c009e00900061598800030037009e009000f2
:100a2c00e1598800000000000080fa000000060078
:100a3c000c00fa00889fbe008a1f7800004f9800b7
:100a4c00510798000000eb00100798000000eb0025
:100a5c00000f78006000b80020079800310798005c
:100a6c000e4890000080fb00c400dd000020210037
:100a7c0000804000100078006100600010079800b2
:100a8c001e0090000000e00018003a000e48900094
:100a9c000080fb00c400dd0000202100008040002d
:100aac0090007800c0ff2100008060004200de0052
:100abc008000eb005e0190000089be005e0090009b
:100acc00a00090000100a100210098000e489000a9
:100adc000080fb00c400dd000020210000804000ed
:100aec0010007800620f60005f0037000e48900025
:100afc000080fb00c400dd000020210000804000cd
:100b0c00100078006104b800c0ff21000100200033
:100b1c0008057800090478008004780081007800ca
:100b2c0009006500810064008103780000037800ef
:100b3c000600be0020079800310798002e00900098
:100b4c00be009000c000dd00000020005e0390009d
:100b5c00008bbe005e0090001004780090049000a2
:100b6c000e4890000080fb004400dd008080e8000f
:100b7c000020210000804000100078006103b800c4
:100b8c00f0ff200001002000060578000703780024
:100b9c008003780081007800070065008100630005
:100bac0081027800000278004628dd00ca20de00b1
:100bbc00810070004620dd0008004000898048005c
:100bcc005e029000008abe005e0090001003780068
:100bdc00900390000e4890000080fb004400dd0064
:100bec00e40040000020210000804000100078004c
:100bfc004a00de006102b800f0ff2f000100200067
:100c0c0004047800050278008002780081007800e6
:100c1c000500640081006200810178000001780009
:100c2c000200be0006004000878048005e01900074
:100c3c000089be005e009000a00090000100a000a2
:100c4c00210098000e4890000080fb004400dd005d
:100c5c00e40040000020210000804000900078005b
:100c6c0000202000008f60001e0078000000e000d3
:100c7c00050032005e009000a00090000110a00062
:100c8c00210098007b0037005e009000a0009000cf
:100c9c000110a100210098005e009000300090002f
:100cac008e4890008180fb00c408dd006681400006
:100cbc0001202100810041009100780081407800e2
:100ccc00014878005e009000300090000000e800c1
:100cdc008e4890008180fb00c408dd0066814000d6
:100cec00012021008100410091007800c808de003d
:100cfc0081407800014878005e0090003000900040
:100d0c000080e8008e4890008180fb00c408dd0064
:100d1c006881400001202100810041009100780091
:100d2c0081407800014878005e009000300090000f
:100d3c00630040008e4890008180fb00c408dd00f9
:100d4c006881400001202100810041009100780061
:100d5c00c808de0081407800014878005e009000f1
:100d6c0030009000640040008e4890008180fb00b1
:100d7c00c408dd006a81400001202100810041008f
:100d8c009100780081407800014878005e00900066
:100d9c0030009000650040008e4890008180fb0080
:100dac00c408dd006a81400001202100810041005f
:100dbc0091007800c808de00814078000148780076
:100dcc005e00900030009000660040008e4890005d
:100ddc008180fb00c408dd006c81400001202100f3
:100dec008100410091007800814078000148780032
:100dfc005e00900030009000670040008e4890002c
:100e0c008180fb00c408dd006c81400001202100c2
:100e1c008100410091007800c808de008140780014
:100e2c00014878000e4890000080fb004400dd0073
:100e3c00e4004000002021000080400010007800f9
:100e4c00004078006f4060006f4060006f406000b1
:100e5c00de0090000080fb006f0060004200dd00af
:100e6c00a101900032fc2f00028161000200700091
:100e7c00a00098004f0578004f04be000080fa00d7
:100e8c00000006000400fa00000f7800110798001b
:100e9c001e00900020009000610060000000e00047
:100eac001d003a001e009000900090001000780089
:100ebc0080007800f07f200000806000c200dd0020
:100ecc001e009000200090000000d10061406000e6
:100edc000080fb0000004000620060008080400049
:100eec001e007800010878001e80e8008000eb00ee
:100efc00010878009e007800648040009e009000fd
:100f0c00a1009000c208de00efc060008180fb00f1
:100f1c00010878002f0037001e0090009000900010
:100f2c00100078004008de0080007800c0ff21002f
:100f3c0000806000800078003100b3001e00780053
:100f4c00010878001e81e8001e00900090009000bf
:100f5c0010007800ca09dd004600de000080710038
:100f6c00c608de0080007800f0ff200000806000e2
:100f7c00000978009e007800648140001e009000fb
:100f8c00200090004200de006f4060008081fb007a
:100f9c001e00900090009000100078000000780077
:100fac004a00dd00808041001e009000200090006f
:100fbc000000d100614060000080fb004900dd00b2
:100fcc00800178000020200000806100008040003b
:100fdc00000978001e009000300090000000e00036
:100fec003b0032009e017800668041009e0090001c
:100ffc00b10090008100e800914078008180fb00f6
:10100c004809dd009e009000b100900091407800ee
:10101c008180fb0081004100010878009e0078006f
:10102c00688040009e009000b1009000e38040007a
:10103c00914078008180fb004809dd009e00900003
:10104c00b10090008180e800914078008180fb0025
:10105c0081004100010878009e0178006a804100ff
:10106c009e009000b1009000e58040009140780017
:10107c008180fb004809dd009e009000b1009000cb
:10108c00e4804000914078008180fb0081004100a9
:10109c00010878009e0078006c8040009e00900053
:1010ac00b1009000e7804000914078008180fb0007
:1010bc004809dd009e009000b1009000e6804000e1
:1010cc00914078008180fb0081004100010878008c
:1010dc000080fa00000006000000fa002468a90055
:1010ec000c24ef0001208000f08f2f0000806000a6
:1010fc0000a0a0000020880000000000012080005b
:10110c00000e20008080600000082000808f5000be
:10111c00faff3a001024ef0080192000902088007c
:10112c0010002c003020880010002000a020880027
:10113c000024ef000004a800c1208000c0ff2f0095
:10114c0000806000c02088008121800000fe2f00fc
:10115c000100700080218800a02180007f006000c9
:10116c00a0218800c02180007f006000c021880081
:10117c0081218000c0ff2f0000806000802188004a
:10118c00a1218000c0ff2f0000806000a0218800fa
:10119c00c1218000c0ff2f0000806000c0218800aa
:1011ac003224ef003624ef003a24ef003064a9001b
:1011bc003464a9003864a90000228000ff0060009c
:1011cc0000462200010070000022880001228000ed
:1011dc00c0ff2f0000806000002288004224ef0036
:1011ec004064a90000218000f000b30000218800b9
:1011fc000004a90030e4a80031e4a90032e4a900fd
:10120c0033e4a90034e4a90035e4a90036e4a900cc
:10121c0037e4a90081218000c0ff2f00008060000e
:10122c008021880081218000f0cf2f000080600099
:10123c008021880091218000c0ff2f000080600079
:10124c009021880091218000f0cf2f000080600059
:10125c0090218800a1218000c0ff2f000080600039
:10126c00a0218800a1218000f0cf2f000080600019
:10127c00a0218800b1218000c0ff2f0000806000f9
:10128c00b0218800b1218000f0cf2f0000806000d9
:10129c00b02188002024ef002224ef002824ef0046
:1012ac002a24ef000a24a90001208000f08f2f00cf
:1012bc0000806000002088000000000001208000f9
:1012cc00000e2000008060000000e000fbff3a00f0
:1012dc00a0c52000770107002468a8000080fa0050
:1012ec00000006000000fa00204420008000780076
:1012fc000000eb00b3fd0700002021008000780007
:10130c000000eb0090fd07000000eb0078fd0700eb
:10131c000080fa00000006000000fa0000442000e3
:10132c008000780010002000a6fd0700002021009e
:10133c00800078001000200083fd070010002000c2
:10134c006bfd07000080fa00000006000400fa00a4
:10135c00100798000000eb00000f78002100070038
:10136c00e40f5000060032001e009000e10f500008
:10137c00030032001e009000e40f500014003a00ed
:10138c001e00900000407800674060000080fb0069
:10139c00670060004800dd0002208000f18f2f0004
:1013ac008100610001007000002088000000000036
:1013bc00002080004500de00674060008080fb005c
:1013cc001e009000808f5000f9ff3a000200370099
:1013dc0010002000000f78001e0078000080fa003a
:1013ec00000006000000fa00002080004500de002e
:1013fc00674060000080fb000080fa0000000600df
:10140c000c00fa0040079800510798000000eb0010
:10141c00000f780000432000100798000040eb00fc
:10142c00604798005e009000200090004200de00b3
:10143c006f4060000080fb00e80f5000010034009a
:10144c001e00a0000000eb002007980028003700c9
:10145c001e0090009040780000c8b30000c06000ef
:10146c000004e0001c0032001e00900010407800c8
:10147c00684060000004e00017003a0001202100e1
:10148c002e0090004400dd0000804000de00900043
:10149c007cfe07004e00900000407800e3406000a6
:1014ac001e009000e3c0600090417800c2cfb300f2
:1014bc0002c1610081407100014878001e0090005b
:1014cc00904078000134a0000148780010c0b300af
:1014dc0060479800090037001e0090000000e800eb
:1014ec00100798002e0090000000e80020079800dc
:1014fc002e0090000000e000d5ff32006e409000fe
:10150c000004a2000004e000020032009e007800fb
:10151c00638f70001e0078000080fa000000060047
:10152c000a00fa00400798000040eb0020479800a2
:10153c0050208000640060000000e00003003200d6
:10154c000a44a9002e409000390037004e0090004c
:10155c00300090000000e00002003a002e409000a5
:10156c00330037004020800000407800f043b20088
:10157c000080fb00300798003e009000ef0f5000f9
:10158c0005003e000121800021079800be0090005c
:10159c00010f78000400370011218000210798000a
:1015ac003e009000700f50001e007800ae009000be
:1015bc000008de0061006000004078000004e000dc
:1015cc001a0032003e00900000407800ce009000df
:1015dc0017fd07003e009000ef0f500009003e0081
:1015ec001e007800110020000008dd000080ea00d9
:1015fc0080007800002180000080600000218800bd
:10160c00080037001e007800110020000008dd00e3
:10161c000080ea00800078001021800000806000cb
:10162c001021880010c0b300204798002e40900075
:10163c000080fa00000006000000fa005020800034
:10164c004d00de00614060000080fb0000f0a70050
:10165c000000ea000000ea004f00de0000407800c5
:10166c000080fa00000006000000fa005020800004
:10167c004b00de00614060000080fb0000f0a70022
:10168c000000ea000000ea004f00de000040780095
:10169c000080fa00000006000000fa0050208000d4
:1016ac004900de00614060000080fb0000f0a700f4
:1016bc000000ea000000ea004f00de000040780065
:1016cc000080fa00000006000200fa000040eb0067
:1016dc00004f78000ec4bf000004e000050032008b
:1016ec000ec4bf000004e0000200350010c0b300bf
:1016fc00004f78001e4078000080fa0000000600c1
:10170c000000fa00502080004c00de0061406000b8
:10171c000080fb0000f0a7000000ea000000ea00d7
:10172c004f00de00004078000080fa000000060048
:10173c000000fa00502080004a00de00614060008a
:10174c000080fb0000f0a7000000ea000000ea00a7
:10175c004f00de00004078000080fa000000060018
:10176c000200fa000040eb00004f78000fc4bf00ed
:10177c000004e000050032000fc4bf000004e000cc
:10178c000200350010c0b300004f78001e407800f6
:10179c000080fa00000006000600fa000000eb00d2
:1017ac00000f780001218000210798002e00900086
:1017bc000000e000110032000000eb001007980060
:1017cc000b0037001e009000ae0090000008de00f9
:1017dc0061006000004078000004e000010032006d
:1017ec001e0fe8001e0090000000e8001007980093
:1017fc001e009000ef0f5000f2ff36001121800008
:10180c00210798002e0090000000e000110032002b
:10181c000000eb00100798000b0037001e00900032
:10182c00ae0090000008de0061006000004078000f
:10183c000004e000010032001e0fe8001e009000c2
:10184c000000e800100798001e009000ef0f5000f9
:10185c00f2ff36001e007800004078000080fa008d
:10186c00000006000000fa000ac4a9000cc4a8007d
:10187c0001208000f08f2f00008060000080a0000d
:10188c00002088000000000001208000000e2000d5
:10189c008080600000022000808f5000faff3a0028
:1018ac000080fa00000006000000fa000080fa0038
:1018bc00000006000200fa00000f78001e007800fd
:1018cc00008088000080fa00000006001400fa0076
:1018dc00000f9800110f980003000900001feb0087
:1018ec008e00b1007e0798001e08900090009000ba
:1018fc001000780040079800510798001e089000cf
:10190c0040409000614060000080fb00610060007e
:10191c00ee0090000100a10001007000600798002b
:10192c001e08900050409000614060000080fb0059
:10193c006100600000004000ee0090000110a1006a
:10194c0001007000600798001e0890006040900035
:10195c006f4060000080fb006f0060004200dd0003
:10196c006e01900031fc2f008100610001007000bd
:10197c00600798007e0090009e089000f140900057
:10198c00014878007e0090000000e8009e0890005e
:10199c0081489000014878007e0090000080e800ab
:1019ac009e08900091489000014878007e009000bd
:1019bc00630040009e089000a14890000148780008
:1019cc007e009000640040009e089000b14890009a
:1019dc00014878007e009000650040009e08900051
:1019ec00c1489000014878007e00900066004000dd
:1019fc009e089000d1489000014878007e0090002d
:101a0c00670040009e089000e14890000148780073
:101a1c0068004700800078000e08900078fe0700f0
:101a2c0000f0a7000000ea000000ea004f00de0012
:101a3c00004078000080fa00000006001400fa0054
:101a4c00100f98000040eb00004f7800e1004700b9
:101a5c00070009008058eb000e00e800000f98000a
:101a6c006a004700aefe07000004e00043003200ad
:101a7c005e009000ee0090001e0990000089be00f0
:101a8c007e00900061406000804078001e0890004d
:101a9c00414098007e009000620060000000e00071
:101aac00040032001e08900021c0b3005140980081
:101abc00030037001e08900011c0b300514098007d
:101acc000e089000904078001e089000714098001d
:101adc000e0890000000e800904078001e0890006e
:101aec00014898000e0890000080e80090407800b3
:101afc001e089000114898000e08900063004000ea
:101b0c00904078001e089000214898000e08900024
:101b1c0064004000904078001e0890003148980006
:101b2c000e08900065004000904078001e08900060
:101b3c00414898000e0890006600400090407800e4
:101b4c001e089000514898000e0890006700400055
:101b5c00904078001e089000614898007e0090002c
:101b6c004200de006f406000804078001e0890004c
:101b7c006140980010c0b300004f78001e40780000
:101b8c000080fa00000006000000fa0050208000df
:101b9c004d00de00614060000080fb0000f0a700fb
:101bac000000ea000000ea004f00de000040780070
:101bbc000080fa00000006000000fa0050208000af
:101bcc004b00de00614060000080fb0000f0a700cd
:101bdc000000ea000000ea004f00de000040780040
:101bec000080fa00000006000000fa00502080007f
:101bfc004c00de00614060000080fb0000f0a7009c
:101c0c000000ea000000ea004f00de00004078000f
:101c1c000080fa00000006000600fa000000eb004d
:101c2c00000f780001218000210798002e00900001
:101c3c000000e000110032000000eb0010079800db
:101c4c000b0037001e009000ae0090000008de0074
:101c5c0061006000004078000004e00001003200e8
:101c6c001e0fe8001e0090000000e800100798000e
:101c7c001e009000ef0f5000f2ff36001121800083
:101c8c00210798002e0090000000e00011003200a7
:101c9c000000eb00100798000b0037001e009000ae
:101cac00ae0090000008de0061006000004078008b
:101cbc000004e000010032001e0fe8001e0090003e
:101ccc000000e800100798001e009000ef0f500075
:101cdc00f2ff36001e007800004078000080fa0009
:101cec00000006000000fa000ac4a9000cc4a800f9
:101cfc0001208000f08f2f00008060000080a00089
:101d0c00002088000000000001208000000e200050
:101d1c008080600000022000808f5000faff3a00a3
:101d2c000080fa00000006000000fa00003a800073
:101d3c000080fa00000006000200fa00faff07001b
:101d4c00000f78001e007800240007000004e0005b
:101d5c000200320000002800710007001e0078000d
:101d6c002a0007000004e0000200320000002400fa
:101d7c006b0007001e007800320007000004e00032
:101d8c000200320000202000650007001e007800d1
:101d9c003a0007000004e0000200320000082000b6
:101dac005f0007001e007800420007000004e000fe
:101dbc000200320000042000590007001e007800c9
:101dcc004a0007000004e00002003200000120007d
:101ddc00530007000080fa00000006000400fa001f
:101dec00100798000040eb00004f78001e00900098
:101dfc000000e00002003d0010c0b300004f78006e
:101e0c001e4078000080fa00000006000400fa0072
:101e1c00100798000040eb00004f78009e009000e7
:101e2c0000002400008060000000e000020032008e
:101e3c0010c0b300004f78001e4078000080fa00fc
:101e4c00000006000400fa00100798000040eb00a8
:101e5c00004f78009e009000002020000080600061
:101e6c000000e0000200320010c0b300004f780008
:101e7c001e4078000080fa00000006000400fa0002
:101e8c00100798000040eb00004f78009e00900077
:101e9c0000082000008060000000e000020032001a
:101eac0010c0b300004f78001e4078000080fa008c
:101ebc00000006000400fa00100798000040eb0038
:101ecc00004f78009e00900000042000008060000d
:101edc000000e0000200320010c0b300004f780098
:101eec001e4078000080fa00000006000400fa0092
:101efc00100798000040eb00004f78001e00900087
:101f0c00700060000000e0000200320010c0b3005e
:101f1c00004f78001e4078000080fa000000060098
:101f2c000200fa00000f78009e80ea00003a800060
:101f3c0000806000003a88000080fa000000060073
:101f4c000000fa004027ef000080fa0000000600b5
:101f5c000000fa00600020000048880010002000fb
:101f6c00104888004006200020488800a00020006f
:101f7c0030488800004880000040780067406000ce
:101f8c000080fb00208088000080fa000000060022
:101f9c000000fa000080fa00000006000000fa00c1
:101fac0000408000640060000000e000020032008d
:101fbc00f7ff07000048a9000080fa0000000600a7
:101fcc000000fa002080800000407800674060002c
:101fdc000080fb00670060000248800081ff2f003a
:101fec008100610001007000004888000080fa0048
:101ffc00000006000000fa000148800080ff2f005e
:10200c0000806000004888000080fa000000060094
:10201c000200fa00000f78009e007800214888002a
:10202c000080fa00000006000200fa00000f7800a1
:10203c009e007800314888000080fa0000000600fd
:10204c000000fa00004080004200de0061406000a9
:10205c000080fb0000f0a7000000ea000000ea008e
:10206c004f00de00004078000080fa0000000600ff
:10207c000400fa00100798001e0090000000e00019
:10208c000a003a00004880004400de006140600015
:10209c000080fb0000f0a7000000ea000000ea004e
:1020ac004f00de00004f78000100370000000000f8
:1020bc001e4078000080fa00000006000200fa00c2
:1020cc00000f78001e0078000000e00003003a00ca
:1020dc000089a9000000000001003700000000008a
:1020ec000080fa00000006000000fa0002c9a800f7
:1020fc000080fa00000006000000fa001048800082
:10210c004600de00614060000080fb0000f0a7008c
:10211c000000ea000000ea004f00de0000407800fa
:10212c000080fa00000006000000fa0002c9a900b5
:10213c000080fa00000006000000fa0000022200f5
:10214c00005888006004200010588800062bef000f
:10215c0000002100205888000a2bef00082bef000c
:10216c000c2bef0070002000705888000088a9002c
:10217c00000220008058880020022000905888001f
:10218c00162bef0000002100a05888001a2bef003e
:10219c00182bef001c2bef0070002000f05888006b
:1021ac0001c8a90000022200005988006004200028
:1021bc0010598800262bef000000210020598800c0
:1021cc002a2bef00282bef002c2bef0070002000a7
:1021dc00705988000308a90000022000805988006b
:1021ec002002200090598800362bef0000002100bf
:1021fc00a05988003a2bef00382bef003c2bef0056
:10220c0070002000f05988000488a9000080fa00b2
:10221c00000006000000fa000080fa000000060032
:10222c000000fa0000408000700060000000e00038
:10223c0002003200f7ff07000088a9000080fa00b6
:10224c00000006000000fa000080fa000000060002
:10225c000000fa00014080000000240000806000b3
:10226c000000e00002003200f6ff070001c8a900e0
:10227c000080fa00000006000000fa000080fa005e
:10228c00000006000000fa00114080000010200041
:10229c00008060000000e00002003200f6ff070042
:1022ac000308a9000080fa00000006000000fa00f4
:1022bc000080fa00000006000000fa0020408000b8
:1022cc00700060000000e00002003200f7ff070021
:1022dc000488a9000080fa00000006001000fa0033
:1022ec00400798005107980062079800634f9800c8
:1022fc006e489000e84f5000020036000040eb00a2
:10230c001d0037004e019000de019000028fbe00d0
:10231c002e0090000010a100200798002e009000c5
:10232c000000a100200798006e4890006f406000ec
:10233c000080fb006f0060004200dd002e01900069
:10234c0031fc2f0081006100010070002007980013
:10235c00ee019000330798008e00780030002000ca
:10236c0027fc070000f0a7000000ea000000e900cd
:10237c004f00de00004078000080fa0000000600ec
:10238c001200fa009c010700d6fb0700e2fb0700d5
:10239c006d000700c70007000040eb00004f7800fd
:1023ac000100370000000000fbfc07000004e00007
:1023bc00190032006a004700400798000e80e800c0
:1023cc0057fc07000004e0001f0032001e019000c3
:1023dc00ae0190003012200001002000800f51004f
:1023ec00818f590018003a002e489000004f780059
:1023fc0013c0b3000e017800c000200001002000c3
:10240c00b6ff07004e009000104078000080fb00e3
:10241c0005ff07000c003700607180004500de00ee
:10242c00614060000004a200614060000080fb007d
:10243c00610060004500dd00617180000150a10069
:10244c0001007000607188004c0007000004e0007f
:10245c00d4ff320013c0b3000e017800c00020007e
:10246c00010020009dff0700cfff37000000fa009d
:10247c000021ef009086210010088800000228003f
:10248c0020088800308080000000e00002003a0044
:10249c0040292100240007000068a9002068a8003a
:1024ac00200321008040eb00014878000080fa00f6
:1024bc00000006000200fa00000f78009e00780071
:1024cc0011088800200321008040eb0001487800af
:1024dc000080fa00000006000000fa0010088000de
:1024ec000080fa00000006000200fa00000f7800dd
:1024fc009e00780001088800200321008040eb003a
:10250c00014878000080fa00000006000000fa0084
:10251c00000880000080fa00000006000000fa00ad
:10252c000080fa00000006000200fa00000f78009c
:10253c002068a9009e007800318088002068a800df
:10254c000080fa00000006000000fa0020032100c1
:10255c008040eb00014878002068a80005e1a80045
:10256c000080fa00000006000000fa0005e1a90056
:10257c002068a9000080fa00000006000200fa00a2
:10258c0020032100104f78001e4078000004e0006a
:10259c0003003200200321008040eb00014878004a
:1025ac001e4078000080fa00000006000000fa00cf
:1025bc0030032100104078000080fb000080fa00fe
:1025cc00000006000000fa00300321008040eb0000
:1025dc00014878000080fa00000006000000fa00b4
:1025ec000621ef001001200060088800000128007f
:1025fc0080088800000321008040eb00014878002f
:10260c000080fa00000006000000fa000140800083
:10261c0000082000008060000000e000090032008b
:10262c0010032100104078008040e80010032100c6
:10263c00014878000003210011c0b3000148780064
:10264c0000e8a9000080fa00000006000200fa0071
:10265c00000f78009e0078006108880000032100bc
:10266c008040eb00014878000080fa000000060072
:10267c000000fa00600880000080fa0000000600ec
:10268c000200fa00000f78009e00780031088800e4
:10269c00000321008040eb00014878000080fa0024
:1026ac00000006000000fa00300880000080fa00ec
:1026bc00000006000000fa00000321008040eb003f
:1026cc000148780011e1a8000080fa000000060023
:1026dc000000fa0011e1a9000080fa0000000600d9
:1026ec000200fa0000032100104f78001e40780011
:1026fc000004e00003003200000321008040eb00e6
:10270c00014878001e4078000080fa0000000600a6
:10271c000000fa0010032100104078000080fb003c
:10272c000080fa00000006000000fa0010032100ef
:10273c008040eb00014878000080fa0000000600a1
:10274c000000fa00042eef00182eef002c2eef00e4
:10275c00402eef00542eef00682eef007c2eef0081
:10276c0030f92100007088000080eb00a070880018
:10277c00f0f923004071880000162000e0718800f9
:10278c0000002f0080728800100020002073880049
:10279c00001c2000c07388000c2eef00202eef00d0
:1027ac00342eef00482eef005c2eef00702eef0061
:1027bc00842eef000a2eef001e2eef00322eef00bb
:1027cc00462eef005a2eef00200020007073880078
:1027dc00822eef00062eef001a2eef002e2eef00a9
:1027ec00422eef00562eef006a2eef007e2eef00e9
:1027fc0030e9210070708800f038200010718800da
:10280c00f0e92000b071880000002f00f072880001
:10281c00001c200030748800113a8000f00b20005e
:10282c0000816000600420007105200023742000ea
:10283c00804978008149780082497800e133800032
:10284c0000fc2f00008060000040a000e0338800f6
:10285c001134800000fc2f0000806000e000b30009
:10286c001034880000c6b300d4e6b700103a8000dc
:10287c00000178000260a0006004200071052000b7
:10288c0023742000804978008149780082497800bf
:10289c000080fa00000006000200fa00000f780029
:1028ac000300370000fa2000010020007d00070023
:1028bc001e00780000f0a7000000ea000000ea000b
:1028cc004f00de00004078001e0fe9000004e0001d
:1028dc00f4ff3a000080fa00000006000200fa0043
:1028ec00000f7800050037000008200001002000d0
:1028fc006c00070001fe2f001e8f40001e007800a8
:10290c00ff0f5000f8ff3e0003003700400020008e
:10291c0001002000630007001e00780000f0a700f3
:10292c000000ea000000ea004f00de0000407800e2
:10293c001e0fe9000004e000f4ff3a000080fa00ea
:10294c00000006000000fa00101c2300203a88004a
:10295c004827ef004e27ef00a0032000303a8800f4
:10296c006027ef006227ef006427ef006627ef0077
:10297c006a27ef006c27ef006e27ef002200200083
:10298c0080072000a10920003374200080497800c2
:10299c0081497800824978000001eb006004200036
:1029ac00710520002374200080497800814978004b
:1029bc00824978000080fa00000006000200fa004c
:1029cc00000f780021028000200f200000806000a2
:1029dc001e007000200288000080fa000000060033
:1029ec000000fa00c3e8a80000000000000000008e
:1029fc000080fa00000006000000fa0050ff0700fb
:102a0c00d0ff07004100070051fd0700b2f9070095
:102a1c00f2fe0700c8fd070094fe0700f0ff070058
:102a2c0000022000e5ff07000080fa00000006000d
:020000040000fa
:102a3c0000120000000200008000000000100000e6
:102a4c0002000000800000000810000020000000c0
:102a5c008000000002100000020000008200000054
:102a6c00ffff00003010000002000000800000009a
:102a7c000410000002000000800000003210000072
:102a8c0002000000800000000610000002000000a0
:102a9c0080000000281000000800000080000000ea
:042aac000000000026
:020000040000fa
:102ab000f03fb1000180b10006003500ee030900cf
:102ac00000000000403fb1000180b100fbff3d006d
:102ad0001000b000203fb000020035000080090067
:082ae0000000000000000600e8
:020000040000fa
:102ae8000200fa00000f78009e007800118088002c
:102af800ffff37000000fa008000210080077800ff
:102b080000022100000188000080fa000000060091
:102b18000000fa0001428000f0ff280000806000f9
:102b280000c0a000004288000080fa0000000600f3
:020000040000fa
:020000040005f5
:04570000ffffff00a8
:020000040000fa
:020000040005f5
:04572000ffff000087
:020000040000fa
:020000040005f5
:045730007aff0000fc
:020000040000fa
:020000040005f5
:045738007aff0000f4
:020000040000fa
:020000040005f5
:045740009fff0000c7
:020000040000fa
:020000040005f5
:04574800ffff00005f
:020000040000fa
:020000040005f5
:04575000feff000058
:020000040000fa
:020000040005f5
:04575800000000004d
:020000040000fa
:020000040005f5
:045760000000000045
:020000040000fa
:020000040005f5
:04576800000000003d
:020000040000fa
:020000040005f5
:045770000000000035
:020000040000fa
:020000040005f5
:04577800feff000030
:020000040000fa
:020000040005f5
:04578000ffff000027
:020000040000fa
:020000040005f5
:04578800ffff00001f
:00000001FF
