:020000040000fa
:080000000002040000000000f2
:020000040000fa
:04000800fa020000f8
:020000040000fa
:04000c003c030000b1
:020000040000fa
:040010009c0300004d
:020000040000fa
:040014001a030000cb
:020000040000fa
:040018005c03000085
:020000040000fa
:04001c007c03000061
:020000040000fa
:04002000bc0300001d
:020000040000fa
:0400240008040000cc
:020000040000fa
:0400280008040000c8
:020000040000fa
:04002c0008040000c4
:020000040000fa
:0400300008040000c0
:020000040000fa
:0400340008040000bc
:020000040000fa
:0400380008040000b8
:020000040000fa
:04003c0008040000b4
:020000040000fa
:0400400008040000b0
:020000040000fa
:0400440008040000ac
:020000040000fa
:0400480008040000a8
:020000040000fa
:04004c0008040000a4
:020000040000fa
:0400500008040000a0
:020000040000fa
:04005400080400009c
:020000040000fa
:040058000804000098
:020000040000fa
:04005c000804000094
:020000040000fa
:040060000804000090
:020000040000fa
:04006400080400008c
:020000040000fa
:040068000804000088
:020000040000fa
:04006c000804000084
:020000040000fa
:040070000804000080
:020000040000fa
:04007400080400007c
:020000040000fa
:040078000804000078
:020000040000fa
:04007c000804000074
:020000040000fa
:040080000804000070
:020000040000fa
:04008400080400006c
:020000040000fa
:040088000804000068
:020000040000fa
:04008c000804000064
:020000040000fa
:040090000804000060
:020000040000fa
:04009400080400005c
:020000040000fa
:040098000804000058
:020000040000fa
:04009c000804000054
:020000040000fa
:0400a0000804000050
:020000040000fa
:0400a400080400004c
:020000040000fa
:0400a8000804000048
:020000040000fa
:0400ac000804000044
:020000040000fa
:0400b0000804000040
:020000040000fa
:0400b400080400003c
:020000040000fa
:0400b8000804000038
:020000040000fa
:0400bc000804000034
:020000040000fa
:0400c0000804000030
:020000040000fa
:0400c400080400002c
:020000040000fa
:0400c8000804000028
:020000040000fa
:0400cc000804000024
:020000040000fa
:0400d0000804000020
:020000040000fa
:0400d400080400001c
:020000040000fa
:0400d8000804000018
:020000040000fa
:0400dc000804000014
:020000040000fa
:0400e0000804000010
:020000040000fa
:0400e400080400000c
:020000040000fa
:0400e8000804000008
:020000040000fa
:0400ec000804000004
:020000040000fa
:0400f0000804000000
:020000040000fa
:0400f40008040000fc
:020000040000fa
:0400f80008040000f8
:020000040000fa
:0400fc0008040000f4
:020000040000fa
:0401000008040000ef
:020000040000fa
:0401040008040000eb
:020000040000fa
:0401080008040000e7
:020000040000fa
:04010c0008040000e3
:020000040000fa
:0401100008040000df
:020000040000fa
:0401140008040000db
:020000040000fa
:0401180008040000d7
:020000040000fa
:04011c0008040000d3
:020000040000fa
:0401200008040000cf
:020000040000fa
:0401240008040000cb
:020000040000fa
:0401280008040000c7
:020000040000fa
:04012c0008040000c3
:020000040000fa
:0401300008040000bf
:020000040000fa
:0401340008040000bb
:020000040000fa
:0401380008040000b7
:020000040000fa
:04013c0008040000b3
:020000040000fa
:0401400008040000af
:020000040000fa
:0401440008040000ab
:020000040000fa
:0401480008040000a7
:020000040000fa
:04014c0008040000a3
:020000040000fa
:04015000080400009f
:020000040000fa
:04015400080400009b
:020000040000fa
:040158000804000097
:020000040000fa
:04015c000804000093
:020000040000fa
:04016000080400008f
:020000040000fa
:04016400080400008b
:020000040000fa
:040168000804000087
:020000040000fa
:04016c000804000083
:020000040000fa
:04017000080400007f
:020000040000fa
:04017400080400007b
:020000040000fa
:040178000804000077
:020000040000fa
:04017c000804000073
:020000040000fa
:04018000080400006f
:020000040000fa
:04018400080400006b
:020000040000fa
:040188000804000067
:020000040000fa
:04018c000804000063
:020000040000fa
:04019000080400005f
:020000040000fa
:04019400080400005b
:020000040000fa
:040198000804000057
:020000040000fa
:04019c000804000053
:020000040000fa
:0401a000080400004f
:020000040000fa
:0401a400080400004b
:020000040000fa
:0401a8000804000047
:020000040000fa
:0401ac000804000043
:020000040000fa
:0401b000080400003f
:020000040000fa
:0401b400080400003b
:020000040000fa
:0401b8000804000037
:020000040000fa
:0401bc000804000033
:020000040000fa
:0401c000080400002f
:020000040000fa
:0401c400080400002b
:020000040000fa
:0401c8000804000027
:020000040000fa
:0401cc000804000023
:020000040000fa
:0401d000080400001f
:020000040000fa
:0401d400080400001b
:020000040000fa
:0401d8000804000017
:020000040000fa
:0401dc000804000013
:020000040000fa
:0401e000080400000f
:020000040000fa
:0401e400080400000b
:020000040000fa
:0401e8000804000007
:020000040000fa
:0401ec000804000003
:020000040000fa
:0401f00008040000ff
:020000040000fa
:0401f40008040000fb
:020000040000fa
:0401f80008040000f7
:020000040000fa
:0401fc0008040000f3
:020000040000fa
:0402000008040000ee
:020000040000fa
:0402040008040000ea
:020000040000fa
:0402080008040000e6
:020000040000fa
:04020c0008040000e2
:020000040000fa
:0402100008040000de
:020000040000fa
:0402140008040000da
:020000040000fa
:0402180008040000d6
:020000040000fa
:04021c0008040000d2
:020000040000fa
:0402200008040000ce
:020000040000fa
:0402240008040000ca
:020000040000fa
:0402280008040000c6
:020000040000fa
:04022c0008040000c2
:020000040000fa
:0402300008040000be
:020000040000fa
:0402340008040000ba
:020000040000fa
:0402380008040000b6
:020000040000fa
:04023c0008040000b2
:020000040000fa
:0402400008040000ae
:020000040000fa
:0402440008040000aa
:020000040000fa
:0402480008040000a6
:020000040000fa
:04024c0008040000a2
:020000040000fa
:04025000080400009e
:020000040000fa
:04025400080400009a
:020000040000fa
:040258000804000096
:020000040000fa
:04025c000804000092
:020000040000fa
:04026000080400008e
:020000040000fa
:04026400080400008a
:020000040000fa
:040268000804000086
:020000040000fa
:04026c000804000082
:020000040000fa
:04027000080400007e
:020000040000fa
:04027400080400007a
:020000040000fa
:040278000804000076
:020000040000fa
:04027c000804000072
:020000040000fa
:04028000080400006e
:020000040000fa
:04028400080400006a
:020000040000fa
:040288000804000066
:020000040000fa
:04028c000804000062
:020000040000fa
:04029000080400005e
:020000040000fa
:04029400080400005a
:020000040000fa
:040298000804000056
:020000040000fa
:04029c000804000052
:020000040000fa
:0402a000080400004e
:020000040000fa
:0402a400080400004a
:020000040000fa
:0402a8000804000046
:020000040000fa
:0402ac000804000042
:020000040000fa
:0402b000080400003e
:020000040000fa
:0402b400080400003a
:020000040000fa
:0402b8000804000036
:020000040000fa
:0402bc000804000032
:020000040000fa
:0402c000080400002e
:020000040000fa
:0402c400080400002a
:020000040000fa
:0402c8000804000026
:020000040000fa
:0402cc000804000022
:020000040000fa
:0402d000080400001e
:020000040000fa
:0402d400080400001a
:020000040000fa
:0402d8000804000016
:020000040000fa
:0402dc000804000012
:020000040000fa
:0402e000080400000e
:020000040000fa
:0402e400080400000a
:020000040000fa
:0402e8000804000006
:020000040000fa
:0402ec000804000002
:020000040000fa
:0402f00008040000fe
:020000040000fa
:0402f40008040000fa
:020000040000fa
:0402f80008040000f6
:020000040000fa
:0402fc0008040000f2
:020000040000fa
:0403000008040000ed
:020000040000fa
:0403040008040000e9
:020000040000fa
:0403080008040000e5
:020000040000fa
:04030c0008040000e1
:020000040000fa
:0403100008040000dd
:020000040000fa
:10040000af0221000eff24000e0188000000000052
:10041000000020000000e000020032000001200087
:100420002002880014000700fb0007000000e00025
:1004300003003a00c09222000100200002003700b1
:100440000000200001002000810f70000100320038
:100450000f000700000020000000e0000200320052
:100460000000020000000000fa2702000000000067
:100470000040da000000fe00c08c20000000e00018
:1004800002003200002020009001880000000600d9
:10049000a1028800800478000000eb001f003700f4
:1004a000e284440054a0b4009905ba00e2844400f8
:1004b00054a0b4009906ba00e284440054a0b400e9
:1004c0000006eb00476fde00fd07b200ae018800ba
:1004d000636ce10003003a000ad801000000eb0061
:1004e0000e003700606ce10008003a00004deb00a0
:1004f0000a05e800020039003420ec000af0a000f0
:100500008b05e900f9ff3e00040037006168e10057
:10051000010032000086eb000b00070019c7ba008b
:100520000e04e0001905ba0003003a000a00e000da
:10053000dbff3a0000000600fe07b200ae028800b2
:100540008a047800f5ff37000cd0a300e20f4d00bd
:100550001c003b0089027800354dba000a05e8000e
:10056000020039003420ec000af0a0008b05e900fd
:100570000f003200254dba000a05e80002003900dc
:100580003420ec000af0a0008b05e90008003200de
:100590000c00e0000600320015cdba000a05e800a4
:1005a000020039003420ec000af0a0008b05e900bd
:1005b0008984e80054a0b4000b00e000e2ff3a0098
:1005c000000006009902ba00055d78008b05e9007d
:1005d000f7ff3200c82ade00055d78008b05e900d0
:1005e000f3ff32000c00e000f1ff320019ddba0029
:1005f000eeff37003600f800809fbe00829fbe00ed
:10060000849fbe00869fbe000000fa00c028a9009b
:100610000000eb00311307000080fa004f03be001a
:100620004f02be004f01be004f00be003600f90071
:10063000004006003600f800809fbe00829fbe008a
:10064000849fbe00869fbe000000fa0028130700aa
:10065000c048a90010002000201307000080fa0005
:100660004f03be004f02be004f01be004f00be0050
:100670003600f900004006003600f800809fbe00fa
:10068000829fbe00849fbe00869fbe000000fa00cd
:10069000c068a90020002000101307000080fa00a5
:1006a0004f03be004f02be004f01be004f00be0010
:1006b0003600f900004006003600f800809fbe00ba
:1006c000829fbe00849fbe00869fbe000000fa008d
:1006d000c088a90030002000001307000080fa0045
:1006e0004f03be004f02be004f01be004f00be00d0
:1006f0003600f900004006003600f800809fbe007a
:10070000829fbe00849fbe00869fbe000000fa004c
:10071000c0a8a90040002000f01207000080fa00e5
:100720004f03be004f02be004f01be004f00be008f
:100730003600f900004006003600f800809fbe0039
:10074000829fbe00849fbe00869fbe000000fa000c
:10075000c608a90070002000e01207000080fa001f
:100760004f03be004f02be004f01be004f00be004f
:100770003600f900004006003600f800809fbe00f9
:10078000829fbe00849fbe00869fbe000000fa00cc
:100790002146800000102000008060000000e00082
:1007a00003003200c508a900c0002000cb120700da
:1007b0002146800000002800008060000000e0006a
:1007c00003003200c5e8a90080002000c312070022
:1007d0002146800000022000008060000000e00050
:1007e00003003200c4a8a90090002000bb1207003b
:1007f00020468000700060000000e000030032002e
:10080000c488a900a0002000b4120700ffff370031
:100810000040da000000fe00000005001400200087
:10082000ab0337000001be003f0007000470a700c3
:1008300003f0a1006509b100160032000d0035007b
:100840006828e10006003500f0ff2f00f1ff2700c7
:100850000300e00013003b00010028000000050039
:1008600000004000818048008502e900fcff3a005a
:1008700008003700f88f420002003c008000eb00c7
:10088000000005008100d1000080d3008502e8004f
:10089000fcff3a000300e00002003b006000100093
:1008a000e0801800000006000001be001e000700e6
:1008b0000470a70003f0a10003f8a30013003a009e
:1008c0006509b10010003200090035006928e10017
:1008d0000200350001002800000005000000400073
:1008e000818048008502e900fcff3a000000060014
:1008f000f88f4200050035008100d1000080d30050
:100900008502e800fcff3a00000006008000eb00d2
:10091000000005004f89de00820178008703370060
:100920006011b80095033700c70ade00f107b20076
:10093000f50fb20008003200e1cf420002003200a1
:100940000170a00024000500810f7000010032003a
:100950000408050044000500810f700002003a0001
:10096000140005008502e9000000400081c0480035
:10097000fcff3b000170a0002400050007f82700e1
:10098000078361000638e10004003a00f707200001
:10099000878361008703710001003a0003f0a20021
:1009a000889fbe008a9fbe008c9fbe00470ade0063
:1009b0000480a100c71ade000580a10007002800fe
:1009c0000785600087856100f70f20000720e100a0
:1009d0009e0032000728e1009c00320001067800ea
:1009e0000400e000b4003200f707200087806000b8
:1009f0000170a0000500e000c0003200f7072000f1
:100a0000878161000370a000050652000f003a00c4
:100a10000b50e1000b0032000308e10002003a0035
:100a20000200e1007e00320002045000838458007e
:100a3000040031000001fd008101fd008402fd0081
:100a40008a05fd006044b800210037000520e10060
:100a500005003d000001fd008101fd008402fd0054
:100a60008a05fd00050652007a60e10005003500a8
:100a70000170a1004722dd00848070008a80700030
:100a8000630037006044b800ef02660007ff2f00e4
:100a9000070666000500e00006003400f08312003f
:100aa0008714dd000511de00071bdd000601710063
:100ab0008519de007060e10005003500090478004a
:100ac00082047800030178008001eb007006560074
:100ad0000b50e10003003a00020040008380480010
:100ae0000400370060041400e0841c000200580079
:100af000838058000188a300060032008100d100e5
:100b00000080d3008984d3000884d3000402e80065
:100b1000270037000178a30025003a000100e0001b
:100b2000030032008186cf00698656000a00370034
:100b30008c0020000000e00004003a00090078006a
:100b4000880478000004eb00700252008086cf0019
:100b50000d0646000c06e9007060e1000600350055
:100b60008000780009007800880478000004eb0019
:100b700070065600700252000c00e0000c003400b9
:100b80008c08dd00f00316000703de00868070008d
:100b90000c00dd00074bde00060070008c4cdd0011
:100ba0000743de00868474000c44dd000c02520012
:100bb0006120e1002000350061016000070028008d
:100bc00087816400f7ff27008783640007037400b0
:100bd0000300e000060032008203730004003200cc
:100be0000000e800e08048000188a3000e003a0001
:100bf000f70f20000720e1004a003d000170a1002e
:100c00004722dd00810072008a8070000000be0073
:100c10004f06be004f05be004f04be000000060098
:100c20006000b800faff37008100d1000080d300d7
:100c30000402e800eeff3700040178008901740027
:100c4000a10107008a807000f1ff3700f70107005b
:100c5000070278000001fd008101fd00f30107009b
:100c600087027800850372000778a3000400320031
:100c70000001fd008101fd0006020700e4ff3700ce
:100c8000850362000768a300080032000b50e100f2
:100c900003003200f0ff2f00f1ff2700dcff3700d8
:100ca0000001fd008101fd00d9ff37000468a300a9
:100cb000d7ff3200faff3700f8ff27008883600073
:100cc0000b003a000000e00009003a0083036400d2
:100cd00082837300020032000200be00ccff3700a6
:100ce0000b50e100ceff3a000200be00c8ff370003
:100cf00014002000810064003eff3700f8ff270049
:100d00008883610004003a000200e00002003a001b
:100d10008c007800beff37001500200083016400be
:100d200039ff370001f8270000002000810075001e
:100d3000b7ff3700889fbe008a9fbe008c9fbe0011
:100d40001b0020000202be00058668000600280085
:100d5000060666004709de00f20fb200820032008c
:100d60000243e80080003200c729de00f30fb20022
:100d70007d0032000343e8007b003200f107b2003f
:100d80000170a000f507b2000570a000c708dd00e3
:100d90004903de00868070004700dd00c72add00c1
:100da0004923de00868272004722dd0003055100e0
:100db0000403500085835800030031000000400008
:100dc000818048000a05e9008c1f78008a9fbe00d8
:100dd00004005000858058000402420085824a00c9
:100de00000004000818048000005eb000004be00c8
:100df0006033b8000406be000d48e1005600310023
:100e0000110009004dccd8000c01b8000d02b8004b
:100e10008481410060824a008283530003045c00a5
:100e200084845c0060055d000a00e00025003a0053
:100e3000800578000d40e10049003100880078000d
:100e400007007800110009004d88d8000c01b80097
:100e50000d02b8008481410060824a0060031100e5
:100e600083835b0004045c00e0845c000900e00014
:100e700021003a004f01be000300e0002b003200c9
:100e8000e3016000070673008c81710001003200ed
:100e9000640070004200de004e5edd000c00700059
:100ea000c258de0001e0a00083010700cf017800f6
:100eb000818071004f06be004f05be004f04be008a
:100ec000000006008c8343000d044c00e0844c00bd
:100ed00060054d000000e9000a00e000d4ff320088
:100ee0008c8343000d044c00e0844c0060054d00f1
:100ef0000000e900ceff37000c0343008d834b0058
:100f000060044c00e0844c000000e9000900e000af
:100f1000d8ff32000c0343008d834b0060044c006b
:100f2000e0844c000000e900d2ff37004200de0000
:100f30004e5edd000c007000c258de0001e0a00033
:100f4000cf0178000300e000daff320060001000fb
:100f5000e0801800d7ff3700f0ff2f00aaff37000e
:100f6000f0ff2f00b9ff37000404be002f01070077
:100f7000870678000004fd008104fd002b010700b6
:100f8000078366000678a300030032000960a7000b
:100f90000800be002c0037000d78a30002003200cc
:100fa0000800be00280037000778a30026003a009a
:100fb00001f0a10009f0a1000668a30003003200bf
:100fc000f1ff2700f0ff2f00baff37000d68a300e4
:100fd000030032000800be008c807000b5ff3700af
:100fe0000768a30007003a000648a3000300320088
:100ff000f1ff2700f0ff2f00aeff37000d48a300e0
:10100000030032006000b8008c807000a9ff370038
:101010000748a3000400320001f827000000200068
:101020008c807000a3ff3700760107000004fd00ec
:101030008104fd0002057800720107000802be006d
:101040008a01780059ff37000160a00012022000d9
:101050004280880097ff37000100e0001200320054
:101060000500e00010003200889fbe008a9fbe008d
:101070008c9fbe000006eb0001f8a30003003200c5
:1010800060001000e08018000cf0a00005f8a3003c
:101090000300320060021200e0821a000cf0a2008d
:1010a0008005eb0041ff37006000b800020005003a
:1010b000038368000700280007036300470ade0077
:1010c0000480a100c71ade000580a100f70f2000f0
:1010d0000720e100420032000728e1004000320012
:1010e000889fbe008a9fbe008c1f7800f107b20067
:1010f000f307b2000400e000640032000170a000b9
:101100000500e000680032000370a0008505420081
:10111000eb07b1000204b8000302b8008484440065
:1011200060854a00020ab800848444000a854a00a7
:10113000030ab80004054500040033000804d00089
:101140008984d2000a85d2008b05e9006158e1004c
:101150003d00350002102000090161000308200055
:1011600089816100f7072000878364000886730087
:10117000c84cde00c853dd00878474004855de008b
:101180000300e00006003200820376000400320013
:101190008904e80060054d000a88a3000c003a00ad
:1011a000f70f20000758e10044003d000a70a1003d
:1011b000c75ddd000a8575008a00730009007800ac
:1011c0004f0678004f05be004f04be000000060029
:1011d0000a05d1008984d3008b05e800f0ff3700b1
:1011e000881f780006047800900007000702780046
:1011f0000001fd008101fd008c00070087027800de
:10120000850372000778a300050032000001fd008d
:101210008101fd009f0007004f04780000000600d8
:10122000850372000748a30003003200f0ff2f007f
:10123000f1ff2700f8ff37000000200001f8270029
:1012400088807000f4ff3700880178004848dd008e
:10125000808171004848de00c850dd000100700048
:10126000c850de00060478000b0178001600070065
:1012700088807000d2ff37000500e00005003200d2
:10128000170020003a0007009dff3700810370001f
:10129000f9ff3a00860078004f0678004f05be003f
:1012a0004f04be000000050083037100f9ff320007
:1012b000270020002e00070094ff370001f82700c8
:1012c00086807000f4ff37000100e0002600320045
:1012d000610111007810e10023003c006022b80099
:1012e0007010e100040035008002780001007800f1
:1012f0008000eb00700151000200e00009003400a2
:1013000070031100062add00822ade008603dd005c
:10131000878272000200de00860bdd00070070008d
:101320008208de0084817100f4ff270004826200dd
:1013300084817100040028008482620061026000e0
:1013400005f0a600000006000482710007003200cc
:101350000000e800e0804800000006000002be0037
:101360006000b800efff37006000b8000000060022
:10137000889fbe000004eb006138e10016003a00cf
:101380000100e00008003a00c800de004800dd006f
:10139000880020000100e00003003a00c800de00e1
:1013a0004800dd00680444008184cf00e9845400d3
:1013b000060034008908dd00f08314008703de0096
:1013c000878070000900dd000904440061021400f8
:1013d0004f04be00000006000300e00008003a00d1
:1013e000c811de004811dd00880020000300e00085
:1013f00003003a00c811de004811dd006804440013
:101400008384cf00e9845400060034008919dd008c
:10141000f08314008713de00878171000911dd005d
:1014200009044400e1021400e9ff3700270020000e
:1014300001f0a70017002000470bde00f60fb200f6
:10144000040032000643e8000a0032004702b300fd
:101450000000060001037800f607b20006037000e2
:1014600002003a000703b300000006008702b30041
:101470000000060001037800f607b20006037000c2
:10148000020032000770a000000006000760a00004
:10149000000006000478a300040032000578a300d1
:1014a000030032000168a30001003a000200be0000
:1014b0000160a000000006008101700027003200da
:1014c0008002eb0001f8a30003003200600010006e
:1014d000e080180015002000f407200002024200fe
:1014e00020003400f703200087036000060420007a
:1014f0000003630002082000000161004700de00d5
:10150000c909dd0000807100c708de000600e000a8
:101510000800320087037100060032001000b0009e
:101520000180b0000188a30002003200c108de0083
:101530000402e800f107b200f30f20000320e100ed
:1015400003003d004722dd008100720029003700c2
:1015500001f827000000eb00260037006000b8000b
:1015600000000600680212007f20e1000200340043
:101570006000b8001f0037006011b8007020e10063
:101580000400350080017800010078008000eb0045
:10159000700252000400e00009003400f003120061
:1015a0000719dd008419de000703dd008681710064
:1015b0000400de00070bdd00060070008408de007a
:1015c000f7ff27008383630087037100060028006c
:1015d00003036300070032000700e00003003a0045
:1015e0006101600002817300020032001000b0004f
:1015f0000180b0000500a6000000060001f0a00078
:10160000000006004f0ade004709de00f107b200c5
:10161000f20fb2000b003200f207b1000170a0001f
:10162000c708dd00c901de00838070004700dd00cf
:101630000400a6000000060060001000e080180012
:1016400000000600810f700001003a000000060053
:101650008182cf000500e00010003e008082cf00b4
:10166000ee8242007028e1000400390007003e00cd
:10167000800078000000eb000e003700708312003d
:101680008600de000500dd000a003700708352008e
:101690008600dd000000eb0006003700e282520009
:1016a0008508dd00708312000603de00868070006e
:1016b0000500dd007507b0000501ea000400a60082
:1016c0000000060060001000e08018000000060026
:1016d000889fbe008a9fbe00841f78007c000700a0
:1016e0004f00780011003300f0ff2f00838f6c0053
:1016f00006003b00040565000a00a700080037004b
:1017000009f0a6001000200008003700820f5400e6
:10171000838f5c00030039001000200001003e00b0
:101720000000200009f0a7000000ea004f05be00fd
:101730004f04be000000e00000000600881f780093
:10174000030478000300e00007003d006000100083
:10175000e080180060011900e081190002003b00e0
:1017600001f02d00030037000400070008f0a70077
:1017700001f0a0004f04780000000600889fbe0022
:101780008a9fbe0000827000040271000482710012
:10179000260032000004be000200be006011b80046
:1017a0006b092000950220000182cf000a00390059
:1017b0000541b1000082cf00070039000541b100aa
:1017c0000982cf00040039000541b1000882cf0032
:1017d000010039000541b1000542520012003200fb
:1017e0000a003b0082817100610164008100d10028
:1017f0000080d3008984d3000884d3008b05e800df
:101800000442e800f7ff3a000700370008044400ec
:1018100089844c0000004800818048008b05e90065
:101820000442e900f9ff3a00030007004f05be003b
:101830004f04be00000006008100200061805500ba
:101840000b003d000b00200061fe2f000100e100b5
:101850001d00340082817100610164008904d1009f
:101860000884d3000000e800faff3a00710020006d
:101870006100640003007000020060000900320093
:1018800061044400e0844c000988a5000500320092
:101890008b05e8006808e10002003a008904d100e5
:1018a0000884d300f20f20000258e10005003d003b
:1018b000c75ddd00f907b200898075000800780077
:1018c000000006000bf827008b00780000000500e0
:1018d0000004be0014fc07000003be000405be00a7
:1018e0000200be0010fc0700844f750000000600d7
:1018f0000400fa00889fbe008a9fbe000004be005c
:101900004709de0003002000f20fb200f207b10029
:10191000f60f510030003c000200e0001c003500d2
:10192000faff2f00fb0720000201e900030033004b
:101930008b85d1000a85d300fbff37008b816400c3
:101940000a016000e00f5100e08f590022003200d0
:101950000200200003b8270011fc0700a0bf9f0071
:10196000b1bf9f00e00f5400e08f5c0002003d001b
:101970000a0444008b844c000a85ea008b85ea0047
:101980008b8064000a0064000004be001100370070
:101990000200200003b8270001fc0700a0bf9f0041
:1019a000b1bf9f00e00f5400e08f5c0002003500e3
:1019b0006044b800070037000800440089804c00ec
:1019c000e00f5000e08f58000200320008002000b5
:1019d00009f82b000800be004f05be004f04be00f2
:1019e0000080fa00000006000400fa00889fbe0094
:1019f0008a9fbe008c9fbe000004be004708de0028
:101a0000f00fb20051092000810f500041003c004e
:101a10000806be00e00f5400e08f5c0003003d00ac
:101a20000805be000bf0a200010037000805be004b
:101a3000d1072000810f50000a003c000200200066
:101a400003b024000a00be00d5fb070080bf9f0042
:101a500091bf9f006011b8000800be0094fd070010
:101a60002b0037000200200003b024000a00be0053
:101a7000cbfb07000200200003b02400bffb0700df
:101a80000a01be00bdfb07000004be0002002000ea
:101a900003f02300250007000000e00007003400e9
:101aa0000a01be000800be00bdfb070002002000c6
:101ab00003f82300b1fb07000f00370002002000ed
:101ac00003f02b000800be0054fb07000000e000fc
:101ad00006003c000a01be000800be00b0fb070083
:101ae0000200200003f82300020037000a01be00b4
:101af0000800be00aafb0700e00f5600e08f5e0062
:101b000003003d000004be0009f0a2000100370000
:101b10000004be000800be004f06be004f05be0018
:101b20004f04be000080fa0000000600f4ff2f0002
:041b3000e7fe370095
:020000040000fa
:101b3400492400009248000001f80000e7e7000093
:101b440067420000424200004209000002410000d6
:101b540010440000111f0000f11000004c1200009e
:101b64003fe1000020480000120400008120000032
:101b74004804000007a20000190200004010000001
:101b8400030000003c00000080100000060100007b
:101b9400e0a70000c040000010040000003c00006a
:101ba4001984000021080000660f0000000c0000ea
:101bb4001c78000001e00000cc2100000843000074
:101bc400307800003e3000001008000002030000de
:101bd40003470000148a0000431100008f600000d6
:101be400fda4000090050000252400009248000098
:101bf4009224000011240000892400009292000025
:101c0400900000000402000011070000f0c0000072
:101c140050480000420000000804000002010000d7
:101c240000870000fc2000001008000004020000ef
:101c3400003b00009cce000062000000ffe00000ba
:101c4400ff80000000800000c04000002020000051
:101c54001010000008080000040400000202000044
:101c6400010100000080000080400000001c000012
:101c740031900000583800000c06000003010000f9
:101c840080c00000603000003413000018700000b1
:101c940030e100004481000002040000081000004c
:101ca40020400000811f0000c01e000010900000b2
:101cb40068100000080c0000040400000406000082
:101cc40006060000060e000007fe00003e1000009d
:101cd400400800000200000080400000e004000012
:101ce400008000001004000001000000d863000020
:101cf400e00600000a0a000012220000224200004e
:101d04004282000082ff000002020000020f000075
:101d14007f2000001008000004020000f18c000085
:101d24000300000080400000201800001618000086
:101d3400f00f00008c0800000804000004020000fa
:101d440079460000c1e0000060280000141900007a
:101d540008780000ff8100008102000002020000f8
:101d64000204000004040000040800000808000045
:101d7400083e000031b00000701800000c0500009f
:101d84008c3800006340000060300000181b000025
:101d940018f800003c31000030500000280c00000e
:101da4000f060000853c0000804000004020000039
:101db40020630000e0ff000080070000fc39000001
:101dc400ce0000000006000033980000c4000000ac
:101dd40000c00000601800000c0600000180000034
:101de4000c0000006003000000300000010000004f
:101df400fff00000000000000fff0000c00600001c
:101e040000300000018000001801000080c00000c4
:101e1400301800000c020000000000003e600000ca
:101e2400a02000001008000008180000100800009e
:101e34000000000000010000c0e000001c310000b0
:101e440010500000281400003a25000022910000e0
:101e54004ca30000f008000002010000807c000098
:101e64003f0000000c0000004801000020040000b6
:101e74004021000000840000040800001fe000006e
:101e840040820000010800000420000013e100006b
:101e9400f0ff0000081100000120000024040000ed
:101ea400811f0000c2060000406800000500000019
:101eb400a014000005ff0000001e0000487400008c
:101ec40005010000802000000802000000800000de
:101ed400200400000101000030870000c0fe000063
:101ee40010440000090200004050000014050000e6
:101ef40001400000501400000d020000413f0000aa
:101f040080ff0000c8090000012000000400000058
:101f1400881f0000022000004008000001000000ab
:101f2400a014000003ff0000c0ff0000e80500004b
:101f340000a0000004000000881f00000220000030
:101f440040080000010000002004000001f000002f
:101f5400001f000046190000016000002801000075
:101f6400002000000400000083f000000b010000ca
:101f7400202300000c3e000000e10000d0240000fb
:101f8400090200004090000027f900000240000010
:101f9400902400000902000040b8000070fe000018
:101fa400204000008102000004080000102000000e
:101fb400408100001fc000000fe00000100200007c
:101fc4000040000008010000002000000480000020
:101fd4009012000002400000c63000007c000000a7
:101fe400f1e400000c41000004200000440400005f
:101ff400805c000006600000430400001040000004
:102004008408000040cf000007f80000040000002e
:1020140080100000020000004008000001000000e1
:1020240020040000048000009012000003ff000060
:10203400c0e000003b01000094140000a0a40000d4
:10204400892400004914000048a200004512000041
:10205400109000000480000024010000783c00007f
:10206400e0f60000025000002502000048240000b1
:10207400c244000024220000432400001240000057
:10208400a40a0000406f0000060f0000030c0000cb
:102094006064000002800000180100008018000045
:1020a40001800000180100004026000006300000f6
:1020b400c0f00000ff1000006405000001400000b3
:1020c4005034000019fc000040100000040100001e
:1020d400004000003e0000000f0300000c60000000
:1020e4006402000080180000018000001801000054
:1020f40080180000014000002606000030c10000e6
:10210400f00c000001f1000030e00000ff040000ca
:1021140018400000c4040000404400000c410000ca
:1021240087e0000043040000104000008404000025
:10213400404f0000031f0000483400000501000068
:102144004008000001c000000e000000401800001c
:1021540006010000e1a70000c0ff0000f0860000b7
:102164001082000000400000080100000020000070
:10217400040000008010000002000000407f000006
:1021840000f00000f40200004024000002400000bf
:102194002402000040240000024000002402000049
:1021a4004022000004300000c0f00000f87c000071
:1021b4008022000001040000041000002040000000
:1021c400808200000210000008400000110000009e
:1021d40048010000a0030000000c000000f800000b
:1021e4007c8000002200000088c200002310000050
:1021f4008e42000029090000242400009091000070
:102204004185000006140000187000006080000082
:10221400f0f20000063000004108000009800000d0
:1022240050060000006000000d000000881000004f
:10223400c2040000602f00000ff00000f202000052
:102244001041000004080000805000000500000058
:102254002002000000200000020000002002000014
:1022640001fc0000ff400000a0900000404000007e
:102274004020000020200000105000003018000012
:102284000ffc0000f24900002492000049240000e1
:102294009c800000601000000802000001000000a3
:1022a400402000000804000001000000802000001d
:1022b400100400000200000080400000e4920000ce
:1022c40049240000924900003c0800000c09000069
:1022d4000c4c000014040000fffc000084210000ea
:1022e4003e00000060080000023f00009828000043
:1022f4000a020000c39f000030e00000010000005b
:10230400080000004002000000130000e0a00000ec
:10231400860200002009000000480000024000007e
:1023240013010000141b00009f0000001f4c00005c
:1023340019010000402800000100000020020000f4
:102344000060000043f0000000c00000080100002d
:1023540000200000043c00009852000006800000a9
:10236400500a000001400000240c0000c287000055
:10237400983f00001868000006010000ffe000001c
:102384000803000000600000c7c000000f980000b0
:102394000804000002070000f8800000402000004c
:1023a400100800000402000001030000f81e0000f1
:1023b4006c390000034000002805000000a0000064
:1023c4001206000061430000c80100000020000064
:1023d400083e000000c000001004000001000000de
:1023e4004013000087110000824000009024000088
:1023f40009020000409000002e1c000008040000a8
:102404000200000000030000c020000010080000cb
:10241400040200000100000080430000fe040000ec
:1024240008100000001f0000c0810000020400002a
:102434000810000020400000810200000be00000b2
:10244400e002000000200000020000002002000062
:102454003c210000026000002c03000080240000e6
:10246400022000002102000008e10000f0780000d2
:102474000402000001000000804000002010000061
:1024840008040000020100000080000043fe000078
:10249400dce3000019900000848400002421000083
:1024a40021090000084800004242000017180000fb
:1024b400c067000083840000202200000220000086
:1024c4002202000020220000022000002f0700004a
:1024d4001f04000011010000401800000300000068
:1024e400600a00000220000083e00000cf850000a5
:1024f40006600000240100004014000001400000b8
:102504001602000050440000f840000004000000df
:10251400400f0000001e00006c3b00000340000060
:102524002805000000a0000012060000614300001e
:10253400c80100000020000004030000c0e3000004
:102544008b130000808000002008000002000000bf
:10255400802000003f8000001f5800003405000068
:10256400801e00000060000006010000c0af0000f3
:10257400c020000004000000801000000ff00000e4
:10258400400800000100000020040000008000005a
:1025940010030000043f000000c10000c80900004f
:1025a40001200000240400008090000012020000ba
:1025b40061c70000ccf80000f90100000810000019
:1025c4006081000008080000402200000120000093
:1025d4000500000030000000f07a00000110000047
:1025e400088c00004262000012900000a505000063
:1025f40018280000c086000000780000f3040000e2
:1026040018800000d006000000700000098100005e
:102614000c2000006f8f0000f0f200000220000088
:1026240041040000108000008809000000500000f0
:10263400060000002004000000400000080f000015
:10264400e0ff000041000000808000008080000066
:102654008080000040bf0000c01900000842000054
:102664001084000064180000421000008420000060
:10267400c0ff0000ffc00000c108000042100000bd
:10268400841000004c42000010840000260000006a
:10269400381300003838000000000000000000007b
:1026a4000e0000000100000000000000030f000005
:1026b4000e060000f20000000600000008070000fb
:1026c4000e030000f20000000d0000000a100000dc
:1026d4000e020000f2000000210000000a110000b8
:1026e4000e020000f2000000370000000a0f000094
:1026f4000e020000f20000004a000000090c000075
:102704000e030000f500000058000000030700005d
:102714000e050000f20000005b0000000312000040
:102724000e070000f2000000620000000312000027
:102734000e040000f2000000690000000909000016
:102744000e030000f200000074000000090b0000fa
:102754000e030000f50000008100000005070000e2
:102764000e030000fd000000860000000b010000c5
:102774000e020000fa0000008800000003030000bd
:102784000e050000fe0000008a000000091200008f
:102794000e030000f10000009f000000090f00007c
:1027a4000e030000f2000000b0000000070e00005d
:1027b4000e040000f3000000bd000000090f00003b
:1027c4000e020000f2000000ce0000000a0f00001c
:1027d4000e020000f2000000e1000000080f0000fb
:1027e4000e030000f2000000f0000000090f0000da
:1027f4000e030000f200000001010000090f0000b8
:102804000e030000f200000012010000080f000097
:102814000e030000f200000021010000090f000077
:102824000e030000f200000032010000090f000056
:102834000e030000f200000043010000030a000040
:102844000e050000f700000047010000050d000020
:102854000e030000f7000000500100000b0b000005
:102864000e020000f5000000600100000c040000ee
:102874000e010000f8000000660100000b0b0000d0
:102884000e020000f500000076010000090e0000b1
:102894000e030000f3000000860100000910000090
:1028a4000e030000f2000000980100000e0e00006c
:1028b4000e000000f3000000b10100000b0e000048
:1028c4000e020000f3000000c50100000a0e000023
:1028d4000e020000f3000000d70100000a0e000001
:1028e4000e020000f3000000e90100000b0e0000de
:1028f4000e020000f3000000fd0100000b0e0000ba
:102904000e020000f3000000110200000b0e000094
:102914000e020000f3000000250200000a0e000071
:102924000e020000f300000037020000070e000052
:102934000e040000f3000000440200000b0e00002f
:102944000e020000f3000000580200000c0e00000c
:102954000e020000f30000006d0200000b0e0000e8
:102964000e020000f3000000810200000d0e0000c2
:102974000e010000f3000000980200000c0e00009d
:102984000e010000f3000000ad0200000c0e000078
:102994000e010000f3000000c20200000a0e000055
:1029a4000e020000f3000000d40200000c1100002d
:1029b4000e010000f3000000ee0200000c0e000007
:1029c4000e020000f3000000030300000a0e0000e2
:1029d4000e020000f3000000150300000b0e0000bf
:1029e4000e020000f3000000290300000c0e00009a
:1029f4000e010000f30000003e0300000e0e000074
:102a04000e000000f3000000570300000e0e00004b
:102a14000e000000f3000000700300000c0e000024
:102a24000e010000f3000000850300000c0e0000fe
:102a34000e010000f30000009a030000090e0000dc
:102a44000e030000f3000000aa03000003120000bc
:102a54000e070000f2000000b1030000091200009c
:102a64000e030000f1000000c60300000312000082
:102a74000e050000f2000000cd030000090600006e
:102a84000e030000f2000000d40300000e01000059
:102a94000e00000003000000d60300000404000040
:102aa4000e040000f1000000d80300000a0a000030
:102ab4000e020000f7000000e50300000d0f000007
:102ac4000e000000f2000000fe0300000b0a0000ec
:102ad4000e020000f70000000c0400000b0f0000c1
:102ae4000e020000f2000000210400000a0a0000a7
:102af4000e020000f70000002e040000090f000081
:102b04000e040000f20000003f0400000b0e000061
:102b14000e020000f7000000530400000a0f00003a
:102b24000e020000f200000066040000090f00001d
:102b34000e030000f20000007704000007130000f9
:102b44000e030000f2000000880400000c0f0000d7
:102b54000e010000f20000009f040000090f0000b5
:102b64000e030000f2000000b00400000d0a000093
:102b74000e010000f7000000c10400000c0a000070
:102b84000e010000f7000000d00400000b0a000052
:102b94000e020000f7000000de0400000c0e00002e
:102ba4000e010000f7000000f30400000b0e00000b
:102bb4000e020000f7000000070500000a0a0000ea
:102bc4000e030000f7000000140500000a0a0000cc
:102bd4000e020000f7000000210500000b0e0000ab
:102be4000e010000f3000000350500000b0a000090
:102bf4000e020000f7000000430500000d0a00006b
:102c04000e010000f7000000540500000d0a00004a
:102c14000e010000f7000000650500000c0a00002a
:102c24000e010000f7000000740500000c0e000007
:102c34000e010000f700000089050000090a0000e9
:102c44000e030000f70000009505000005120000c7
:102c54000e050000f2000000a105000001120000b2
:102c64000e070000f2000000a40500000512000099
:102c74000e050000f2000000b00500000a03000089
:102c84000e020000f90000009a8d00004e9300002f
:102c9400200000007e0000001800000043690000ce
:102ca400616f0000204d00006f6e0000646f000033
:102cb40000630000696100006f2000006d6f000078
:082cc4006e6400006f000000c7
:020000040000fa
:102ccc000400fa00000f7800110798009e007800ad
:102cdc00118088009e009000018088000080fa001e
:102cec00000006000a00fa0030079800014f980017
:102cfc000e4890000080fb004400dd00804078000e
:102d0c000e48900000c07000404798000180800081
:102d1c00108080008088b9000000d1008000eb009a
:102d2c00008fbe00060037003e009000ce409000a1
:102d3c00014878003e0090000000e8003007980041
:102d4c001e0090001e00700000f0a7000000ea00ba
:102d5c000000ea004f00de00004078000081eb002c
:102d6c008081eb001e0f41005e9749000004e000db
:102d7c00edff3a000080fa00000006000800fa009f
:102d8c00000f7800110798002207980063479800fd
:102d9c00108080008000e9001e009000808f5000a1
:102dac003e003900008080008000e9002e00900079
:102dbc00808f50003b003900118080002e00900065
:102dcc008088b900800078001e00900000804000d0
:102ddc0061006000004078000004e0001700320041
:102dec00118080002e0090008088b900800078004f
:102dfc001e009000008040000000d1001e0040002a
:102e0c0012808000ae0090008191b9009e0090006d
:102e1c00810041008100d1009e80400091407800eb
:102e2c000141780001cfb30001416100ee409000f8
:102e3c0081407100014878001b0037001180800030
:102e4c002e0090008088b900800078001e00900051
:102e5c00008040000000d1001e0040001280800065
:102e6c00ae0090008191b9009e009000810041005d
:102e7c008100d1009e804000914078006fc16000bd
:102e8c00ee4090008180fb00c408dd00814078009a
:102e9c0081407100014878000300370000000000f9
:102eac0001003700000000000080fa00000006005e
:102ebc000e00fa002007980031079800420798008e
:102ecc0053079800444f9800ce0090005e0090008d
:102edc00808f50000e003100ce009000010f780062
:102eec0006003700ce4990001e017800be0090000d
:102efc002e009000a1ff07001e0fe8005e0090005e
:102f0c009e007800808f5000f6ff36000f003700cf
:102f1c00de0090001107980008003700ce499000a1
:102f2c001e019000be0090002e00900093ff070041
:102f3c001e0090000000e800100798009e00900012
:102f4c004e009000808f5000f4ff36000080fa0095
:102f5c00000006000e00fa002007980031079800c8
:102f6c004207980053079800444f9800ce009000f9
:102f7c005e009000808f50000e003100ce0090005b
:102f8c00010f780006003700ce4990003e019000fa
:102f9c009e0078002e00900078ff07001e0fe800be
:102fac005e0090009e007800808f5000f6ff360087
:102fbc000f003700de009000110798000800370062
:102fcc00ce4990003e0190009e0090002e00900093
:102fdc006aff07001e0090000000e8001007980030
:102fec009e0090004e009000808f5000f4ff360041
:102ffc000080fa00000006001a00fa007007980022
:10300c00010f9800120f9800230f9800340f9800ae
:10301c00055f98008e0890002e089000808f50005d
:10302c0006003a000e5a9000be0990001e0990004e
:10303c008e0890007e0090009dff07009e08900077
:10304c003e089000808f500006003a000e5a900007
:10305c00ae0990000e0990009e0890007e00900032
:10306c00bcff0700be0890001e08900000805000b6
:10307c000001780002f0a7000201ea00ae089000ff
:10308c000e089000008050008000780001f0a7002e
:10309c008100ea0010002000810f510001003c006b
:1030ac000000eb00200798002e009000e10f50006c
:1030bc000c003a009e089000310798008e08900092
:1030cc00110f9800be009000010f9800be089000f0
:1030dc0031079800ae089000310f9800be009000a8
:1030ec00210f98008e0890002e089000808f5000c1
:1030fc000c0036008e08900041079800ae08900036
:10310c00010f9800ce009000210f98009e089000af
:10311c0041079800be089000110f9800ce00900057
:10312c00310f9800ae0890000e08900000805000ff
:10313c0050079800be0890001e08900000805000b8
:10314c0000f0a7000000ea00600798005e00900005
:10315c00cf00de00008040000080d100000f78001e
:10316c009e0890003e089000808f500003003100b4
:10317c0010002000100798001f0037000080eb00a3
:10318c00100798001c0037002e0090000000e00093
:10319c00060032008e5990000e0990009e08900097
:1031ac007e009000f5fe0700050037008e59900058
:1031bc001e0990008e0890007e009000effe070024
:1031cc006e0090001e0f10001e0078000000e00042
:1031dc0006003d001e0090009e08900000804000fc
:1031ec00100f98005e0090001e0f40000e0890001b
:1031fc000000e800000f98008e0890002e08900048
:10320c00808f5000e0ff36000080fa0000000600be
:10321c004200fa00889fbe008a1f7800301f980079
:10322c00411f9800521f9800631f9800741f98004c
:10323c0005c79800ce1890006e189000808f500033
:10324c0006003a000ec29000fe1990005e19900024
:10325c00ce1890003e18900015ff0700de18900065
:10326c007e189000808f500006003a000ec290002d
:10327c00ee1990004e199000de1890003e18900048
:10328c0034ff0700fe1890005e189000008050007c
:10329c000001780002f0a7000201ea00ee1890008d
:1032ac004e189000008050008000780001f0a700bc
:1032bc008100ea0010c0b300810f510001003c00f6
:1032cc000040eb00004f98000e4890000004e00016
:1032dc000c003200de189000510798004e19900037
:1032ec00521f9800de019000431f9800fe189000ba
:1032fc00510798006e199000721f9800de01900023
:10330c00631f9800ce1890006e189000808f5000ac
:10331c000c003600ce189000610798006e199000d2
:10332c00421f9800ee019000631f9800de18900079
:10333c00610798007e199000521f9800ee019000d2
:10334c00731f9800ee1890004e18900000805000eb
:10335c008000eb006ff5070070079800010f9800d4
:10336c00fe1890005e189000008050008000eb006a
:10337c0068f50700100f9800210f98007e0190004f
:10338c008e0990001e089000ae08900066f60700ab
:10339c00300f9800410f98004e1890008000eb0001
:1033ac005cf507008df90700500f9800610f98002d
:1033bc005e1890008000eb0056f507000004be007c
:1033cc004e1890008000eb0052f507000001be0083
:1033dc005e089000ee08900065f507003e0990002d
:1033ec00ce0990002ff707000001be000800be00b8
:1033fc0068f50700700f9800011798004e189000a0
:10340c008000eb0043f507000200200003f02300ce
:10341c0060f507000004be004e1890008000eb0021
:10342c003cf507000200200003f0230059f50700cb
:10343c002cf907000001be000800be004cf5070087
:10344c000001be000000200001f8230048f5070031
:10345c0010179800211798005e099000ee09900053
:10346c0032179800431798007e0890008e10900039
:10347c001cf9070050179800611798000e4890002f
:10348c000004e0004a0032007e0890008e1090008c
:10349c0014f907000001be007e0890008e10900009
:1034ac0033f507001e119000ae119000fdf60700d9
:1034bc000001be000000200001f823002cf50700dd
:1034cc000004be000ec090000080fb00cf80de0028
:1034dc000df507000001be000800be00f1f6070064
:1034ec00eef40700804478003e109000ce1090005f
:1034fc00eaf40700000478005e109000ee109000d3
:10350c00e6f4070000007800894178000801780093
:10351c00800078003e18900018fe07007e0890008e
:10352c008e109000eff807001e119000ae11900065
:10353c00dcf607000001be007e0890008e109000a3
:10354c000bf507000004be000ec090000080fb00cd
:10355c00cf80de00ecf407000001be000800be00c6
:10356c00d0f60700cdf40700804478003e109000a0
:10357c00ce109000c9f4070000047800020020006f
:10358c0003f823005e109000ee10900001f5070088
:10359c00c2f4070000007800894178000801780027
:1035ac00800078003e189000f4fd070049003700b9
:1035bc007e0890008e109000caf807000001be0033
:1035cc007e0890008e109000e9f407001e11900008
:1035dc00ae119000b3f607000001be000000200001
:1035ec0001f82300e2f407000004be000ec09000b6
:1035fc000080fb00cf80de00c3f407000001be009a
:10360c000800be00a7f60700a4f407008044780069
:10361c005e109000ee109000a0f4070000047800fb
:10362c003e109000ce1090009cf407000000780033
:10363c008941780008017800800078003e189000dd
:10364c00cefd07007e0890008e109000a5f80700b4
:10365c001e119000ae11900092f607000001be0002
:10366c007e0890008e109000c1f407000004be008c
:10367c000ec090000080fb00cf80de00a2f407009b
:10368c000001be000800be0086f6070083f40700a8
:10369c00804478000200200003f823005e109000a4
:1036ac00ee109000bbf407007cf4070000047800d7
:1036bc003e109000ce10900078f4070000007800c7
:1036cc008941780008017800800078003e1890004d
:1036dc00aafd07003e099000ce0990007e089000dc
:1036ec008e109000abf40700008fbe006e18900097
:1036fc008000eb0087f40700b8f80700500f980023
:10370c00610f98007e1890008000eb0081f4070098
:10371c000004be006e1890008000eb007df40700e2
:10372c000001be005e089000ee08900090f40700c7
:10373c003e099000ce0990005af607000001be0029
:10374c000800be0093f40700700f98000117980052
:10375c006e1890008000eb006ef407000200200051
:10376c0003f023008bf407000004be006e189000d9
:10377c008000eb0067f407000200200003f0230038
:10378c0084f4070057f807000001be000800be00d3
:10379c0077f4070010179800211798005e09900025
:1037ac00ee09900072179800031f98007e08900095
:1037bc008e1090004bf80700101f9800211f9800e6
:1037cc000e4890000004e0004a0032007e08900091
:1037dc008e10900043f807000001be007e08900098
:1037ec008e10900062f407001e119000ae11900034
:1037fc002cf607000001be000000200001f8230099
:10380c005bf407000004be000ec090000080fb00bb
:10381c00cf80de003cf407000001be000800be00b3
:10382c0020f607001df40700804478007e109000fd
:10383c008e18900019f40700000478001e189000f0
:10384c00ae18900015f4070000007800894178004c
:10385c0008017800800078003e18900047fd0700b2
:10386c007e0890008e1090001ef807000001be002c
:10387c007e0890008e1090003df407001e11900001
:10388c00ae11900007f607000004be000ec09000b9
:10389c000080fb00cf80de001bf407000001be009f
:1038ac000800be00fff50700fcf307008044780019
:1038bc007e1090008e189000f8f30700000478003a
:1038cc000200200003f823001e189000ae18900090
:1038dc0030f40700f1f3070000007800894178000c
:1038ec0008017800800078003e18900023fd070046
:1038fc00490037007e0890008e109000f9f7070001
:10390c000001be007e0890008e10900018f4070095
:10391c001e119000ae119000e2f507000001be00f0
:10392c000000200001f8230011f407000004be0081
:10393c000ec090000080fb00cf80de00f2f3070089
:10394c000001be000800be00d6f50700d3f3070047
:10395c00804478001e189000ae189000cff307003a
:10396c00000478007e1090008e189000cbf30700b6
:10397c000000780089417800080178008000780008
:10398c003e189000fdfc07007e0890008e10900001
:10399c00d4f707000001be007e0890008e10900046
:1039ac00f3f307001e119000ae119000bdf5070057
:1039bc000004be000ec090000080fb00cf80de0033
:1039cc00d1f307000001be000800be00b5f50700ea
:1039dc00b2f30700804478000200200003f82300b3
:1039ec001e189000ae189000eaf30700abf3070026
:1039fc00000478007e1090008e189000a7f307004a
:103a0c000000780089417800080178008000780077
:103a1c003e189000d9fc07000e4890000004e0000e
:103a2c00630032000200200003f823003e109000d7
:103a3c00ce109000d7f3070077f30700200798000b
:103a4c00480037001e0078009e009000a5f7070084
:103a5c000001be001e0078009e009000c4f3070019
:103a6c000001be000000200001f82300c0f3070095
:103a7c000004be000ec090000080fb00cf80de0072
:103a8c00a1f307000001be000800be0085f5070089
:103a9c0082f30700804478002e0490001e0078000a
:103aac009e0090008ff707007cf307000000780061
:103abc008941780008017800800078003e18900059
:103acc00aefc07001e0078009e00900085f70700f2
:103adc000001be001e0078009e009000a4f30700b9
:103aec000004be000ec090000080fb00cf80de0002
:103afc0085f307000001be000800be0069f5070051
:103b0c0066f30700804478002e0490001e007800b5
:103b1c009e00900073f707000200200003f82300ba
:103b2c009cf307005df307000000780089417800e2
:103b3c0008017800800078003e1890008ffc070088
:103b4c003e099000ce0990001e0078009e00900067
:103b5c0090f30700008fbe002e0090000000e800dc
:103b6c00200798002e009000cf80de0066f307003f
:103b7c000004be000200200003f823007e10900019
:103b8c008e1890007af307001ac0b3000001be0033
:103b9c000800be001ef307000000e0000100340026
:103bac000045eb000a04e000a6ff3a006200370073
:103bbc000200200003f823003e109000ce1090006d
:103bcc0074f3070014f3070030079800480037001f
:103bdc001e0078009e00900042f707000001be0016
:103bec001e0078009e00900061f307000001be00eb
:103bfc000000200001f823005df307000004be0064
:103c0c000ec090000080fb00cf80de003ef307006a
:103c1c000001be000800be0022f507001ff30700dc
:103c2c00004478001e0078009e0090002df70700dd
:103c3c001af30700800078003e009000884178005d
:103c4c0001017800800078003e1890004bfc0700c2
:103c5c001e0078009e00900022f707000001be00b5
:103c6c001e0078009e00900041f307000004be0087
:103c7c000ec090000080fb00cf80de0022f3070016
:103c8c000001be000800be0006f5070003f30700a4
:103c9c00004478001e0078009e00900011f7070089
:103cac000200200003f823003af30700fbf20700a0
:103cbc00800078003e009000884178000101780077
:103ccc00800078003e1890002cfc07003e09900004
:103cdc00ce0990001e0078009e0090002df3070086
:103cec00008fbe003e0090000000e80030079800f6
:103cfc003e009000cf80de0003f307000004be00fe
:103d0c000200200003f823007e1090008e18900013
:103d1c0017f307001ac0b3000001be000800be0074
:103d2c00bbf207000000e000010034000045eb008e
:103d3c000a04e000a6ff3a004f0578004f04be00cd
:103d4c000080fa00000006000c00fa00000f78005a
:103d5c001107980022079800330798004407980031
:103d6c00254f98002e4a9000ce0190002e01900015
:103d7c009e0090001e0078004dfc07002e4a90001b
:103d8c00ce0190002e019000be0090001e00780025
:103d9c0047fc07002e4a9000be0190001e019000c7
:103dac00ae0090001e0078006afc07002e4a9000be
:103dbc00be0190001e019000ce0090001e00780005
:103dcc0064fc07000080fa00000006001000fa00f6
:103ddc002007980031079800420798005307980075
:103dec0064079800654f9800be009000010f7800a2
:103dfc0010003700ce009000110798000800370023
:103e0c00ee4990001e0190009e0078002e0090005c
:103e1c00dafb07001e0090000000e8001007980075
:103e2c009e0090006e009000808f5000f4ff3600d2
:103e3c001e0fe8005e0090009e007800808f5000fe
:103e4c00ecff36000080fa00000006001400fa00b7
:103e5c00500798006107980072079800030f9800ac
:103e6c00245798000e08900061001000000f780095
:103e7c0010002000100798008e089000e0ff2f0023
:103e8c008088b900200798000000eb0030079800ec
:103e9c008e08900041079800fe0090000e089000dc
:103eac0000804000ae51900000017800ee009000c0
:103ebc005e009000b1fb0700fe0090000e08900021
:103ecc0000805000ae51900000017800ee00900090
:103edc005e009000a9fb0700ee0090000e08900019
:103eec0000804000ae5190007e0190008000780070
:103efc005e009000a1fb0700ee0090000e08900001
:103f0c0000805000ae5190007e019000800078003f
:103f1c005e00900099fb07006b0037001e007800d4
:103f2c000000e000080035004e0090000000e900a1
:103f3c00400798002e0090000080e80020079800b1
:103f4c002e0090001e0f40003e0090000000e80084
:103f5c00300798001e0090000080e80010079800c1
:103f6c001e0090001e0f4000ce0090007e009000be
:103f7c00808040003e0190006e00900000004100e7
:103f8c00ae51900001017800800078005e00900036
:103f9c007afb0700ce0090007e00900080804000ed
:103fac003e0090006e01900000005100ae51900058
:103fbc0001017800800078005e0090006ffb070024
:103fcc004e009000fe009000808050003e0190005a
:103fdc006e00900000004100ae519000010178008d
:103fec00800078005e00900064fb07004e0090009b
:103ffc00fe009000808050003e0090006e0190000a
:10400c0000005100ae519000010178008000780052
:10401c005e00900059fb0700be0090007e009000ef
:10402c00808040004e0190006e0090000000410026
:10403c00ae51900001017800800078005e00900085
:10404c004efb0700be0090007e0090008080400078
:10405c004e0090006e01900000005100ae51900097
:10406c0001017800800078005e00900043fb07009f
:10407c003e009000fe009000808050004e019000a9
:10408c006e00900000004100ae51900001017800dc
:10409c00800078005e00900038fb07003e00900026
:1040ac00fe009000808050004e0090006e01900049
:1040bc0000005100ae5190000101780080007800a2
:1040cc005e0090002dfb0700be0090004e0090009b
:1040dc00808f500091ff35000080fa000000060030
:1040ec001200fa0030079800410798005207980018
:1040fc006307980074079800050f98000000eb0008
:10410c00000f7800ee009000110798001b0037009c
:10411c00de009000210798000f0037004e00900041
:10412c001e004000104078000080fb004400de00c0
:10413c0000407800804178001e019000ae00900095
:10414c003e0090000dfb07001e0fe8002e009000b3
:10415c000000e80020079800de0090007e00900030
:10416c00808040002e009000808f5000ebff3e00be
:10417c001e0090000000e80010079800ee00900070
:10418c000e089000808040001e009000808f500030
:10419c00dfff3e000080fa00000006001600fa0067
:1041ac00500798006107980072079800030f980059
:1041bc00140f9800250f98000000eb00000f7800fa
:1041cc000000eb00100798000040eb00004f980037
:1041dc008e0890002107980031003700fe009000f7
:1041ec0031079800250037001e0090000040780031
:1041fc0061406000004f98000e4890000004e00001
:10420c000f003a006e0090001e0040001040780035
:10421c000080fb004400de00004078008041780004
:10422c002e019000be0090005e009000d3fa0700b3
:10423c001e0090000000e800100798000c003700ea
:10424c006e0090001e004000104078008041780005
:10425c002e019000be0090005e009000c7fa07008f
:10426c001e0090000000e800100798001e0fe800e8
:10427c003e0090000000e80030079800fe0090001f
:10428c001e089000808040003e009000808f5000ff
:10429c00d5ff3e002e0090000000e800200798009b
:1042ac008e0890002e089000808040002e00900018
:1042bc00808f5000c9ff3e000080fa00000006000d
:1042cc000200fa00000f78009e0078003180880010
:1042dc000080fa00000006001800fa007007980031
:1042ec0001579800120f9800230f980064579800fc
:1042fc00308080000000e0006600320030808000da
:10430c0020009000004078008e50900000c05000bb
:10431c000057980030808000900090000e50900064
:10432c000080fb004300dd00008040003007980057
:10433c003080800090007800410798003e0090008b
:10434c00100f78003e009000a0409000214f980084
:10435c003e009000b0409000314f98003e0090001d
:10436c00d0409000414f98003e009000e0409000fb
:10437c00514f98000040eb00204798000040eb00a4
:10438c00304798000040eb00404798000040eb009d
:10439c00504798000040eb00404798003800370029
:1043ac000040eb00504798002e0037002e40900044
:1043bc000080fb006700600000f0a7000000ea002e
:1043cc000000e9004f00de0000407800ae40900095
:1043dc008140e800214798000004e000050032000d
:1043ec004e0090001e00400090407800314798002d
:1043fc001e0fe8003e4090000004e00013003d005a
:10440c005e4890008000fb002e08900080804000e9
:10441c004e4090000080fb00808040004e48900091
:10442c000001fb001e089000000141005e4090005e
:10443c000080fb0000004100ee519000010178006b
:10444c00800078007e0090004cfa07003e409000ff
:10445c0000404000304798005e4090000040e8006b
:10446c0050479800de4090002e48900080cf5000be
:10447c00ceff39004e4090000040e80040479800c5
:10448c00ce4090003e48900080cf5000c4ff3900d1
:10449c0001003700000000000080fa000000060058
:1044ac000a00fa00000f7800110798002207980004
:1044bc0033079800044f9800180037001e00900036
:1044cc00104078000e4a9000be0190002e01900022
:1044dc00804078001e0078007fff0700308080004d
:1044ec00900090001e009000104078000000fb002f
:1044fc000002b1004300dd0000804000404090000d
:10450c000080fb00ae009000008040002007980067
:10451c001e0090000000e800100798001e0090009c
:10452c00104078000004e000e4ff3a000080fa003c
:10453c00000006000600fa00000f78001107980032
:10454c0022079800f3c7b3000041eb00f1c3b3009e
:10455c000040eb00d60007002e0090004800dd0064
:10456c008000d1001e009000008040001e00400022
:10457c000200220003002000e20007000080fa0085
:10458c00000006000200fa00004f78001602070037
:10459c00250207001e407800270207000e020700c4
:1045ac000080fa00000006000200fa00004f7800bc
:1045bc000d020700180207001e4078001e020700bb
:1045cc00050207000080fa00000006000000fa0057
:1045dc000d02070010002000010020003602070029
:1045ec000502070020032000010020003202070012
:1045fc00d0cfb300e3ff070020c1b300eaff0700f0
:10460c00e0cab300dfff070030cbb300ddff0700cb
:10461c0010c9b300e4ff0700a0ccb300d9ff07001a
:10462c00f0c3b300e0ff070020cab300d5ff0700ba
:10463c000040eb00dcff070010cab300d1ff0700fd
:10464c000040eb00d8ff070000cab300cdff070005
:10465c0040c1b300d4ff070010c1b300d2ff070064
:10466c0050cbb300c7ff07000040eb00ceff0700a4
:10467c00b0cab300c3ff070010c0b300caff0700e5
:10468c0040cbb300bfff070000cab300c6ff070052
:10469c00d0cfb300c4ff070010ccb300b9ff0700a4
:1046ac0000c0eb00c0ff070070ccb300b5ff0700e3
:1046bc00f0c0b300bcff070090cbb300b1ff070004
:1046cc0010cbb300afff070020ceb300b6ff07003e
:1046dc0010cdb300abff070020c8b300b2ff07003a
:1046ec0000c2b300b0ff0700b0cbb300a5ff0700ba
:1046fc00f0c1b300acff070060cbb300a1ff070013
:10470c0080c0b300a8ff0700e0cbb3009dff0700fb
:10471c0070c0b300a4ff070060cab30099ff070084
:10472c0090cab30097ff0700a000200001002000f2
:10473c00e1010700f0cab30092ff0700200320003c
:10474c0001002000dc0107000080fa0000000600d8
:10475c000200fa00000f78001e007800e10f5000f4
:10476c0010003200e10f50000b003900e20f500036
:10477c0003003200e30f5000040032000c0037003d
:10478c0060cab3007fff07000900370070cab3008e
:10479c007cff07000600370050cab30079ff070002
:1047ac000300370040cab30076ff0700000000008a
:1047bc000080fa00000006000000fa00e0cab30016
:1047cc0070ff07000080fa00000006000000fa00ed
:1047dc00f0cab3006bff07000080fa00000006006f
:1047ec000200fa00004f780010ccb30065ff070000
:1047fc001e4078006cff07000080fa0000000600e5
:10480c000200fa00004f780070ccb3005dff070087
:10481c009e4078006fc0600063ff07000080fa00c4
:10482c00000006000400fa001007980080cbb300cb
:10483c0054ff07000000eb00000f78000f0037005a
:10484c001e0078009e009000008040009040780090
:10485c0040cbb30080cf5000020036000040eb008c
:10486c000c0037001e0078009e0090000080400075
:10487c00104078004cff07001e0fe8001e00780067
:10488c00ef0f5000eeff34000040eb003dff07003f
:10489c0010c0b3000080fa00000006000000fa000f
:1048ac0090cbb30037ff07000080fa000000060031
:1048bc000400fa00004f7800114798002247980036
:1048cc003347980050c1b3002eff07009e4078007c
:1048dc007cc0400034ff07001e4090007c4040002c
:1048ec0031ff070050c7b30026ff07002e40900091
:1048fc002dff07003e4090002bff07000080fa00c0
:10490c00000006000600fa00000f7800120798005d
:10491c0023079800c0c5b3001aff07003201070037
:10492c003d0107001e019000ae0190001e007800b2
:10493c0048010700280107000080fa00000006006b
:10494c000000fa00f0032000101288001000200074
:10495c0020128800c0002800001288000080fa0095
:10496c00000006000400fa00000f78001107980000
:10497c000000000000128000620060000000e000f7
:10498c00fcff3a001e007800104078000080fb000d
:10499c00401288000000000001128000000220007c
:1049ac00008060000000e000fbff3a004012800035
:1049bc00804078001e009000014878000080fa00ca
:1049cc00000006001800fa00100f9800210f980044
:1049dc00320f98000000eb00000f78000000eb0095
:1049ec00100798000000eb00700798000000eb0027
:1049fc00000f980010002000600798001e0890001f
:104a0c000000e00005003a000000eb0050079800a1
:104a1c00700047002007980004003700ee0090005b
:104a2c00510798009e089000210798003e089000be
:104a3c000000e00005003a000000eb004007980081
:104a4c006e0047003007980005003700ee0090001c
:104a5c0041079800be089000310798000000000044
:104a6c0000128000620060000000e000fcff3a00d1
:104a7c001d00370000128000620060000000e000a2
:104a8c0009003a002e009000104078000080fb00d6
:104a9c0040128800ae0090005e0090000080400044
:104aac00200798001e0fe800011280000002200071
:104abc00008060000000e0000b003a004012800013
:104acc00804078003e00900001487800be009000c5
:104adc004e00900000804000300798001e009000af
:104aec000000e800100798002e0890009e00780047
:104afc00808f5000dfff390010003700011280005a
:104b0c0000022000008060000000e0000b003a0072
:104b1c0040128000804078003e00900001487800f0
:104b2c00be0090004e0090000080400030079800be
:104b3c001e0090000000e800100798009e009000f6
:104b4c002e089000808f5000ecff39001e0078007a
:104b5c000080fa00000006000400fa0020479800cc
:104b6c000e80e8008e0078007eff07001e40780063
:104b7c000080fa00000006000600fa00000f780022
:104b8c0011079800220798002e0190009e009000bb
:104b9c001e0078008bff07000080fa000000060062
:104bac000000fa00001280000080fa0000000600ed
:104bbc000000fa00003a80000080fa0000000600b5
:104bcc000200fa00faff0700000f78001e007800c0
:104bdc00240007000004e00002003200000028005e
:104bec00710007001e0078002a0007000004e00096
:104bfc0002003200000024006b0007001e00780049
:104c0c00320007000004e000020032000020200007
:104c1c00650007001e0078003a0007000004e00061
:104c2c0002003200000820005f0007001e00780020
:104c3c00420007000004e0000200320000042000e3
:104c4c00590007001e0078004a0007000004e0002d
:104c5c000200320000012000530007000080fa001f
:104c6c00000006000400fa00100798000040eb005a
:104c7c00004f78001e0090000000e00002003d0094
:104c8c0010c0b300004f78001e4078000080fa007e
:104c9c00000006000400fa00100798000040eb002a
:104cac00004f78009e0090000000240000806000ff
:104cbc000000e0000200320010c0b300004f78008a
:104ccc001e4078000080fa00000006000400fa0084
:104cdc00100798000040eb00004f78009e009000f9
:104cec0000202000008060000000e0000200320084
:104cfc0010c0b300004f78001e4078000080fa000e
:104d0c00000006000400fa00100798000040eb00b9
:104d1c00004f78009e00900000082000008060008a
:104d2c000000e0000200320010c0b300004f780019
:104d3c001e4078000080fa00000006000400fa0013
:104d4c00100798000040eb00004f78009e00900088
:104d5c0000042000008060000000e000020032002f
:104d6c0010c0b300004f78001e4078000080fa009d
:104d7c00000006000400fa00100798000040eb0049
:104d8c00004f78001e009000700060000000e000f2
:104d9c000200320010c0b300004f78001e407800b3
:104dac000080fa00000006000200fa00000f7800f4
:104dbc009e80ea00003a800000806000003a880083
:104dcc000080fa00000006000000fa004027ef0007
:104ddc000080fa00000006000000fa00040ea80093
:104dec000080fa00000006000000fa00040ea90082
:104dfc000080fa00000006000000fa00042ea80053
:104e0c000080fa00000006000000fa00042ea90041
:104e1c000080fa00000006000000fa00052ea80031
:104e2c000080fa00000006000000fa00052ea90020
:104e3c000080fa00000006000400fa0020479800e9
:104e4c002e40900044ff0700004f78000080fa00cd
:104e5c00000006000a00fa002007980032079800ac
:104e6c00430798006000b800008fbe0009003700af
:104e7c001e007800ae0090000080400010407800ca
:104e8c00edff070012002000030020001e0f410060
:104e9c005e9749003e009000ce0090001e01780005
:104eac009e019000800f5100818f5900f0ff390056
:104ebc000080fa00000006000800fa0020079800a5
:104ecc00310798006000b800008fbe000600370064
:104edc00100020007b0007001200200003002000bf
:104eec001e0f41005e9749002e009000be009000fe
:104efc001e0178009e019000800f5100818f590097
:104f0c00f3ff39000080fa00000006000000fa00f0
:104f1c00042eef00182eef002c2eef00402eef0089
:104f2c00542eef00682eef007c2eef0000d82100ed
:104f3c0000708800e0e72f00a070880070fe23004e
:104f4c004071880000162000e071880000002f00de
:104f5c00807288003000200020738800003c200004
:104f6c00c07388000c2eef00202eef00342eef00c3
:104f7c00482eef005c2eef00702eef00842eef0019
:104f8c000a2eef001e2eef00322eef00462eef0001
:104f9c005a2eef006e2eef00822eef00062eef0041
:104fac001a2eef002e2eef00422eef00562eef00a1
:104fbc006a2eef007e2eef0000c821007070880072
:104fcc00e03820001071880070ff2000b07188005c
:104fdc0000002f00f0728800003c20003074880024
:104fec000080fa00000006000020fa008d00070087
:104ffc0076fd070001002200ff0f0900001feb00e7
:10500c00010757008040eb000e00780035f70700d1
:10501c000001eb008000eb000e00780045fd07005e
:10502c00f5c0b3002403200043062000a20020009a
:10503c00a10020000e00780043fb0700f5c0b30070
:10504c002403200043062000a2002000a100200021
:10505c000e007800e8f70700f4c0b300430120000d
:10506c00e2012000c10320000e00780077fb07004e
:10507c00f4c0b30043012000a20020000165290008
:10508c000e00780006fd0700606429008cfc070008
:10509c00f4c0b30043012000a2002000b165290038
:1050ac000e007800fefc07000001eb008000eb0016
:1050bc000e0078001ffd0700401f200001000700b4
:1050cc00d0ff37000200fa00000f78000300370011
:1050dc0000fa2000010020006f0007001e0078007d
:1050ec0000f0a7000000ea000000ea004f00de001c
:1050fc00004078001e0fe9000004e000f4ff3a00c5
:10510c000080fa00000006000200fa00000f780090
:10511c000500370000082000010020005e00070099
:10512c0001fe2f001e8f40001e007800ff0f500064
:10513c00f8ff3e0003003700400020000100200073
:10514c00550007001e00780000f0a7000000ea00e0
:10515c000000ea004f00de00004078001e0fe9005e
:10516c000004e000f4ff3a000080fa0000000600a2
:10517c000000fa0000102300203a88004827ef00b6
:10518c004e27ef0020032000303a88006027ef0004
:10519c006227ef006427ef006627ef006a27ef0015
:1051ac006c27ef006e27ef00220020008007200004
:1051bc00a1092000337420008049780081497800cf
:1051cc00824978000001eb0060042000710520008a
:1051dc002374200080497800814978008249780046
:1051ec000080fa00000006000200fa00000f7800b0
:1051fc0021028000200f2000008060001e00700043
:10520c00200288000080fa00000006000000fa006e
:10521c00c3e8a80000000000000000000080fa00b5
:10522c00000006000000fa0038ff070034000700f9
:10523c00cfff0700c2fd0700f4ff070000022000ab
:0c524c00e9ff07000080fa0000000600e7
:020000040000fa
:105258000a10000020000000800000000410000078
:105268000200000082000000ffff0000061000009e
:105278000200000080000000001000000400000090
:10528800820000004000000001000000081000003b
:0c52980002000000800000000000000088
:020000040000fa
:1052a400f03fb1000180b10006003500ee030900b3
:1052b40000000000403fb1000180b100fbff3d0051
:1052c4001000b000203fb00002003500008009004b
:0852d4000000000000000600cc
:020000040000fa
:1052dc000200fa00000f78009e0078002180880000
:1052ec00ffff37000000fa00a000210080077800c3
:1052fc0020022100000188000080fa000000060056
:0c530c000000fa000080fa00000006001b
:020000040000fa
:020000040005f5
:04570000ffffff00a8
:020000040000fa
:020000040005f5
:04572000ffff000087
:020000040000fa
:020000040005f5
:045730007aff0000fc
:020000040000fa
:020000040005f5
:04573800baff0000b4
:020000040000fa
:020000040005f5
:045740009fff0000c7
:020000040000fa
:020000040005f5
:04574800ffff00005f
:020000040000fa
:020000040005f5
:04575000feff000058
:020000040000fa
:020000040005f5
:04575800000000004d
:020000040000fa
:020000040005f5
:045760000000000045
:020000040000fa
:020000040005f5
:04576800000000003d
:020000040000fa
:020000040005f5
:045770000000000035
:020000040000fa
:020000040005f5
:04577800feff000030
:020000040000fa
:020000040005f5
:04578000ffff000027
:020000040000fa
:020000040005f5
:04578800ffff00001f
:00000001FF
