:020000040000fa
:080000000002040000000000f2
:020000040000fa
:04000800fa020000f8
:020000040000fa
:04000c003c030000b1
:020000040000fa
:040010009c0300004d
:020000040000fa
:040014001a030000cb
:020000040000fa
:040018005c03000085
:020000040000fa
:04001c007c03000061
:020000040000fa
:04002000bc0300001d
:020000040000fa
:0400240008040000cc
:020000040000fa
:0400280008040000c8
:020000040000fa
:04002c0008040000c4
:020000040000fa
:0400300008040000c0
:020000040000fa
:0400340008040000bc
:020000040000fa
:0400380008040000b8
:020000040000fa
:04003c0008040000b4
:020000040000fa
:0400400008040000b0
:020000040000fa
:0400440008040000ac
:020000040000fa
:0400480008040000a8
:020000040000fa
:04004c0008040000a4
:020000040000fa
:0400500008040000a0
:020000040000fa
:04005400080400009c
:020000040000fa
:040058000804000098
:020000040000fa
:04005c000804000094
:020000040000fa
:040060000804000090
:020000040000fa
:04006400080400008c
:020000040000fa
:040068000804000088
:020000040000fa
:04006c000804000084
:020000040000fa
:040070000804000080
:020000040000fa
:04007400080400007c
:020000040000fa
:040078000804000078
:020000040000fa
:04007c000804000074
:020000040000fa
:040080000804000070
:020000040000fa
:04008400080400006c
:020000040000fa
:040088000804000068
:020000040000fa
:04008c000804000064
:020000040000fa
:040090000804000060
:020000040000fa
:04009400080400005c
:020000040000fa
:040098000804000058
:020000040000fa
:04009c000804000054
:020000040000fa
:0400a0000804000050
:020000040000fa
:0400a400080400004c
:020000040000fa
:0400a8000804000048
:020000040000fa
:0400ac000804000044
:020000040000fa
:0400b0000804000040
:020000040000fa
:0400b400080400003c
:020000040000fa
:0400b8000804000038
:020000040000fa
:0400bc000804000034
:020000040000fa
:0400c0000804000030
:020000040000fa
:0400c400080400002c
:020000040000fa
:0400c8000804000028
:020000040000fa
:0400cc000804000024
:020000040000fa
:0400d0000804000020
:020000040000fa
:0400d400080400001c
:020000040000fa
:0400d8000804000018
:020000040000fa
:0400dc000804000014
:020000040000fa
:0400e0000804000010
:020000040000fa
:0400e400080400000c
:020000040000fa
:0400e8000804000008
:020000040000fa
:0400ec000804000004
:020000040000fa
:0400f0000804000000
:020000040000fa
:0400f40008040000fc
:020000040000fa
:0400f80008040000f8
:020000040000fa
:0400fc0008040000f4
:020000040000fa
:0401000008040000ef
:020000040000fa
:0401040008040000eb
:020000040000fa
:0401080008040000e7
:020000040000fa
:04010c0008040000e3
:020000040000fa
:0401100008040000df
:020000040000fa
:0401140008040000db
:020000040000fa
:0401180008040000d7
:020000040000fa
:04011c0008040000d3
:020000040000fa
:0401200008040000cf
:020000040000fa
:0401240008040000cb
:020000040000fa
:0401280008040000c7
:020000040000fa
:04012c0008040000c3
:020000040000fa
:0401300008040000bf
:020000040000fa
:0401340008040000bb
:020000040000fa
:0401380008040000b7
:020000040000fa
:04013c0008040000b3
:020000040000fa
:0401400008040000af
:020000040000fa
:0401440008040000ab
:020000040000fa
:0401480008040000a7
:020000040000fa
:04014c0008040000a3
:020000040000fa
:04015000080400009f
:020000040000fa
:04015400080400009b
:020000040000fa
:040158000804000097
:020000040000fa
:04015c000804000093
:020000040000fa
:04016000080400008f
:020000040000fa
:04016400080400008b
:020000040000fa
:040168000804000087
:020000040000fa
:04016c000804000083
:020000040000fa
:04017000080400007f
:020000040000fa
:04017400080400007b
:020000040000fa
:040178000804000077
:020000040000fa
:04017c000804000073
:020000040000fa
:04018000080400006f
:020000040000fa
:04018400080400006b
:020000040000fa
:040188000804000067
:020000040000fa
:04018c000804000063
:020000040000fa
:04019000080400005f
:020000040000fa
:04019400080400005b
:020000040000fa
:040198000804000057
:020000040000fa
:04019c000804000053
:020000040000fa
:0401a000080400004f
:020000040000fa
:0401a400080400004b
:020000040000fa
:0401a8000804000047
:020000040000fa
:0401ac000804000043
:020000040000fa
:0401b000080400003f
:020000040000fa
:0401b400080400003b
:020000040000fa
:0401b8000804000037
:020000040000fa
:0401bc000804000033
:020000040000fa
:0401c000080400002f
:020000040000fa
:0401c400080400002b
:020000040000fa
:0401c8000804000027
:020000040000fa
:0401cc000804000023
:020000040000fa
:0401d000080400001f
:020000040000fa
:0401d400080400001b
:020000040000fa
:0401d8000804000017
:020000040000fa
:0401dc000804000013
:020000040000fa
:0401e000080400000f
:020000040000fa
:0401e400080400000b
:020000040000fa
:0401e8000804000007
:020000040000fa
:0401ec000804000003
:020000040000fa
:0401f00008040000ff
:020000040000fa
:0401f40008040000fb
:020000040000fa
:0401f80008040000f7
:020000040000fa
:0401fc0008040000f3
:020000040000fa
:0402000008040000ee
:020000040000fa
:0402040008040000ea
:020000040000fa
:0402080008040000e6
:020000040000fa
:04020c0008040000e2
:020000040000fa
:0402100008040000de
:020000040000fa
:0402140008040000da
:020000040000fa
:0402180008040000d6
:020000040000fa
:04021c0008040000d2
:020000040000fa
:0402200008040000ce
:020000040000fa
:0402240008040000ca
:020000040000fa
:0402280008040000c6
:020000040000fa
:04022c0008040000c2
:020000040000fa
:0402300008040000be
:020000040000fa
:0402340008040000ba
:020000040000fa
:0402380008040000b6
:020000040000fa
:04023c0008040000b2
:020000040000fa
:0402400008040000ae
:020000040000fa
:0402440008040000aa
:020000040000fa
:0402480008040000a6
:020000040000fa
:04024c0008040000a2
:020000040000fa
:04025000080400009e
:020000040000fa
:04025400080400009a
:020000040000fa
:040258000804000096
:020000040000fa
:04025c000804000092
:020000040000fa
:04026000080400008e
:020000040000fa
:04026400080400008a
:020000040000fa
:040268000804000086
:020000040000fa
:04026c000804000082
:020000040000fa
:04027000080400007e
:020000040000fa
:04027400080400007a
:020000040000fa
:040278000804000076
:020000040000fa
:04027c000804000072
:020000040000fa
:04028000080400006e
:020000040000fa
:04028400080400006a
:020000040000fa
:040288000804000066
:020000040000fa
:04028c000804000062
:020000040000fa
:04029000080400005e
:020000040000fa
:04029400080400005a
:020000040000fa
:040298000804000056
:020000040000fa
:04029c000804000052
:020000040000fa
:0402a000080400004e
:020000040000fa
:0402a400080400004a
:020000040000fa
:0402a8000804000046
:020000040000fa
:0402ac000804000042
:020000040000fa
:0402b000080400003e
:020000040000fa
:0402b400080400003a
:020000040000fa
:0402b8000804000036
:020000040000fa
:0402bc000804000032
:020000040000fa
:0402c000080400002e
:020000040000fa
:0402c400080400002a
:020000040000fa
:0402c8000804000026
:020000040000fa
:0402cc000804000022
:020000040000fa
:0402d000080400001e
:020000040000fa
:0402d400080400001a
:020000040000fa
:0402d8000804000016
:020000040000fa
:0402dc000804000012
:020000040000fa
:0402e000080400000e
:020000040000fa
:0402e400080400000a
:020000040000fa
:0402e8000804000006
:020000040000fa
:0402ec000804000002
:020000040000fa
:0402f00008040000fe
:020000040000fa
:0402f40008040000fa
:020000040000fa
:0402f80008040000f6
:020000040000fa
:0402fc0008040000f2
:020000040000fa
:0403000008040000ed
:020000040000fa
:0403040008040000e9
:020000040000fa
:0403080008040000e5
:020000040000fa
:04030c0008040000e1
:020000040000fa
:0403100008040000dd
:020000040000fa
:100400002f0321000eff24000e01880000000000d1
:10041000000020000000e000020032000001200087
:100420002002880014000700fb0007000000e00025
:1004300003003a0060642000010020000200370041
:100440000000200001002000810f70000100320038
:100450000f000700000020000000e0000200320052
:100460000000020000000000fe0502000000000085
:100470000040da000000fe00200020000000e00044
:1004800002003200100020009001880000000600e9
:10049000a1028800800478000000eb001f003700f4
:1004a000e284440054a0b4009905ba00e2844400f8
:1004b00054a0b4009906ba00e284440054a0b400e9
:1004c0000006eb00476fde00fd07b200ae018800ba
:1004d000636ce10003003a000ad801000000eb0061
:1004e0000e003700606ce10008003a00004deb00a0
:1004f0000a05e800020039003420ec000af0a000f0
:100500008b05e900f9ff3e00040037006168e10057
:10051000010032000086eb000b00070019c7ba008b
:100520000e04e0001905ba0003003a000a00e000da
:10053000dbff3a0000000600fe07b200ae028800b2
:100540008a047800f5ff37000cd0a300e20f4d00bd
:100550001c003b0089027800354dba000a05e8000e
:10056000020039003420ec000af0a0008b05e900fd
:100570000f003200254dba000a05e80002003900dc
:100580003420ec000af0a0008b05e90008003200de
:100590000c00e0000600320015cdba000a05e800a4
:1005a000020039003420ec000af0a0008b05e900bd
:1005b0008984e80054a0b4000b00e000e2ff3a0098
:1005c000000006009902ba00055d78008b05e9007d
:1005d000f7ff3200c82ade00055d78008b05e900d0
:1005e000f3ff32000c00e000f1ff320019ddba0029
:1005f000eeff37003600f800809fbe00829fbe00ed
:10060000849fbe00869fbe000000fa00c028a9009b
:100610000000eb00910107000080fa004f03be00cc
:100620004f02be004f01be004f00be003600f90071
:10063000004006003600f800809fbe00829fbe008a
:10064000849fbe00869fbe000000fa00880107005c
:10065000c048a90010002000800107000080fa00b7
:100660004f03be004f02be004f01be004f00be0050
:100670003600f900004006003600f800809fbe00fa
:10068000829fbe00849fbe00869fbe000000fa00cd
:10069000c068a90020002000700107000080fa0057
:1006a0004f03be004f02be004f01be004f00be0010
:1006b0003600f900004006003600f800809fbe00ba
:1006c000829fbe00849fbe00869fbe000000fa008d
:1006d000c088a90030002000600107000080fa00f7
:1006e0004f03be004f02be004f01be004f00be00d0
:1006f0003600f900004006003600f800809fbe007a
:10070000829fbe00849fbe00869fbe000000fa004c
:10071000c0a8a90040002000500107000080fa0096
:100720004f03be004f02be004f01be004f00be008f
:100730003600f900004006003600f800809fbe0039
:10074000829fbe00849fbe00869fbe000000fa000c
:10075000c608a90070002000400107000080fa00d0
:100760004f03be004f02be004f01be004f00be004f
:100770003600f900004006003600f800809fbe00f9
:10078000829fbe00849fbe00869fbe000000fa00cc
:100790002146800000102000008060000000e00082
:1007a00003003200c508a900c00020002b0107008b
:1007b0002146800000002800008060000000e0006a
:1007c00003003200c5e8a9008000200023010700d3
:1007d0002146800000022000008060000000e00050
:1007e00003003200c4a8a900900020001b010700ec
:1007f00020468000700060000000e000030032002e
:10080000c488a900a000200014010700ffff3700e2
:0c0810000040da000000fe0000000500bf
:020000040000fa
:10081c000000fa00003a80000080fa000000060098
:10082c000200fa00faff0700000f78001e007800a3
:10083c00240007000004e000020032000000280041
:10084c00710007001e0078002a0007000004e00079
:10085c0002003200000024006b0007001e0078002c
:10086c00320007000004e0000200320000202000eb
:10087c00650007001e0078003a0007000004e00045
:10088c0002003200000820005f0007001e00780004
:10089c00420007000004e0000200320000042000c7
:1008ac00590007001e0078004a0007000004e00011
:1008bc000200320000012000530007000080fa0003
:1008cc00000006000400fa00100798000040eb003e
:1008dc00004f78001e0090000000e00002003d0078
:1008ec0010c0b300004f78001e4078000080fa0062
:1008fc00000006000400fa00100798000040eb000e
:10090c00004f78009e0090000000240000806000e2
:10091c000000e0000200320010c0b300004f78006d
:10092c001e4078000080fa00000006000400fa0067
:10093c00100798000040eb00004f78009e009000dc
:10094c0000202000008060000000e0000200320067
:10095c0010c0b300004f78001e4078000080fa00f1
:10096c00000006000400fa00100798000040eb009d
:10097c00004f78009e00900000082000008060006e
:10098c000000e0000200320010c0b300004f7800fd
:10099c001e4078000080fa00000006000400fa00f7
:1009ac00100798000040eb00004f78009e0090006c
:1009bc0000042000008060000000e0000200320013
:1009cc0010c0b300004f78001e4078000080fa0081
:1009dc00000006000400fa00100798000040eb002d
:1009ec00004f78001e009000700060000000e000d6
:1009fc000200320010c0b300004f78001e40780097
:100a0c000080fa00000006000200fa00000f7800d7
:100a1c009e80ea00003a800000806000003a880066
:100a2c000080fa00000006000000fa004027ef00ea
:100a3c000080fa00000006000000fa00042eef000f
:100a4c00182eef00000b200060718800402eef0084
:100a5c00542eef00682eef007c2eef0030f92100b1
:100a6c00007088000080eb00a0708800f0fc230070
:100a7c004071880000162000e071880000002f00f3
:100a8c00807288003000200020738800003c200019
:100a9c00c07388000c2eef00202eef00342eef00d8
:100aac00482eef005c2eef00702eef00842eef002e
:100abc000a2eef001e2eef00322eef00462eef0016
:100acc005a2eef006e2eef00822eef00062eef0056
:100adc001a2eef002e2eef00422eef00562eef00b6
:100aec006a2eef007e2eef0030e921007070880036
:100afc003038200010718800f0f42100b0718800ab
:100b0c0000002f00f0728800003c20003074880038
:100b1c000080fa00000006000000fa00001023001c
:100b2c00203a88004827ef004e27ef0020032000d2
:100b3c00303a88006027ef006227ef006427ef004f
:100b4c006627ef006a27ef006c27ef006e27ef0097
:100b5c007200200080072000a109200033742000bf
:100b6c008049780081497800824978000001eb00c7
:100b7c006004200071052000237420008049780057
:100b8c0081497800824978000080fa000000060054
:100b9c000200fa00000f780021028000200f2000d4
:100bac00008060001e007000200288000080fa00a7
:100bbc00000006000000fa00c3e8a80000000000d6
:100bcc00000000000080fa00000006000000fa009f
:100bdc0099ff070032000700cfff0700f5ff070061
:100bec0000022000eaff07000080fa000000060067
:100bfc000200fa00f5ff07000100370000000000ba
:100c0c00507180004700de0061406000004f7800aa
:100c1c001e4078000004e000f8ff3a00607180008c
:100c2c004400de00614060000004a20061406000ee
:100c3c000080fb00610060004400dd0061718000f9
:100c4c000140a1000100700060718800ecff3700ca
:100c5c000200fa00000f78009e00780001808800e6
:100c6c00ffff37000000fa00200021008007780009
:100c7c00a0012100000188000080fa00000006009d
:020000040000fa
:100c8c000210000020000000800000000010000096
:100c9c000200000082000000ffff000000000000c6
:020000040000fa
:0c0cac000000fa000080fa0000000600c2
:020000040000fa
:020000040005f5
:04570000ffffff00a8
:020000040000fa
:020000040005f5
:04572000ffff000087
:020000040000fa
:020000040005f5
:045730007fff0000f7
:020000040000fa
:020000040005f5
:04573800bfff0000af
:020000040000fa
:020000040005f5
:045740009fff0000c7
:020000040000fa
:020000040005f5
:04574800ffff00005f
:020000040000fa
:020000040005f5
:04575000ffff000057
:020000040000fa
:020000040005f5
:04575800000000004d
:020000040000fa
:020000040005f5
:045760000000000045
:020000040000fa
:020000040005f5
:04576800000000003d
:020000040000fa
:020000040005f5
:045770000000000035
:020000040000fa
:020000040005f5
:04577800feff000030
:020000040000fa
:020000040005f5
:04578000ffff000027
:020000040000fa
:020000040005f5
:04578800ffff00001f
:00000001FF
