:020000040000fa
:080000000002040000000000f2
:020000040000fa
:0400080002030000ef
:020000040000fa
:04000c0044030000a9
:020000040000fa
:04001000a403000045
:020000040000fa
:0400140022030000c3
:020000040000fa
:04001800640300007d
:020000040000fa
:04001c008403000059
:020000040000fa
:04002000c403000015
:020000040000fa
:040024005404000080
:020000040000fa
:04002800540400007c
:020000040000fa
:04002c005404000078
:020000040000fa
:040030005404000074
:020000040000fa
:040034005404000070
:020000040000fa
:04003800540400006c
:020000040000fa
:04003c005404000068
:020000040000fa
:040040005404000064
:020000040000fa
:0400440010040000a4
:020000040000fa
:04004800540400005c
:020000040000fa
:04004c005404000058
:020000040000fa
:040050005404000054
:020000040000fa
:040054005404000050
:020000040000fa
:04005800540400004c
:020000040000fa
:04005c005404000048
:020000040000fa
:040060005404000044
:020000040000fa
:040064005404000040
:020000040000fa
:04006800540400003c
:020000040000fa
:04006c005404000038
:020000040000fa
:040070005404000034
:020000040000fa
:040074005404000030
:020000040000fa
:04007800540400002c
:020000040000fa
:04007c005404000028
:020000040000fa
:040080005404000024
:020000040000fa
:040084005404000020
:020000040000fa
:04008800540400001c
:020000040000fa
:04008c005404000018
:020000040000fa
:040090005404000014
:020000040000fa
:040094005404000010
:020000040000fa
:04009800540400000c
:020000040000fa
:04009c005404000008
:020000040000fa
:0400a0005404000004
:020000040000fa
:0400a4005404000000
:020000040000fa
:0400a80054040000fc
:020000040000fa
:0400ac0054040000f8
:020000040000fa
:0400b00054040000f4
:020000040000fa
:0400b40054040000f0
:020000040000fa
:0400b80054040000ec
:020000040000fa
:0400bc0054040000e8
:020000040000fa
:0400c00054040000e4
:020000040000fa
:0400c40054040000e0
:020000040000fa
:0400c80054040000dc
:020000040000fa
:0400cc0054040000d8
:020000040000fa
:0400d00054040000d4
:020000040000fa
:0400d40054040000d0
:020000040000fa
:0400d80054040000cc
:020000040000fa
:0400dc0054040000c8
:020000040000fa
:0400e00054040000c4
:020000040000fa
:0400e40054040000c0
:020000040000fa
:0400e80054040000bc
:020000040000fa
:0400ec0054040000b8
:020000040000fa
:0400f00054040000b4
:020000040000fa
:0400f40054040000b0
:020000040000fa
:0400f80054040000ac
:020000040000fa
:0400fc0054040000a8
:020000040000fa
:0401000054040000a3
:020000040000fa
:04010400540400009f
:020000040000fa
:04010800540400009b
:020000040000fa
:04010c005404000097
:020000040000fa
:040110005404000093
:020000040000fa
:04011400540400008f
:020000040000fa
:04011800540400008b
:020000040000fa
:04011c005404000087
:020000040000fa
:040120005404000083
:020000040000fa
:04012400540400007f
:020000040000fa
:04012800540400007b
:020000040000fa
:04012c005404000077
:020000040000fa
:040130005404000073
:020000040000fa
:04013400540400006f
:020000040000fa
:04013800540400006b
:020000040000fa
:04013c005404000067
:020000040000fa
:040140005404000063
:020000040000fa
:04014400540400005f
:020000040000fa
:04014800540400005b
:020000040000fa
:04014c005404000057
:020000040000fa
:040150005404000053
:020000040000fa
:04015400540400004f
:020000040000fa
:04015800540400004b
:020000040000fa
:04015c005404000047
:020000040000fa
:040160005404000043
:020000040000fa
:04016400540400003f
:020000040000fa
:04016800540400003b
:020000040000fa
:04016c005404000037
:020000040000fa
:040170005404000033
:020000040000fa
:04017400540400002f
:020000040000fa
:04017800540400002b
:020000040000fa
:04017c005404000027
:020000040000fa
:040180005404000023
:020000040000fa
:04018400540400001f
:020000040000fa
:04018800540400001b
:020000040000fa
:04018c005404000017
:020000040000fa
:040190005404000013
:020000040000fa
:04019400540400000f
:020000040000fa
:04019800540400000b
:020000040000fa
:04019c005404000007
:020000040000fa
:0401a0005404000003
:020000040000fa
:0401a40054040000ff
:020000040000fa
:0401a80054040000fb
:020000040000fa
:0401ac0054040000f7
:020000040000fa
:0401b00054040000f3
:020000040000fa
:0401b40054040000ef
:020000040000fa
:0401b80054040000eb
:020000040000fa
:0401bc0054040000e7
:020000040000fa
:0401c00054040000e3
:020000040000fa
:0401c40054040000df
:020000040000fa
:0401c80054040000db
:020000040000fa
:0401cc0054040000d7
:020000040000fa
:0401d00054040000d3
:020000040000fa
:0401d40054040000cf
:020000040000fa
:0401d80054040000cb
:020000040000fa
:0401dc0054040000c7
:020000040000fa
:0401e00054040000c3
:020000040000fa
:0401e40054040000bf
:020000040000fa
:0401e80054040000bb
:020000040000fa
:0401ec0054040000b7
:020000040000fa
:0401f00054040000b3
:020000040000fa
:0401f40054040000af
:020000040000fa
:0401f80054040000ab
:020000040000fa
:0401fc0054040000a7
:020000040000fa
:0402000054040000a2
:020000040000fa
:04020400540400009e
:020000040000fa
:04020800540400009a
:020000040000fa
:04020c005404000096
:020000040000fa
:040210005404000092
:020000040000fa
:04021400540400008e
:020000040000fa
:04021800540400008a
:020000040000fa
:04021c005404000086
:020000040000fa
:040220005404000082
:020000040000fa
:04022400540400007e
:020000040000fa
:04022800540400007a
:020000040000fa
:04022c005404000076
:020000040000fa
:040230005404000072
:020000040000fa
:04023400540400006e
:020000040000fa
:04023800540400006a
:020000040000fa
:04023c005404000066
:020000040000fa
:040240005404000062
:020000040000fa
:04024400540400005e
:020000040000fa
:04024800540400005a
:020000040000fa
:04024c005404000056
:020000040000fa
:040250005404000052
:020000040000fa
:04025400540400004e
:020000040000fa
:04025800540400004a
:020000040000fa
:04025c005404000046
:020000040000fa
:040260005404000042
:020000040000fa
:04026400540400003e
:020000040000fa
:04026800540400003a
:020000040000fa
:04026c005404000036
:020000040000fa
:040270005404000032
:020000040000fa
:04027400540400002e
:020000040000fa
:04027800540400002a
:020000040000fa
:04027c005404000026
:020000040000fa
:040280005404000022
:020000040000fa
:04028400540400001e
:020000040000fa
:04028800540400001a
:020000040000fa
:04028c005404000016
:020000040000fa
:040290005404000012
:020000040000fa
:04029400540400000e
:020000040000fa
:04029800540400000a
:020000040000fa
:04029c005404000006
:020000040000fa
:0402a0005404000002
:020000040000fa
:0402a40054040000fe
:020000040000fa
:0402a80054040000fa
:020000040000fa
:0402ac0054040000f6
:020000040000fa
:0402b00054040000f2
:020000040000fa
:0402b40054040000ee
:020000040000fa
:0402b80054040000ea
:020000040000fa
:0402bc0054040000e6
:020000040000fa
:0402c00054040000e2
:020000040000fa
:0402c40054040000de
:020000040000fa
:0402c80054040000da
:020000040000fa
:0402cc0054040000d6
:020000040000fa
:0402d00054040000d2
:020000040000fa
:0402d40054040000ce
:020000040000fa
:0402d80054040000ca
:020000040000fa
:0402dc0054040000c6
:020000040000fa
:0402e00054040000c2
:020000040000fa
:0402e40054040000be
:020000040000fa
:0402e80054040000ba
:020000040000fa
:0402ec0054040000b6
:020000040000fa
:0402f00054040000b2
:020000040000fa
:0402f40054040000ae
:020000040000fa
:0402f80054040000aa
:020000040000fa
:0402fc0054040000a6
:020000040000fa
:0403000054040000a1
:020000040000fa
:04030400540400009d
:020000040000fa
:040308005404000099
:020000040000fa
:04030c005404000095
:020000040000fa
:040310005404000091
:020000040000fa
:100400000f0421000eff24000e01880000000000f0
:10041000000020000000e000020032000001200087
:100420002002880014000700210107000000e000fe
:1004300003003a0000eb200001002000020037001a
:100440000000200001002000810f70000100320038
:100450000f000700000020000000e0000200320052
:100460000000020000000000dc0b020000000000a1
:100470000040da000000fe00200020000000e00044
:1004800002003200002020009001880000000600d9
:10049000a1028800800478000000eb001f003700f4
:1004a000e284440054a0b4009905ba00e2844400f8
:1004b00054a0b4009906ba00e284440054a0b400e9
:1004c0000006eb00476fde00fd07b200ae018800ba
:1004d000636ce10003003a000ad801000000eb0061
:1004e0000e003700606ce10008003a00004deb00a0
:1004f0000a05e800020039003420ec000af0a000f0
:100500008b05e900f9ff3e00040037006168e10057
:10051000010032000086eb000b00070019c7ba008b
:100520000e04e0001905ba0003003a000a00e000da
:10053000dbff3a0000000600fe07b200ae028800b2
:100540008a047800f5ff37000cd0a300e20f4d00bd
:100550001c003b0089027800354dba000a05e8000e
:10056000020039003420ec000af0a0008b05e900fd
:100570000f003200254dba000a05e80002003900dc
:100580003420ec000af0a0008b05e90008003200de
:100590000c00e0000600320015cdba000a05e800a4
:1005a000020039003420ec000af0a0008b05e900bd
:1005b0008984e80054a0b4000b00e000e2ff3a0098
:1005c000000006009902ba00055d78008b05e9007d
:1005d000f7ff3200c82ade00055d78008b05e900d0
:1005e000f3ff32000c00e000f1ff320019ddba0029
:1005f000eeff3700120e040000000000a00c040003
:10060000000000003600f800809fbe00829fbe0000
:10061000849fbe00869fbe000000fa00c028a9008b
:100620000000eb00f40507000080fa004f03be0055
:100630004f02be004f01be004f00be003600f90061
:10064000004006003600f800809fbe00829fbe007a
:10065000849fbe00869fbe000000fa00eb050700e5
:10066000c048a90010002000e30507000080fa0040
:100670004f03be004f02be004f01be004f00be0040
:100680003600f900004006003600f800809fbe00ea
:10069000829fbe00849fbe00869fbe000000fa00bd
:1006a000c068a90020002000d30507000080fa00e0
:1006b0004f03be004f02be004f01be004f00be0000
:1006c0003600f900004006003600f800809fbe00aa
:1006d000829fbe00849fbe00869fbe000000fa007d
:1006e000c088a90030002000c30507000080fa0080
:1006f0004f03be004f02be004f01be004f00be00c0
:100700003600f900004006003600f800809fbe0069
:10071000829fbe00849fbe00869fbe000000fa003c
:10072000c0a8a90040002000b30507000080fa001f
:100730004f03be004f02be004f01be004f00be007f
:100740003600f900004006003600f800809fbe0029
:10075000829fbe00849fbe00869fbe000000fa00fc
:10076000c608a90070002000a30507000080fa0059
:100770004f03be004f02be004f01be004f00be003f
:100780003600f900004006003600f800809fbe00e9
:10079000829fbe00849fbe00869fbe000000fa00bc
:1007a0002146800000102000008060000000e00072
:1007b00003003200c508a900c00020008e05070014
:1007c0002146800000002800008060000000e0005a
:1007d00003003200c5e8a90080002000860507005c
:1007e0002146800000022000008060000000e00040
:1007f00003003200c4a8a900900020007e05070075
:1008000020468000700060000000e000030032001d
:10081000c488a900a000200077050700ffff37006b
:100820003600f800809fbe00829fbe00849fbe00fd
:10083000869fbe000000fa00208080000000e800d3
:100840002080880020808000ef0f500006003600d6
:10085000108080000000e000020032001080800064
:10086000000001000430ef00f00221001040780089
:100870008040e800f002210001487800e0022100f9
:1008800011c0b3000148780000e8a9000080fa0018
:100890004f03be004f02be004f01be004f00be001e
:1008a0003600f900004006000040da000000fe00bb
:1008b000000005000001be00210007000470a70031
:1008c00003f0a1006509b100160032000d003500eb
:1008d0006828e10006003500f0ff2f00f1ff270037
:1008e0000300e00013003b000100280000000500a9
:1008f00000004000818048008502e900fcff3a00ca
:1009000008003700f88f420002003c008000eb0036
:10091000000005008100d1000080d3008502e800be
:10092000fcff3a000300e00002003b006000100002
:10093000e0801800000006006011b8007c0237005b
:10094000c70ade00f107b200f50fb200080032005e
:10095000e1cf4200020032000170a0002400050037
:10096000810f7000010032000408050044000500fa
:10097000810f700002003a00140005008502e900b2
:100980000000400081c04800fcff3b000170a00057
:1009900024000500889fbe008a9fbe008c9fbe0079
:1009a0001b0020000202be00058668000600280029
:1009b000060666004709de00f20fb2008200320030
:1009c0000243e80080003200c729de00f30fb200c6
:1009d0007d0032000343e8007b003200f107b200e3
:1009e0000170a000f507b2000570a000c708dd0087
:1009f0004903de00868070004700dd00c72add0065
:100a00004923de00868272004722dd000305510083
:100a100004035000858358000300310000004000ab
:100a2000818048000a05e9008c1f78008a9fbe007b
:100a300004005000858058000402420085824a006c
:100a400000004000818048000005eb000004be006b
:100a50006033b8000406be000d48e10056003100c6
:100a6000110009004dccd8000c01b8000d02b800ef
:100a70008481410060824a008283530003045c0049
:100a800084845c0060055d000a00e00025003a00f7
:100a9000800578000d40e1004900310088007800b1
:100aa00007007800110009004d88d8000c01b8003b
:100ab0000d02b8008481410060824a006003110089
:100ac00083835b0004045c00e0845c000900e000b8
:100ad00021003a004f01be000300e0002b0032006d
:100ae000e3016000070673008c8171000100320091
:100af000640070004200de004e5edd000c007000fd
:100b0000c258de0001e0a00083010700cf01780099
:100b1000818071004f06be004f05be004f04be002d
:100b2000000006008c8343000d044c00e0844c0060
:100b300060054d000000e9000a00e000d4ff32002b
:100b40008c8343000d044c00e0844c0060054d0094
:100b50000000e900ceff37000c0343008d834b00fb
:100b600060044c00e0844c000000e9000900e00053
:100b7000d8ff32000c0343008d834b0060044c000f
:100b8000e0844c000000e900d2ff37004200de00a4
:100b90004e5edd000c007000c258de0001e0a000d7
:100ba000cf0178000300e000daff3200600010009f
:100bb000e0801800d7ff3700f0ff2f00aaff3700b2
:100bc000f0ff2f00b9ff37000404be002f0107001b
:100bd000870678000004fd008104fd002b0107005a
:100be000078366000678a300030032000960a700af
:100bf0000800be002c0037000d78a3000200320070
:100c00000800be00280037000778a30026003a003d
:100c100001f0a10009f0a1000668a3000300320062
:100c2000f1ff2700f0ff2f00baff37000d68a30087
:100c3000030032000800be008c807000b5ff370052
:100c40000768a30007003a000648a300030032002b
:100c5000f1ff2700f0ff2f00aeff37000d48a30083
:100c6000030032006000b8008c807000a9ff3700dc
:100c70000748a3000400320001f82700000020000c
:100c80008c807000a3ff3700760107000004fd0090
:100c90008104fd0002057800720107000802be0011
:100ca0008a01780059ff37000160a000120220007d
:100cb0006280880097ff37000100e00012003200d8
:100cc0000500e00010003200889fbe008a9fbe0031
:100cd0008c9fbe000006eb0001f8a3000300320069
:100ce00060001000e08018000cf0a00005f8a300e0
:100cf0000300320060021200e0821a000cf0a20031
:100d00008005eb0041ff37006000b80002000500dd
:100d1000038368000700280007036300470ade001a
:100d20000480a100c71ade000580a100f70f200093
:100d30000720e100420032000728e10040003200b5
:100d4000889fbe008a9fbe008c1f7800f107b2000a
:100d5000f307b2000400e000640032000170a0005c
:100d60000500e000680032000370a0008505420025
:100d7000eb07b1000204b8000302b8008484440009
:100d800060854a00020ab800848444000a854a004b
:100d9000030ab80004054500040033000804d0002d
:100da0008984d2000a85d2008b05e9006158e100f0
:100db0003d003500021020000901610003082000f9
:100dc00089816100f707200087836400088673002b
:100dd000c84cde00c853dd00878474004855de002f
:100de0000300e000060032008203760004003200b7
:100df0008904e80060054d000a88a3000c003a0051
:100e0000f70f20000758e10044003d000a70a100e0
:100e1000c75ddd000a8575008a007300090078004f
:100e20004f0678004f05be004f04be0000000600cc
:100e30000a05d1008984d3008b05e800f0ff370054
:100e4000881f7800060478009000070007027800e9
:100e50000001fd008101fd008c0007008702780081
:100e6000850372000778a300050032000001fd0031
:100e70008101fd009f0007004f047800000006007c
:100e8000850372000748a30003003200f0ff2f0023
:100e9000f1ff2700f8ff37000000200001f82700cd
:100ea00088807000f4ff3700880178004848dd0032
:100eb000808171004848de00c850dd0001007000ec
:100ec000c850de00060478000b0178001600070009
:100ed00088807000d2ff37000500e0000500320076
:100ee000170020003a0007009dff370081037000c3
:100ef000f9ff3a00860078004f0678004f05be00e3
:100f00004f04be000000050083037100f9ff3200aa
:100f1000270020002e00070094ff370001f827006b
:100f200086807000f4ff37000100e00026003200e8
:100f3000610111007810e10023003c006022b8003c
:100f40007010e10004003500800278000100780094
:100f50008000eb00700151000200e0000900340045
:100f600070031100062add00822ade008603dd0000
:100f7000878272000200de00860bdd000700700031
:100f80008208de0084817100f4ff27000482620081
:100f90008481710004002800848262006102600084
:100fa00005f0a60000000600048271000700320070
:100fb0000000e800e0804800000006000002be00db
:100fc0006000b800efff37006000b80000000600c6
:100fd000889fbe000004eb006138e10016003a0073
:100fe0000100e00008003a00c800de004800dd0013
:100ff000880020000100e00003003a00c800de0085
:101000004800dd00680444008184cf00e984540076
:10101000060034008908dd00f08314008703de0039
:10102000878070000900dd0009044400610214009b
:101030004f04be00000006000300e00008003a0074
:10104000c811de004811dd00880020000300e00028
:1010500003003a00c811de004811dd0068044400b6
:101060008384cf00e9845400060034008919dd0030
:10107000f08314008713de00878171000911dd0001
:1010800009044400e1021400e9ff370027002000b2
:1010900001f0a70017002000470bde00f60fb2009a
:1010a000040032000643e8000a0032004702b300a1
:1010b0000000060001037800f607b2000603700086
:1010c00002003a000703b300000006008702b300e5
:1010d0000000060001037800f607b2000603700066
:1010e000020032000770a000000006000760a000a8
:1010f000000006000478a300040032000578a30075
:10110000030032000168a30001003a000200be00a3
:101110000160a0000000060081017000270032007d
:101120008002eb0001f8a300030032006000100011
:10113000e080180015002000f407200002024200a1
:1011400020003400f703200087036000060420001d
:101150000003630002082000000161004700de0078
:10116000c909dd0000807100c708de000600e0004c
:101170000800320087037100060032001000b00042
:101180000180b0000188a30002003200c108de0027
:101190000402e800f107b200f30f20000320e10091
:1011a00003003d004722dd00810072002900370066
:1011b00001f827000000eb00260037006000b800af
:1011c00000000600680212007f20e10002003400e7
:1011d0006000b8001f0037006011b8007020e10007
:1011e0000400350080017800010078008000eb00e9
:1011f000700252000400e00009003400f003120005
:101200000719dd008419de000703dd008681710007
:101210000400de00070bdd00060070008408de001d
:10122000f7ff27008383630087037100060028000f
:1012300003036300070032000700e00003003a00e8
:101240006101600002817300020032001000b000f2
:101250000180b0000500a6000000060001f0a0001b
:10126000000006004f0ade004709de00f107b20069
:10127000f20fb2000b003200f207b1000170a000c3
:10128000c708dd00c901de00838070004700dd0073
:101290000400a6000000060060001000e0801800b6
:1012a00000000600810f700001003a0000000600f7
:1012b0008182cf000500e00010003e008082cf0058
:1012c000ee8242007028e1000400390007003e0071
:1012d000800078000000eb000e00370070831200e1
:1012e0008600de000500dd000a0037007083520032
:1012f0008600dd000000eb0006003700e2825200ad
:101300008508dd00708312000603de008680700011
:101310000500dd007507b0000501ea000400a60025
:101320000000060060001000e080180000000600c9
:10133000889fbe008a9fbe00008270000402710078
:1013400004827100260032000004be000200be00cc
:101350006011b8006b092000950220000182cf00c7
:101360000a0039000541b1000082cf0007003900b2
:101370000541b1000982cf00040039000541b100e8
:101380000882cf00010039000541b100054252003a
:10139000120032000a003b0082817100610164008a
:1013a0008100d1000080d3008984d3000884d30059
:1013b0008b05e8000442e800f7ff3a000700370019
:1013c0000804440089844c000000480081804800e3
:1013d0008b05e9000442e900f9ff3a000300070029
:1013e0004f05be004f04be00000006008100200033
:1013f000618055000b003d000b00200061fe2f00b6
:101400000100e1001d00340082817100610164006f
:101410008904d1000884d3000000e800faff3a00f4
:101420007100200061006400030070000200600091
:101430000900320061044400e0844c000988a500e2
:10144000050032008b05e8006808e10002003a0060
:101450008904d1000884d300f20f20000258e10073
:1014600005003d00c75ddd00f907b2008980750009
:1014700008007800000006000bf827008b007800b9
:041480000000050063
:020000040000fa
:041484006400000000
:020000040000fa
:101488000000fa00003a80000080fa000000060020
:101498000200fa00faff0700000f78001e0078002b
:1014a800240007000004e0000200320000002800c9
:1014b800710007001e0078002a0007000004e00001
:1014c80002003200000024006b0007001e007800b4
:1014d800320007000004e000020032000020200073
:1014e800650007001e0078003a0007000004e000cd
:1014f80002003200000820005f0007001e0078008c
:10150800420007000004e00002003200000420004e
:10151800590007001e0078004a0007000004e00098
:101528000200320000012000530007000080fa008a
:10153800000006000400fa00100798000040eb00c5
:10154800004f78001e0090000000e00002003d00ff
:1015580010c0b300004f78001e4078000080fa00e9
:10156800000006000400fa00100798000040eb0095
:10157800004f78009e00900000002400008060006a
:101588000000e0000200320010c0b300004f7800f5
:101598001e4078000080fa00000006000400fa00ef
:1015a800100798000040eb00004f78009e00900064
:1015b80000202000008060000000e00002003200ef
:1015c80010c0b300004f78001e4078000080fa0079
:1015d800000006000400fa00100798000040eb0025
:1015e800004f78009e0090000008200000806000f6
:1015f8000000e0000200320010c0b300004f780085
:101608001e4078000080fa00000006000400fa007e
:10161800100798000040eb00004f78009e009000f3
:1016280000042000008060000000e000020032009a
:1016380010c0b300004f78001e4078000080fa0008
:10164800000006000400fa00100798000040eb00b4
:10165800004f78001e009000700060000000e0005d
:101668000200320010c0b300004f78001e4078001e
:101678000080fa00000006000200fa00000f78005f
:101688009e80ea00003a800000806000003a8800ee
:101698000080fa00000006000000fa004027ef0072
:1016a8000080fa00000006000000fa002023a800cd
:1016b8000080fa00000006000000fa002023a900bc
:1016c8000080fa00000006000200fa00000f78000f
:1016d8001e007800e10f50000b003200e10f5000af
:1016e80003003900e20f50000e00320014003700ea
:1016f8004119800000fc2f00008060003001b30019
:10170800401988000e0037004119800000fc2f00a6
:1017180080806000d003200001007000401988001c
:10172800070037004119800000fc2f00808060000e
:10173800e00320000100700040198800000000004c
:101748000080fa00000006000400fa001007980064
:101758001e009000e20f500003003e0001188000b8
:10176800010f780001003700000000001e0078001b
:101778000080fa00000006000400fa001007980034
:101788000019800000407800614060000080fb0084
:1017980000f0a7000000ea000000ea004f00de00a9
:1017a800004f78001e4078000080fa000000060014
:1017b8000c00fa00508080008000eb005cfc070001
:1017c800008fbe00400320005080880057010700aa
:1017d8002c8ea9002caea8002ccea8000000eb008f
:1017e800200798000000eb00300798006000b80060
:1017f8004007980051079800700007000000eb00b0
:10180800b1ff0700a8ff070040062000c900070035
:10181800a9ff0700000000000000eb00d6ff07004a
:101828000004a2000004e000fbff3a000000eb0007
:10183800c5ff07008000eb003dfc0700400798004b
:101848005107980002002c00f34724004e00900036
:10185800de0090004dfc070002002000832c2400cd
:1018680029fd070011fc0700300798003e00900092
:1018780050808800508080008000eb002cfc07001e
:10188800008fbe00ddff37000000fa000621ef00e0
:1018980020002000600888000002280080088800d6
:1018a800108080000000e00002003a0000ca20001a
:1018b8003a00070000e8a90020e8a800e00221009b
:1018c8008040eb00014878000080fa000000060024
:1018d8000200fa00000f78009e0078006108880076
:1018e800e00221008040eb00014878000080fa0007
:1018f800000006000000fa00600880000080fa007e
:10190800000006000200fa00000f78009e00780030
:1019180031088800e00221008040eb00014878008f
:101928000080fa00000006000000fa00300880007d
:101938000080fa00000006000000fa000080800025
:101948000000e8000080880010528400c200de0019
:10195800b04721000008b8008100d1005080800005
:101968008088b9008000780000808000808f500057
:10197800020039002ccea800010037002ccea900a7
:101988000180800010528400808f500001003900cf
:101998000030ef000080fa00000006000200fa00a4
:1019a800000f780020e8a9009e00780011808800c8
:1019b80020e8a8000080fa00000006000000fa00f5
:1019c800e00221008040eb000148780020e8a800f0
:1019d80011e1a8000080fa00000006000000fa00eb
:1019e80011e1a90020e8a9000080fa000000060023
:1019f8000200fa00e0022100104f78001e40780033
:101a08000004e00003003200e00221008040eb0007
:101a1800014878001e4078000080fa0000000600a7
:101a28000000fa00f0022100104078000080fb005e
:101a38000080fa00000006000000fa00f002210011
:101a48008040eb00014878000080fa0000000600a2
:101a58000000fa00042eef00182eef00000220000c
:101a680060718800402eef00542eef00682eef00c2
:101a780000302000e073880030f9210000708800f1
:101a8800f0df2f00a0708800f0f823004071880074
:101a980000162000e071880000002f008072880086
:101aa8003000200020738800002c2000c0738800bc
:101ab8000c2eef00202eef00342eef00482eef0002
:101ac8005c2eef00702eef00842eef000a2eef0040
:101ad8001e2eef00322eef00462eef005a2eef009a
:101ae8006e2eef00822eef00062eef001a2eef006a
:101af8002e2eef00422eef00562eef006a2eef003a
:101b08007e2eef0030e9210070708800f018200068
:101b180010718800f0c02100b071880000002f000b
:101b2800f0728800002c2000307488000080fa00d1
:101b3800000006000200fa00000f780003003700da
:101b480050e62000010020009b0007001e007800de
:101b580000f0a7000000ea000000ea004f00de00e5
:101b6800004078001e0fe9000004e000f4ff3a008e
:101b78000080fa00000006000200fa00000f78005a
:101b88000500370050072000010020008a000700e8
:101b980001fe2f001e8f40001e007800ff0f50002e
:101ba800f8ff3e000300370030002000010020004d
:101bb800810007001e00780000f0a7000000ea007e
:101bc8000000ea004f00de00004078001e0fe90028
:101bd8000004e000f4ff3a000080fa00000006006c
:101be8000000fa0000002800001988002223ef00f6
:101bf80000102000201988002823ef002e23ef0072
:101c08003023ef003223ef002623ef0020e12000ed
:101c1800050007000080fa00000006000000fa0036
:101c28000080fa00000006000200fa00000f7800a9
:101c38001e007800408088000080fa00000006003e
:101c48000000fa00014080000000220000806000cf
:101c58000000e00006003200408080000000e00044
:101c680002003200408080000000010001a8a900a5
:101c78000080fa00000006000000fa0000102300af
:101c8800203a88004827ef004e27ef000004200084
:101c9800303a88006027ef006227ef006427ef00e2
:101ca8006627ef006a27ef006c27ef006e27ef002a
:101cb8000001eb0080072000a109200033742000f8
:101cc8008049780081497800824978000001eb005a
:101cd80060042000710520002374200080497800ea
:101ce80081497800824978000080fa0000000600e7
:101cf8000200fa00000f780021028000200f200067
:101d0800008060001e007000200288000080fa0039
:101d1800000006000000fa00c3e8a8000000000068
:101d2800000000000080fa00000006000000fa0031
:101d380047ff07003a000700cfff0700a8ff07008a
:101d4800d1fe0700f3ff070000022000e8ff0700ac
:081d58000080fa000000060003
:020000040000fa
:101d60000e1000002000000080000000061000009f
:101d70000200000082000000ffff000008100000c9
:101d800002000000800000002e1000000200000091
:101d9000800000000a100000020000008200000025
:101da0001e0000000010000006000000800000007f
:101db0000c10000002000000800000000000000085
:020000040000fa
:101dc000f03fb1000180b10006003500ee030900cc
:101dd00000000000403fb1000180b100fbff3d006a
:101de0001000b000203fb000020035000080090064
:081df0000000000000000600e5
:020000040000fa
:101df8000200fa00000f78009e0078003180880009
:101e0800ffff37000000fa00e0002100800778009b
:101e180060022100000188000080fa00000006002e
:101e28000000fa0011428000f0ff280000806000e6
:101e380000c0a000104288000080fa0000000600e0
:020000040000fa
:020000040005f5
:04570000ffffff00a8
:020000040000fa
:020000040005f5
:04572000ffff000087
:020000040000fa
:020000040005f5
:0457300078ff0000fe
:020000040000fa
:020000040005f5
:045738007bff0000f3
:020000040000fa
:020000040005f5
:045740009fff0000c7
:020000040000fa
:020000040005f5
:04574800ffff00005f
:020000040000fa
:020000040005f5
:04575000feff000058
:020000040000fa
:020000040005f5
:04575800000000004d
:020000040000fa
:020000040005f5
:045760000000000045
:020000040000fa
:020000040005f5
:04576800000000003d
:020000040000fa
:020000040005f5
:045770000000000035
:020000040000fa
:020000040005f5
:04577800feff000030
:020000040000fa
:020000040005f5
:04578000ffff000027
:020000040000fa
:020000040005f5
:04578800ffff00001f
:00000001FF
