:020000040000fa
:080000000002040000000000f2
:020000040000fa
:0400080034030000bd
:020000040000fa
:04000c007603000077
:020000040000fa
:04001000d603000013
:020000040000fa
:040014005403000091
:020000040000fa
:04001800960300004b
:020000040000fa
:04001c00b603000027
:020000040000fa
:04002000f6030000e3
:020000040000fa
:04002400780400005c
:020000040000fa
:040028007804000058
:020000040000fa
:04002c007804000054
:020000040000fa
:040030007804000050
:020000040000fa
:040034004204000082
:020000040000fa
:040038007804000048
:020000040000fa
:04003c007804000044
:020000040000fa
:040040007804000040
:020000040000fa
:04004400780400003c
:020000040000fa
:040048007804000038
:020000040000fa
:04004c007804000034
:020000040000fa
:040050007804000030
:020000040000fa
:04005400780400002c
:020000040000fa
:040058007804000028
:020000040000fa
:04005c007804000024
:020000040000fa
:040060007804000020
:020000040000fa
:04006400780400001c
:020000040000fa
:040068007804000018
:020000040000fa
:04006c007804000014
:020000040000fa
:040070007804000010
:020000040000fa
:04007400780400000c
:020000040000fa
:040078007804000008
:020000040000fa
:04007c007804000004
:020000040000fa
:040080007804000000
:020000040000fa
:0400840078040000fc
:020000040000fa
:0400880078040000f8
:020000040000fa
:04008c0078040000f4
:020000040000fa
:0400900078040000f0
:020000040000fa
:0400940078040000ec
:020000040000fa
:0400980078040000e8
:020000040000fa
:04009c0078040000e4
:020000040000fa
:0400a00078040000e0
:020000040000fa
:0400a40078040000dc
:020000040000fa
:0400a80078040000d8
:020000040000fa
:0400ac0078040000d4
:020000040000fa
:0400b00078040000d0
:020000040000fa
:0400b4000203000043
:020000040000fa
:0400b80078040000c8
:020000040000fa
:0400bc0078040000c4
:020000040000fa
:0400c00078040000c0
:020000040000fa
:0400c40078040000bc
:020000040000fa
:0400c80078040000b8
:020000040000fa
:0400cc0078040000b4
:020000040000fa
:0400d00078040000b0
:020000040000fa
:0400d40078040000ac
:020000040000fa
:0400d80078040000a8
:020000040000fa
:0400dc0078040000a4
:020000040000fa
:0400e00078040000a0
:020000040000fa
:0400e400780400009c
:020000040000fa
:0400e8007804000098
:020000040000fa
:0400ec007804000094
:020000040000fa
:0400f0007804000090
:020000040000fa
:0400f400780400008c
:020000040000fa
:0400f8007804000088
:020000040000fa
:0400fc007804000084
:020000040000fa
:04010000780400007f
:020000040000fa
:04010400780400007b
:020000040000fa
:040108007804000077
:020000040000fa
:04010c007804000073
:020000040000fa
:04011000780400006f
:020000040000fa
:04011400780400006b
:020000040000fa
:040118007804000067
:020000040000fa
:04011c007804000063
:020000040000fa
:04012000780400005f
:020000040000fa
:04012400780400005b
:020000040000fa
:040128007804000057
:020000040000fa
:04012c007804000053
:020000040000fa
:04013000780400004f
:020000040000fa
:04013400780400004b
:020000040000fa
:040138007804000047
:020000040000fa
:04013c007804000043
:020000040000fa
:04014000780400003f
:020000040000fa
:04014400780400003b
:020000040000fa
:040148007804000037
:020000040000fa
:04014c007804000033
:020000040000fa
:04015000780400002f
:020000040000fa
:04015400780400002b
:020000040000fa
:040158007804000027
:020000040000fa
:04015c007804000023
:020000040000fa
:04016000780400001f
:020000040000fa
:04016400780400001b
:020000040000fa
:040168007804000017
:020000040000fa
:04016c007804000013
:020000040000fa
:04017000780400000f
:020000040000fa
:04017400780400000b
:020000040000fa
:040178007804000007
:020000040000fa
:04017c007804000003
:020000040000fa
:0401800078040000ff
:020000040000fa
:0401840078040000fb
:020000040000fa
:0401880078040000f7
:020000040000fa
:04018c0078040000f3
:020000040000fa
:0401900078040000ef
:020000040000fa
:0401940078040000eb
:020000040000fa
:0401980078040000e7
:020000040000fa
:04019c0078040000e3
:020000040000fa
:0401a00078040000df
:020000040000fa
:0401a40078040000db
:020000040000fa
:0401a80078040000d7
:020000040000fa
:0401ac0078040000d3
:020000040000fa
:0401b00078040000cf
:020000040000fa
:0401b40078040000cb
:020000040000fa
:0401b80078040000c7
:020000040000fa
:0401bc0078040000c3
:020000040000fa
:0401c00078040000bf
:020000040000fa
:0401c40078040000bb
:020000040000fa
:0401c80078040000b7
:020000040000fa
:0401cc0078040000b3
:020000040000fa
:0401d00078040000af
:020000040000fa
:0401d40078040000ab
:020000040000fa
:0401d80078040000a7
:020000040000fa
:0401dc0078040000a3
:020000040000fa
:0401e000780400009f
:020000040000fa
:0401e400780400009b
:020000040000fa
:0401e8007804000097
:020000040000fa
:0401ec007804000093
:020000040000fa
:0401f000780400008f
:020000040000fa
:0401f400780400008b
:020000040000fa
:0401f8007804000087
:020000040000fa
:0401fc007804000083
:020000040000fa
:04020000780400007e
:020000040000fa
:04020400780400007a
:020000040000fa
:040208007804000076
:020000040000fa
:04020c007804000072
:020000040000fa
:04021000780400006e
:020000040000fa
:04021400780400006a
:020000040000fa
:040218007804000066
:020000040000fa
:04021c007804000062
:020000040000fa
:04022000780400005e
:020000040000fa
:04022400780400005a
:020000040000fa
:040228007804000056
:020000040000fa
:04022c007804000052
:020000040000fa
:04023000780400004e
:020000040000fa
:04023400780400004a
:020000040000fa
:040238007804000046
:020000040000fa
:04023c007804000042
:020000040000fa
:04024000780400003e
:020000040000fa
:04024400780400003a
:020000040000fa
:040248007804000036
:020000040000fa
:04024c007804000032
:020000040000fa
:04025000780400002e
:020000040000fa
:04025400780400002a
:020000040000fa
:040258007804000026
:020000040000fa
:04025c007804000022
:020000040000fa
:04026000780400001e
:020000040000fa
:04026400780400001a
:020000040000fa
:040268007804000016
:020000040000fa
:04026c007804000012
:020000040000fa
:04027000780400000e
:020000040000fa
:04027400780400000a
:020000040000fa
:040278007804000006
:020000040000fa
:04027c007804000002
:020000040000fa
:0402800078040000fe
:020000040000fa
:0402840078040000fa
:020000040000fa
:0402880078040000f6
:020000040000fa
:04028c0078040000f2
:020000040000fa
:0402900078040000ee
:020000040000fa
:0402940078040000ea
:020000040000fa
:0402980078040000e6
:020000040000fa
:04029c0078040000e2
:020000040000fa
:0402a00078040000de
:020000040000fa
:0402a40078040000da
:020000040000fa
:0402a80078040000d6
:020000040000fa
:0402ac0078040000d2
:020000040000fa
:0402b00078040000ce
:020000040000fa
:0402b40078040000ca
:020000040000fa
:0402b80078040000c6
:020000040000fa
:0402bc0078040000c2
:020000040000fa
:0402c00078040000be
:020000040000fa
:0402c40078040000ba
:020000040000fa
:0402c80078040000b6
:020000040000fa
:0402cc0078040000b2
:020000040000fa
:0402d00078040000ae
:020000040000fa
:0402d40078040000aa
:020000040000fa
:0402d80078040000a6
:020000040000fa
:0402dc0078040000a2
:020000040000fa
:0402e000780400009e
:020000040000fa
:0402e400780400009a
:020000040000fa
:0402e8007804000096
:020000040000fa
:0402ec007804000092
:020000040000fa
:0402f000780400008e
:020000040000fa
:0402f400780400008a
:020000040000fa
:0402f8007804000086
:020000040000fa
:0402fc007804000082
:020000040000fa
:04030000780400007d
:020000040000fa
:040304007804000079
:020000040000fa
:040308007804000075
:020000040000fa
:04030c007804000071
:020000040000fa
:04031000780400006d
:020000040000fa
:100400000f4021000eff24000e01880000000000b4
:10041000000020000000e000020032000001200087
:100420002002880014000700330107000000e000ec
:1004300003003a00c031270001002000020037000d
:100440000000200001002000810f70000100320038
:100450000f000700000020000000e0000200320052
:100460000000020000000000be6802000000000062
:100470000040da000000fe00206623000000e000db
:1004800002003200002020009001880000000600d9
:10049000a1028800800478000000eb001f003700f4
:1004a000e284440054a0b4009905ba00e2844400f8
:1004b00054a0b4009906ba00e284440054a0b400e9
:1004c0000006eb00476fde00fd07b200ae018800ba
:1004d000636ce10003003a000ad801000000eb0061
:1004e0000e003700606ce10008003a00004deb00a0
:1004f0000a05e800020039003420ec000af0a000f0
:100500008b05e900f9ff3e00040037006168e10057
:10051000010032000086eb000b00070019c7ba008b
:100520000e04e0001905ba0003003a000a00e000da
:10053000dbff3a0000000600fe07b200ae028800b2
:100540008a047800f5ff37000cd0a300e20f4d00bd
:100550001c003b0089027800354dba000a05e8000e
:10056000020039003420ec000af0a0008b05e900fd
:100570000f003200254dba000a05e80002003900dc
:100580003420ec000af0a0008b05e90008003200de
:100590000c00e0000600320015cdba000a05e800a4
:1005a000020039003420ec000af0a0008b05e900bd
:1005b0008984e80054a0b4000b00e000e2ff3a0098
:1005c000000006009902ba00055d78008b05e9007d
:1005d000f7ff3200c82ade00055d78008b05e900d0
:1005e000f3ff32000c00e000f1ff320019ddba0029
:1005f000eeff37002c66040000000000cc70040001
:10060000000000003600f800809fbe00829fbe0000
:10061000849fbe00869fbe000000fa00512080002b
:1006200000042000008060000000e00006003200ae
:10063000208080000000e000020032002080800066
:10064000000001000ac4a9000468a9000080fa00a3
:100650004f03be004f02be004f01be004f00be0060
:100660003600f900004006003600f800809fbe000a
:10067000829fbe00849fbe00869fbe000000fa00dd
:10068000c028a9000000eb00983807000080fa009d
:100690004f03be004f02be004f01be004f00be0020
:1006a0003600f900004006003600f800809fbe00ca
:1006b000829fbe00849fbe00869fbe000000fa009d
:1006c0008f380700c048a9001000200087380700b5
:1006d0000080fa004f03be004f02be004f01be0073
:1006e0004f00be003600f900004006003600f8005a
:1006f000809fbe00829fbe00849fbe00869fbe007a
:100700000000fa00c068a900200020007738070028
:100710000080fa004f03be004f02be004f01be0032
:100720004f00be003600f900004006003600f80019
:10073000809fbe00829fbe00849fbe00869fbe0039
:100740000000fa00c088a9003000200067380700c8
:100750000080fa004f03be004f02be004f01be00f2
:100760004f00be003600f900004006003600f800d9
:10077000809fbe00829fbe00849fbe00869fbe00f9
:100780000000fa00c0a8a900400020005738070068
:100790000080fa004f03be004f02be004f01be00b2
:1007a0004f00be003600f900004006003600f80099
:1007b000809fbe00829fbe00849fbe00869fbe00b9
:1007c0000000fa00c608a9007000200047380700a2
:1007d0000080fa004f03be004f02be004f01be0072
:1007e0004f00be003600f900004006003600f80059
:1007f000809fbe00829fbe00849fbe00869fbe0079
:100800000000fa00214680000010200000806000f7
:100810000000e00003003200c508a900c00020006d
:100820003238070021468000000028000080600068
:100830000000e00003003200c5e8a90080002000ad
:100840002a38070021468000000220000080600056
:100850000000e00003003200c4a8a90090002000be
:100860002238070020468000700060000000e00091
:1008700003003200c488a900a00020001b38070034
:10088000ffff37003600f800809fbe00829fbe0049
:10089000849fbe00869fbe000000fa00508080004a
:1008a0000000e000020032005080800000000100e3
:1008b00090052100104078008040e800900521005c
:1008c000014878008005210011c0b300014878007c
:1008d0000068a9000080fa004f03be004f02be006e
:1008e0004f01be004f00be003600f9000040060078
:1008f0000040da000000fe000000050014002000a7
:10090000ab0337000001be003f0007000470a700e2
:1009100003f0a1006509b100160032000d0035009a
:100920006828e10006003500f0ff2f00f1ff2700e6
:100930000300e00013003b00010028000000050058
:1009400000004000818048008502e900fcff3a0079
:1009500008003700f88f420002003c008000eb00e6
:10096000000005008100d1000080d3008502e8006e
:10097000fcff3a000300e00002003b0060001000b2
:10098000e0801800000006000001be001e00070005
:100990000470a70003f0a10003f8a30013003a00bd
:1009a0006509b10010003200090035006928e10036
:1009b0000200350001002800000005000000400092
:1009c000818048008502e900fcff3a000000060033
:1009d000f88f4200050035008100d1000080d3006f
:1009e0008502e800fcff3a00000006008000eb00f2
:1009f000000005004f89de00820178008703370080
:100a00006011b80095033700c70ade00f107b20095
:100a1000f50fb20008003200e1cf420002003200c0
:100a20000170a00024000500810f70000100320059
:100a30000408050044000500810f700002003a0020
:100a4000140005008502e9000000400081c0480054
:100a5000fcff3b000170a0002400050007f8270000
:100a6000078361000638e10004003a00f707200020
:100a7000878361008703710001003a0003f0a20040
:100a8000889fbe008a9fbe008c9fbe00470ade0082
:100a90000480a100c71ade000580a100070028001d
:100aa0000785600087856100f70f20000720e100bf
:100ab0009e0032000728e1009c0032000106780009
:100ac0000400e000b4003200f707200087806000d7
:100ad0000170a0000500e000c0003200f707200010
:100ae000878161000370a000050652000f003a00e4
:100af0000b50e1000b0032000308e10002003a0055
:100b00000200e1007e00320002045000838458009d
:100b1000040031000001fd008101fd008402fd00a0
:100b20008a05fd006044b800210037000520e1007f
:100b300005003d000001fd008101fd008402fd0073
:100b40008a05fd00050652007a60e10005003500c7
:100b50000170a1004722dd00848070008a8070004f
:100b6000630037006044b800ef02660007ff2f0003
:100b7000070666000500e00006003400f08312005e
:100b80008714dd000511de00071bdd000601710082
:100b90008519de007060e100050035000904780069
:100ba00082047800030178008001eb007006560093
:100bb0000b50e10003003a0002004000838048002f
:100bc0000400370060041400e0841c000200580098
:100bd000838058000188a300060032008100d10004
:100be0000080d3008984d3000884d3000402e80085
:100bf000270037000178a30025003a000100e0003b
:100c0000030032008186cf00698656000a00370053
:100c10008c0020000000e00004003a000900780089
:100c2000880478000004eb00700252008086cf0038
:100c30000d0646000c06e9007060e1000600350074
:100c40008000780009007800880478000004eb0038
:100c500070065600700252000c00e0000c003400d8
:100c60008c08dd00f00316000703de0086807000ac
:100c70000c00dd00074bde00060070008c4cdd0030
:100c80000743de00868474000c44dd000c02520031
:100c90006120e100200035006101600007002800ac
:100ca00087816400f7ff27008783640007037400cf
:100cb0000300e000060032008203730004003200eb
:100cc0000000e800e08048000188a3000e003a0020
:100cd000f70f20000720e1004a003d000170a1004d
:100ce0004722dd00810072008a8070000000be0093
:100cf0004f06be004f05be004f04be0000000600b8
:100d00006000b800faff37008100d1000080d300f6
:100d10000402e800eeff3700040178008901740046
:100d2000a10107008a807000f1ff3700f70107007a
:100d3000070278000001fd008101fd00f3010700ba
:100d400087027800850372000778a3000400320050
:100d50000001fd008101fd0006020700e4ff3700ed
:100d6000850362000768a300080032000b50e10011
:100d700003003200f0ff2f00f1ff2700dcff3700f7
:100d80000001fd008101fd00d9ff37000468a300c8
:100d9000d7ff3200faff3700f8ff27008883600092
:100da0000b003a000000e00009003a0083036400f1
:100db00082837300020032000200be00ccff3700c5
:100dc0000b50e100ceff3a000200be00c8ff370022
:100dd00014002000810064003eff3700f8ff270068
:100de0008883610004003a000200e00002003a003b
:100df0008c007800beff37001500200083016400de
:100e000039ff370001f8270000002000810075003d
:100e1000b7ff3700889fbe008a9fbe008c9fbe0030
:100e20001b0020000202be000586680006002800a4
:100e3000060666004709de00f20fb20082003200ab
:100e40000243e80080003200c729de00f30fb20041
:100e50007d0032000343e8007b003200f107b2005e
:100e60000170a000f507b2000570a000c708dd0002
:100e70004903de00868070004700dd00c72add00e0
:100e80004923de00868272004722dd0003055100ff
:100e90000403500085835800030031000000400027
:100ea000818048000a05e9008c1f78008a9fbe00f7
:100eb00004005000858058000402420085824a00e8
:100ec00000004000818048000005eb000004be00e7
:100ed0006033b8000406be000d48e1005600310042
:100ee000110009004dccd8000c01b8000d02b8006b
:100ef0008481410060824a008283530003045c00c5
:100f000084845c0060055d000a00e00025003a0072
:100f1000800578000d40e10049003100880078002c
:100f200007007800110009004d88d8000c01b800b6
:100f30000d02b8008481410060824a006003110004
:100f400083835b0004045c00e0845c000900e00033
:100f500021003a004f01be000300e0002b003200e8
:100f6000e3016000070673008c817100010032000c
:100f7000640070004200de004e5edd000c00700078
:100f8000c258de0001e0a00083010700cf01780015
:100f9000818071004f06be004f05be004f04be00a9
:100fa000000006008c8343000d044c00e0844c00dc
:100fb00060054d000000e9000a00e000d4ff3200a7
:100fc0008c8343000d044c00e0844c0060054d0010
:100fd0000000e900ceff37000c0343008d834b0077
:100fe00060044c00e0844c000000e9000900e000cf
:100ff000d8ff32000c0343008d834b0060044c008b
:10100000e0844c000000e900d2ff37004200de001f
:101010004e5edd000c007000c258de0001e0a00052
:10102000cf0178000300e000daff3200600010001a
:10103000e0801800d7ff3700f0ff2f00aaff37002d
:10104000f0ff2f00b9ff37000404be002f01070096
:10105000870678000004fd008104fd002b010700d5
:10106000078366000678a300030032000960a7002a
:101070000800be002c0037000d78a30002003200eb
:101080000800be00280037000778a30026003a00b9
:1010900001f0a10009f0a1000668a30003003200de
:1010a000f1ff2700f0ff2f00baff37000d68a30003
:1010b000030032000800be008c807000b5ff3700ce
:1010c0000768a30007003a000648a30003003200a7
:1010d000f1ff2700f0ff2f00aeff37000d48a300ff
:1010e000030032006000b8008c807000a9ff370058
:1010f0000748a3000400320001f827000000200088
:101100008c807000a3ff3700760107000004fd000b
:101110008104fd0002057800720107000802be008c
:101120008a01780059ff37000160a00012022000f8
:101130007280880097ff37000100e0001200320043
:101140000500e00010003200889fbe008a9fbe00ac
:101150008c9fbe000006eb0001f8a30003003200e4
:1011600060001000e08018000cf0a00005f8a3005b
:101170000300320060021200e0821a000cf0a200ac
:101180008005eb0041ff37006000b8000200050059
:10119000038368000700280007036300470ade0096
:1011a0000480a100c71ade000580a100f70f20000f
:1011b0000720e100420032000728e1004000320031
:1011c000889fbe008a9fbe008c1f7800f107b20086
:1011d000f307b2000400e000640032000170a000d8
:1011e0000500e000680032000370a00085054200a1
:1011f000eb07b1000204b8000302b8008484440085
:1012000060854a00020ab800848444000a854a00c6
:10121000030ab80004054500040033000804d000a8
:101220008984d2000a85d2008b05e9006158e1006b
:101230003d00350002102000090161000308200074
:1012400089816100f70720008783640008867300a6
:10125000c84cde00c853dd00878474004855de00aa
:101260000300e00006003200820376000400320032
:101270008904e80060054d000a88a3000c003a00cc
:10128000f70f20000758e10044003d000a70a1005c
:10129000c75ddd000a8575008a00730009007800cb
:1012a0004f0678004f05be004f04be000000060048
:1012b0000a05d1008984d3008b05e800f0ff3700d0
:1012c000881f780006047800900007000702780065
:1012d0000001fd008101fd008c00070087027800fd
:1012e000850372000778a300050032000001fd00ad
:1012f0008101fd009f0007004f04780000000600f8
:10130000850372000748a30003003200f0ff2f009e
:10131000f1ff2700f8ff37000000200001f8270048
:1013200088807000f4ff3700880178004848dd00ad
:10133000808171004848de00c850dd000100700067
:10134000c850de00060478000b0178001600070084
:1013500088807000d2ff37000500e00005003200f1
:10136000170020003a0007009dff3700810370003e
:10137000f9ff3a00860078004f0678004f05be005e
:101380004f04be000000050083037100f9ff320026
:10139000270020002e00070094ff370001f82700e7
:1013a00086807000f4ff37000100e0002600320064
:1013b000610111007810e10023003c006022b800b8
:1013c0007010e10004003500800278000100780010
:1013d0008000eb00700151000200e00009003400c1
:1013e00070031100062add00822ade008603dd007c
:1013f000878272000200de00860bdd0007007000ad
:101400008208de0084817100f4ff270004826200fc
:1014100084817100040028008482620061026000ff
:1014200005f0a600000006000482710007003200eb
:101430000000e800e0804800000006000002be0056
:101440006000b800efff37006000b8000000060041
:10145000889fbe000004eb006138e10016003a00ee
:101460000100e00008003a00c800de004800dd008e
:10147000880020000100e00003003a00c800de0000
:101480004800dd00680444008184cf00e9845400f2
:10149000060034008908dd00f08314008703de00b5
:1014a000878070000900dd00090444006102140017
:1014b0004f04be00000006000300e00008003a00f0
:1014c000c811de004811dd00880020000300e000a4
:1014d00003003a00c811de004811dd006804440032
:1014e0008384cf00e9845400060034008919dd00ac
:1014f000f08314008713de00878171000911dd007d
:1015000009044400e1021400e9ff3700270020002d
:1015100001f0a70017002000470bde00f60fb20015
:10152000040032000643e8000a0032004702b3001c
:101530000000060001037800f607b2000603700001
:1015400002003a000703b300000006008702b30060
:101550000000060001037800f607b20006037000e1
:10156000020032000770a000000006000760a00023
:10157000000006000478a300040032000578a300f0
:10158000030032000168a30001003a000200be001f
:101590000160a000000006008101700027003200f9
:1015a0008002eb0001f8a30003003200600010008d
:1015b000e080180015002000f4072000020242001d
:1015c00020003400f7032000870360000604200099
:1015d0000003630002082000000161004700de00f4
:1015e000c909dd0000807100c708de000600e000c8
:1015f0000800320087037100060032001000b000be
:101600000180b0000188a30002003200c108de00a2
:101610000402e800f107b200f30f20000320e1000c
:1016200003003d004722dd008100720029003700e1
:1016300001f827000000eb00260037006000b8002a
:1016400000000600680212007f20e1000200340062
:101650006000b8001f0037006011b8007020e10082
:101660000400350080017800010078008000eb0064
:10167000700252000400e00009003400f003120080
:101680000719dd008419de000703dd008681710083
:101690000400de00070bdd00060070008408de0099
:1016a000f7ff27008383630087037100060028008b
:1016b00003036300070032000700e00003003a0064
:1016c0006101600002817300020032001000b0006e
:1016d0000180b0000500a6000000060001f0a00097
:1016e000000006004f0ade004709de00f107b200e5
:1016f000f20fb2000b003200f207b1000170a0003f
:10170000c708dd00c901de00838070004700dd00ee
:101710000400a6000000060060001000e080180031
:1017200000000600810f700001003a000000060072
:101730008182cf000500e00010003e008082cf00d3
:10174000ee8242007028e1000400390007003e00ec
:10175000800078000000eb000e003700708312005c
:101760008600de000500dd000a00370070835200ad
:101770008600dd000000eb0006003700e282520028
:101780008508dd00708312000603de00868070008d
:101790000500dd007507b0000501ea000400a600a1
:1017a0000000060060001000e08018000000060045
:1017b000889fbe008a9fbe00841f78007c000700bf
:1017c0004f00780011003300f0ff2f00838f6c0072
:1017d00006003b00040565000a00a700080037006a
:1017e00009f0a6001000200008003700820f540006
:1017f000838f5c00030039001000200001003e00d0
:101800000000200009f0a7000000ea004f05be001c
:101810004f04be000000e00000000600881f7800b2
:10182000030478000300e00007003d0060001000a2
:10183000e080180060011900e081190002003b00ff
:1018400001f02d00030037000400070008f0a70096
:1018500001f0a0004f04780000000600889fbe0041
:101860008a9fbe0000827000040271000482710031
:10187000260032000004be000200be006011b80065
:101880006b092000950220000182cf000a00390078
:101890000541b1000082cf00070039000541b100c9
:1018a0000982cf00040039000541b1000882cf0051
:1018b000010039000541b10005425200120032001a
:1018c0000a003b0082817100610164008100d10047
:1018d0000080d3008984d3000884d3008b05e800fe
:1018e0000442e800f7ff3a0007003700080444000c
:1018f00089844c0000004800818048008b05e90085
:101900000442e900f9ff3a00030007004f05be005a
:101910004f04be00000006008100200061805500d9
:101920000b003d000b00200061fe2f000100e100d4
:101930001d00340082817100610164008904d100be
:101940000884d3000000e800faff3a00710020008c
:1019500061006400030070000200600009003200b2
:1019600061044400e0844c000988a50005003200b1
:101970008b05e8006808e10002003a008904d10004
:101980000884d300f20f20000258e10005003d005a
:10199000c75ddd00f907b200898075000800780096
:1019a000000006000bf827008b00780000000500ff
:1019b0000004be0014fc07000003be000405be00c6
:1019c0000200be0010fc0700844f750000000600f6
:1019d0000400fa00889fbe008a9fbe000004be007b
:1019e0004709de0003002000f20fb200f207b10049
:1019f000f60f510030003c000200e0001c003500f2
:101a0000faff2f00fb0720000201e900030033006a
:101a10008b85d1000a85d300fbff37008b816400e2
:101a20000a016000e00f5100e08f590022003200ef
:101a30000200200003b8270011fc0700a0bf9f0090
:101a4000b1bf9f00e00f5400e08f5c0002003d003a
:101a50000a0444008b844c000a85ea008b85ea0066
:101a60008b8064000a0064000004be00110037008f
:101a70000200200003b8270001fc0700a0bf9f0060
:101a8000b1bf9f00e00f5400e08f5c000200350002
:101a90006044b800070037000800440089804c000b
:101aa000e00f5000e08f58000200320008002000d4
:101ab00009f82b000800be004f05be004f04be0011
:101ac0000080fa00000006000400fa00889fbe00b3
:101ad0008a9fbe008c9fbe000004be004708de0047
:101ae000f00fb20051092000810f500041003c006e
:101af0000806be00e00f5400e08f5c0003003d00cc
:101b00000805be000bf0a200010037000805be006a
:101b1000d1072000810f50000a003c000200200085
:101b200003b024000a00be00d5fb070080bf9f0061
:101b300091bf9f006011b8000800be0094fd07002f
:101b40002b0037000200200003b024000a00be0072
:101b5000cbfb07000200200003b02400bffb0700fe
:101b60000a01be00bdfb07000004be000200200009
:101b700003f02300dc0507000000e000070034004c
:101b80000a01be000800be00bdfb070002002000e5
:101b900003f82300b1fb07000f003700020020000c
:101ba00003f02b000800be0054fb07000000e0001b
:101bb00006003c000a01be000800be00b0fb0700a2
:101bc0000200200003f82300020037000a01be00d3
:101bd0000800be00aafb0700e00f5600e08f5e0081
:101be00003003d000004be0009f0a2000100370020
:101bf0000004be000800be004f06be004f05be0038
:101c00004f04be000080fa00000006000000fa0049
:101c100068815700cfb89700f50107000080fa00ef
:101c2000000006000600070061000700160107001b
:101c3000400107009700070049020700f001370044
:101c4000ec874700889fbe008a9fbe008c9fbe0025
:101c50008e1f7800000678000104780018079000b5
:101c60002805900098067800cdb79f00b805900031
:101c7000120278009202900022039000b2039000ba
:101c80000400be000601be004f18de006011b8005f
:101c90008000eb00d0b79f00e1b79f00f2b79f0034
:101ca00083bf9f00800478000900e0000600320036
:101cb0006000b8006011b80004025000858258002e
:101cc00006035900878359000e00e000020035002a
:101cd0000d10a100cdb79f000900e00005003a00fb
:101ce0004fb097000028a30002003a000038a3007c
:101cf000020032008a00e900010037008a00780003
:101d0000f8815700a2002000080078008b0007002f
:101d10000900e00003003a00cfb097000128a300bb
:101d2000080032000000e90000814500b1c2b300a4
:101d30000900e00001003200d1c2b300014978007f
:101d4000060037000138a300040032000000e9005b
:101d50008080450002c2b3008248780048019000ac
:101d60000201e90000015100808045004fb2970058
:101d70008a0178000c007800440207009c00900063
:101d80000188a3000400320098009000810f5000e9
:101d900001003d00010078004f0778004f06be00ab
:101da0004f05be004f04be00cf00b100000006008a
:101db0000200fa00889fbe008a9fbe00800578005e
:101dc00001047800020078001801900028059000b6
:101dd00098007800b1bf9f00b80490000200e000b6
:101de000020035000110a100b1bf9f00ea81570039
:101df000820020008a007800100278009002900093
:101e000020039000b0039000080078004b0007000a
:101e10003fb99700f0006100040032000000e900c3
:101e20008080440002c3b300824878003fb9970025
:101e3000e8006100040032000000e90080804400f6
:101e400002c2b30082487800480190000201e90014
:101e500000015100808044003fba97008a01780059
:101e60000b007800090207009b0090000188a30086
:101e70000400320098009000810f500001003d00e6
:101e8000010078004f05be004f04be000080fa003c
:101e900000000600ea874700889fbe008a9fbe00b8
:101ea0008e1f7800000478000300780072875700c6
:101eb00084e2260055c72600049fbe00c396220078
:101ec000030f78006c875700004feb00110590005e
:101ed000a1049000910578000200e00002003200a9
:101ee0000207780001003700728757000000e00009
:101ef00002003a000e007800610407000a00e000ca
:101f0000030035008a0f5000010036000a007800f7
:101f10000b02780089017800000178008e007800bb
:101f200008007800d90107004f0778004f05be0070
:101f30004f04be00af00b10000000600f487470068
:101f4000889fbe008a9fbe008c9fbe008e1f7800b7
:101f50000605be000404be0081bf9f0082b79f003b
:101f6000f3b79f00b0009000e1b79f001301780025
:101f700092b79f0090069000400090000000e9009a
:101f8000000678000d00e00001003d001d0020006b
:101f9000efb19700008041000048eb001e002000d8
:101fa0001f0037000c06e9000fb09700cf80de005d
:101fb0006109b900a0b79f00b1b79f00c2b79f00e9
:101fc000d3b79f000203be000002be000800be009f
:101fd0000a01be006e05070000077800efb0970009
:101fe0000c80400003c3b300034847008d06e9009e
:101ff0000fb897000000e90080bf9f002fb2970044
:10200000bfb297004fb39700dfb397000800be0040
:102010000a01be00570507000205be000004be000d
:102020000c00e0000d003400e00f5400e08f5c0075
:10203000e00f5d00e08f5d00daff3a000d00e00088
:10204000d8ff3c008fb897000100e0000300340087
:102050001fb197000218a300d2ff3a000e00e00063
:1020600002003a00ffb197001340a1000c00780075
:102070004f0778004f06be004f05be004f04be005c
:102080004f01b100000006000200fa00889fbe0068
:102090008a9fbe00000578000104780002007800e5
:1020a00018019000a804900098007800b1bf9f002c
:1020b000b80590000200e000020035000110a10008
:1020c000b1bf9f00ea815700a2002000890078007c
:1020d000100278009002900020039000b00390005e
:1020e0000800780095ff0700480190000201e90010
:1020f00000015100808045003fba970089017800b7
:102100000a007800610107009a0090000188a3008e
:102110000400320098009000810f500001003d0043
:10212000010078004f05be004f04be000080fa0099
:1021300000000600fa874700889fbe008a9fbe0005
:102140008c9fbe008e1f7800800478000104780008
:102150008205780018019000280590001807780083
:10216000b80090000200e000020035000e10a1004f
:10217000010037001200200070006700e0b79f00e8
:102180000b0032001b0278009b0290002b03900092
:10219000bb039000e00f5200e08f5a00e00f5b009d
:1021a000e08f5b00020032008a86e9000100370000
:1021b0008a067800e8026700f5b79f000100320048
:1021c0008d06e9001b0278009b0290002b03900013
:1021d000bb039000e4af9f00f5af9f0086b79f0060
:1021e00097b79f00480690000c06e9000c8040005d
:1021f0000048eb00efb297007fb2970089037800a8
:1022000081047800d8af9f00020478008bbf9f0044
:102210008a057800034578002b0037000c06e9009a
:102220006fab97006f006300e90f500002003c00a5
:102230000003b000010037007005b0000a03fb0086
:102240001604b100f90f53000c003e0000037800a3
:102250000650a0001606b100f90f530007003e001b
:10226000b4b79f00a5b79f00c7b79f00a30307009f
:10227000cfb39700afb297003fb297000c834400f2
:10228000004b78000804e9008d06e9006fa897006c
:10229000ffa897000fb197009fb19700460020005c
:1022a0008301d1000281d3008180d3000080d3005c
:1022b0000603e900faff3a00e0af9f00f1af9f008c
:1022c00082b79f0093b79f00e10f56000f003400c4
:1022d0006fa89700ffa897000fb197009fb19700d4
:1022e000e00f5000e08f5800e00f5900e08f5900d8
:1022f000caff3a000800e000c8ff3c000d00e00003
:10230000020034000e18a300c4ff3a0089007800d0
:10231000f4b79f00870478005fac97008a4178008b
:102320000b0578008fbd97000500e0001400320017
:102330001b0278009b0290002b039000bb039000cf
:10234000e4af9f00f5af9f0086b79f0097b79f004f
:10235000e00f5200e08f5a00e00f5b00e08f5b005f
:10236000070032000c06e9000c80400003487800aa
:102370000c06e9000c80400002c3b300024878005c
:10238000ffb297000500e000040032000c06e900ef
:102390000c80400002c2b30002487800480190005f
:1023a0000201e9000c0151008c8040000e0278000f
:1023b0008a01780009007800b400070099009000b5
:1023c0000188a3000400320098009000810f5000a3
:1023d00001003d00010078004f0778004f06be0065
:1023e0004f05be004f04be00af01b1000000060063
:1023f0008201780001017800f1ff270046033700d1
:1024000084082000848f50001d0032000d003c0025
:1024100014082000848f50002700320002003c0086
:10242000040820000400370024082000848f500096
:102430003600320044082000848f500047003a00e4
:102440003a003700040a2000848f5000290032002f
:1024500004003c0004092000848f50003f003a0033
:102460002a003700020c2000828f50003300320017
:10247000020f2000828f500038003a002f003700f2
:102480009380e9000200e000050032008109780035
:102490001102fb00cfa2de00612bb9002c00370037
:1024a00081097800114278000482fb008002eb0071
:1024b0006033b8002600370013027800e4005200b1
:1024c0000200e00006003200810978001102780065
:1024d000910290004fabde00860378001c003700ad
:1024e0008109780011027800910290006033b800f1
:1024f000170037009380e900810978001102780005
:10250000cfa2de00612bb9001100370093027800e2
:10251000e880520081097800110278009102900051
:1025200021039000b1039000090037009380e90077
:102530000200e00002003200efff37009380e90064
:1025400081097800110278008002eb006033b80046
:102550000498be000690be001000050000000500b3
:1025600044082000848f50002500320008003c0001
:1025700014082000848f500014003200240820002a
:10258000848f500024003200040820000c00370023
:1025900004092000848f50001f00320004003c001a
:1025a00084082000848f500024003a000e00370079
:1025b000040a2000848f500011003200040c200017
:1025c000848f50001d003a000d0037009380e90011
:1025d000810978009100780001087800cf91de0031
:1025e0008288be00140037009380e90081097800da
:1025f0009100780001087800824878000e003700ca
:102600009380e90081097800910078000108780042
:1026100082087800080037009380e900810978007b
:1026200091007800010878006112b900612bb900af
:102630008498be008690be001000050000000500d2
:10264000889fbe0000047800480090008204780053
:10265000808f540001003600800478000901780062
:10266000580090001b02070058009000090040002d
:1026700050049800c80090008984500049049800d4
:102680000048eb004f04be0000000600f287470040
:10269000889fbe008a9fbe008c9fbe008e1f780060
:1026a0008004780001057800020478008305780032
:1026b0006107620002003a008b0f540008003900e5
:1026c000080178008a00780009007800dcff070024
:1026d0008b0f540002003900880578001e00370077
:1026e000088655000c017800f00f560001003600f6
:1026f00002012000010220007e805700fc0107003b
:102700008c0678000500370002012000fe8057008b
:1027100009007800caff0700f0865600ef8f5600c8
:10272000f9ff3e004461de0000ff2f008091b900f8
:102730000c014100fe80570009007800c0ff07002f
:102740000e00e00004003a00080178008a007800da
:1027500009007800baff07000b0078004f077800e7
:102760004f06be004f05be004f04be002f01b10052
:102770000000060000000500000005000000050044
:10278000000178000040eb008080fb008180400069
:102790008303210081814100134278000404e0009a
:1027a00004003a00900321008100400011407800ad
:1027b0000000060092017800934f520005003a0095
:1027c0009003210081004000114078000309e800d7
:1027d000010037000040e800ea4f5000eaff3600f1
:1027e00000000600f6874700889fbe008a9fbe0053
:1027f0008c9fbe008e1f78000005780001047800d1
:1028000083057800040678000000eb00c0b79f0045
:102810008080eb00d1b79f00e0b79f00f2b79f0028
:102820000008200080bf9f00980078000100780019
:102830008004eb00010037008904e8003041780093
:102840000204e0000300320053c2b300834f510082
:10285000f9ff3a000900e0000400320009017800a5
:102860000a00780076ff0700188c440018077800eb
:1028700050c2b3009e4f10003f013a000e07e8001f
:102880000e0c780010003700cfb097000100a000b8
:102890000b003700cfb097000110a00008003700f0
:1028a000cfb097000120a00005003700cfb09700ff
:1028b0000130a00002003700cfb097000140a00017
:1028c000c1b79f00000ce800180078009040780025
:1028d000b2c2b30082cf5000f1ff320007003c00cb
:1028e00002c2b30082cf5000f0ff320032c2b30008
:1028f00082cf500007003a00efff3700d2c2b3008a
:1029000082cf5000e0ff320002c3b30082cf5000fc
:10291000e0ff3200a2c2b30082cf50000d003a00a7
:10292000000ce8001c80e900000e78001000780020
:10293000e0b79f000000e0000f003d00cfb097001f
:102940000100a200c1b79f000000ea00e0b79f00ad
:102950000900370039010700e0b79f000100370088
:10296000000ce800180078009000fb000103b100a3
:10297000e98f5000faff36004fb097000008a3001f
:10298000020032000010a100c0b79f0018007800bc
:10299000e1c2b30090cf100016003a008000eb00b7
:1029a000d1b79f000000e800000c7800a1c2b3007e
:1029b00090cf100006003a00000ce8001c80e900ef
:1029c000000e780010007800d0b79f000900370093
:1029d0001a010700d0b79f0001003700000ce80083
:1029e000180078009000fb000103b100e98f50004f
:1029f000faff36000800780061ff07008046780083
:102a0000180078001000fb00b501070091062000b7
:102a1000810f50003800320012003c0041062000b7
:102a2000810f5000340032000a003c0011062000e3
:102a3000810f50002000320031062000810f50002d
:102a4000a000320051022000810f5000bc003a006b
:102a5000b400370071062000810f5000b8003c0020
:102a60008800370001072000810f50005c00320011
:102a700007003c00e1062000810f50007a00320080
:102a8000f1062000810f5000ad003a0039003700f8
:102a900051072000810f50002700320081072000dd
:102aa000810f50004200320031072000810f50009a
:102ab000a3003a008f0037008d80fb000c017800e6
:102ac00000fe2f000f004000b80107000000e000ea
:102ad000a800320018007800000ce800904178004f
:102ae00002fe2f000f014100f88057000a00780015
:102af00021ff07000e0037008d80fb008c0178005d
:102b00001200200000fe2f000f0040003cfe0700d6
:102b10000000e00097003200180ce80002fe2f00d1
:102b20000f014100f88057000a00780044fc0700bc
:102b300080844400900037008d80fb008c01780079
:102b40000001eb0000fe2f000f0040002cfe0700ec
:102b50000000e00087003200180ce80002fe2f00a1
:102b60000f014100f88057000a00780046fd070079
:102b7000efff37008d80fb008c0178000001eb0037
:102b800000fe2f000f0040001dfe07000000e000c7
:102b900078003200180ce80002fe2f000f014100ff
:102ba000f88057000a00780081fc0700e0ff37003a
:102bb0008d80fb008c0178000001eb0000fe2f00ef
:102bc0000f0040000efe07000000e0006900320028
:102bd00018007800000ce800904178001c003700d5
:102be0008c0178000001eb00010f200000fe2f0097
:102bf0000f00400002fe07000000e0005d00320010
:102c0000180ce8000fb097009fb097002fb1970005
:102c1000bfb19700e00f5000e08f5800e00f59005f
:102c2000e08f590009003a00cfb597006fb49700c4
:102c300000032100120107000b02780088017800d0
:102c400000017800010321004700370083c7b3006b
:102c500002fe2f000f014100f88057000a007800a3
:102c600034fd0700b2ff37000b8144008d80fb006c
:102c70008c01780000fe2f000f00400038fe070096
:102c80003c0037008d80fb000c01780000fe2f0017
:102c90000f004000450107000000e0003500320051
:102ca00018007800000ce8009041780002fe2f0028
:102cb0000f014100f88057000a007800aefe0700bf
:102cc0009bff370000c8b30080cf560029003a00b0
:102cd000180ce8001c80e900000e78001040780015
:102ce000e0df9f0013002000e2fd2f000f014100f4
:102cf0000800370000c8b30080cf56001d003a001e
:102d0000180ce8001c80e900000e78008001eb0040
:102d100010017800f88057000a0078005dfc070079
:102d200083ff370000c8b30080cf560011003a007f
:102d3000180ce8004fb29700efb197000800370079
:102d40000e0c78000000eb00c0b79f00e0b79f00ba
:102d50000080eb00d0b79f000002eb0084017800f8
:102d600012002000610321000a00780047fe0700de
:102d70006fff3700180ce800090078004f07780053
:102d80004f06be004f05be004f04be006f01b100ec
:102d9000000006008200fa00889fbe008a1f7800ab
:102da0000005780082047800c13f9f000004eb001a
:102db000100037000902780088017800a2f72f0080
:102dc0000f01410081f72f008f8040000a0078003a
:102dd00084fe070008004000880f500004003d00fa
:102de000b0042000d08288000084eb00040037008b
:102df000000478004f3897001004e000edff3a001f
:102e0000080078004f0578004f04be000080fa00eb
:102e10000000060080007800100020000202200060
:102e2000828f500004003200e9805000e48f50008f
:102e3000010036000000eb0000000600889fbe0085
:102e40008a1f7800000578000a047800984478000a
:102e50000805e8000900fb00eeff07000000e000a5
:102e6000f9ff3a00b0c2b30080cf54000500320031
:102e7000d0c2b3008000eb0080cf540005003a00c0
:102e8000020037008000eb00010037001100200035
:102e90000804e8000000eb0003003700ea00b90076
:102ea000020050000003b0003801fb0003fd2f00ba
:102eb00082814100e98f5100f8ff36000100e000f7
:102ec00001003a000000ea004f0578004f04be0000
:102ed000000006008001780002003700b159780038
:102ee0000201e9000200e000fcff3a0000000600d9
:102ef000889fbe008a9fbe00800478000200e00028
:102f00005b00320001407800814c780082814400ef
:102f1000f1f99f00e20f51005500360091449800ee
:102f2000a1449800e1f99f00d1f99f00e60f5100fc
:102f30004f003600b1449800c1f99f00e80f5100de
:102f40004b0036000905ea00630565000a84440069
:102f50000a055100c1ff2f00010565000080fb003c
:102f60008000eb001210200013102000e00007008a
:102f7000008cbe000a01440060b99f0071b99f0037
:102f8000e80f55003a0036002004980031049800fc
:102f9000400498005104980020b99f0031b99f0067
:102fa00040b99f0051b99f00f80f5500300036001e
:102fb0006004980071049800000c9800110c9800af
:102fc000200c9800310c9800400c9800510c98008f
:102fd00020b19f0031b19f0040b19f0051b19f00cf
:102fe00060b19f0071b19f0000b99f0011b99f00af
:102ff00064016400780141000204440002055500a8
:103000006011b8000203be000002be000403be004f
:103010006022b8000000720081807200020173001b
:103020008381730010003700009cbe000294be0034
:1030300040049800510498006204980073049800ba
:10304000000c9800110c9800220c9800330c98008a
:10305000400c9800510c9800620c9800730c98007a
:103060000a02b1000802b000ff0f5500eeff3e005b
:10307000090078004f05be004f04be0000000600a6
:1030800080007800040037003104e00002003a00bc
:103090000000510000000600010178000108a300b3
:1030a000f9ff3a008101780031017800f4ef2f0038
:1030b000020242000281ea000201620004082800c4
:1030c00004016100f7ff32008300780001017800fd
:1030d0003104e000fdff3a0000005100000006004e
:1030e000f1fb2f0080804000f98f500001003e006e
:1030f0000050a00000000600f9ff3700f1f92f0092
:1031000080804000f98f500001003e00f005b200c1
:1031100000000600f9ff3700f28747008e1f780095
:1031200002027800030178000000e0000200320093
:103130000007780001003700728757008002eb001b
:103140000100e000010032008102e90070805700b8
:10315000060009000018eb000080eb0080bf9f0014
:103160002310200093bf9f00aebf9f00b1bf9f0000
:10317000c5bf9f000100e00003003d00b104200036
:10318000d182880006003700004feb00eebf9f00a1
:10319000debf9f0084007800708057002500070084
:1031a0004f0778002f01b10000000600881f78004b
:1031b0000004780000082000808f50001a003500bd
:1031c00010082000808f50000d00340030082000cf
:1031d000808f500014003a00920078006880500000
:1031e00000097800100278009002900020039000ff
:1031f000b0039000049cbe000694be000800370097
:1032000092027800648052000009780090009000db
:103210001000780015000700009cbe000294be005c
:1032200010002000010037000000eb004f04780080
:10323000000006000200fa00881f780000047800f1
:10324000e2bf9f006481570008007800d1fe0700ac
:10325000980090000148a300010032000080eb00bc
:103260004f0478000080fa00000006008103780017
:10327000e5f507000001be006000b8000478a30077
:1032800013003a006220e10015003e000d003900f5
:103290008301d1000281d3008180d3008301d1005a
:1032a0000281d3008180d3008301d1000281d30049
:1032b0008180d3000538b000c42add00f300b200dd
:1032c0008381720007f0a70003f0a0000000060051
:1032d00083ff2700020020006110b900f9ff3700ca
:1032e00003ff2700f7ff3700f4ff2f0030f9370006
:1032f000020ab900001bb9000200b80081004200b8
:103300008100430000000600889fbe008a9fbe0027
:1033100030044200b0844a0030054b0090854b00d9
:103320006000b1000898be000a90be000440e100b1
:1033300005c8e10006d0e10007d8e1000200310035
:10334000680040001008e8004f05be004f04be00b2
:1033500000000600889fbe008a9fbe00100478000f
:103360009004900020059000b005900004185400cf
:1033700005985c0006185d0007985d0011002000ac
:103380000440e10005c8e10006d0e10007d8e100f3
:10339000010039008000eb00108810004f05be00ce
:1033a0004f04be00000006001200fa00889fbe0015
:1033b0008a9fbe008c9fbe00e0b79f00f1b79f00c0
:1033c00082bf9f0093bf9f000605be000404be009d
:1033d0000000eb00d0b79f00c0b79f00b0b79f00c0
:1033e000a0b79f0090b79f00000678005fb19700dc
:1033f000cfb09700820141003fb097000200e0008b
:1034000004003d00370007007e805700beff070024
:1034100003003700330007007e805700cdff070010
:10342000dfb697000d00e0000c0035006fb297008a
:10343000ffb297000fbb97009fbb970010002000c2
:10344000010020006011b800000272008182720049
:1034500002037300838373001b0007000c06e8005f
:1034600001042000810f5600e0ff3a000d00e0004b
:1034700004003d000802be000a03be007e80570023
:10348000a1ff07005fa897000000e00005003a00d8
:103490001fb29700afb297003fb39700cfb397002a
:1034a000090007006fb09700ffb097000fb99700b1
:1034b0009fb997004f06be004f05be004f04be00e7
:1034c0000080fa000000060001000700000006006e
:1034d000a4b79f00b5b79f00c6b79f00d7b79f009e
:1034e000000006004f09de0082817100b3b79f0023
:1034f0004f01de008180400082807000a1b79f00f4
:103500008fb097004f09de000000400002007000fd
:1035100090b79f007fa897004f01de008180400098
:103520008280700081b79f000d0007004f3ade00d7
:103530000000400004007000f0af9f00080007008a
:103540000402420085824a0006034b0087834b0039
:10355000dfff07000802be000a03be0000000600ed
:103560002fb29700bfb297004fb39700dfb3970019
:1035700000000600881f780018002000881f7800cf
:1035800089ff07008f87e9004f04780000000600dc
:10359000801feb0084ff07008f87e9000000060012
:1035a000889fbe008a9fbe00e00f5000e08f580049
:1035b000e00f5900e08f59000c003d006044b80056
:1035c0006055b8000000540081805c0002015d007d
:1035d00083815d00180020001500070008003d00f1
:1035e000180007000004eb00050037000004eb00a2
:1035f0000f00070002003d00120007001800200025
:10360000dcff07000800e000060032006022b8007e
:103610006033b8000000520081805a0002015b0054
:1036200083815b004f05be004f04be000000060012
:10363000e00f5200e08f5a00e00f5b00e08f5b006c
:10364000000006006044b8006055b8000402540051
:1036500085825c0006035d0087835d000000060034
:10366000889fbe008a9fbe008c1f7800e00f50002c
:10367000e08f5800e00f5900e08f59000d003d0029
:103680006044b8006055b8000000540081805c00c0
:1036900002015d0083815d001c0020000820e10024
:1036a00009a8e1000ab0e1000bb8e1000d003d00ff
:1036b000080037000006eb00e00f5200e08f5a00d0
:1036c000e00f5b00e08f5b0006003d006044b80047
:1036d0006055b8000402540085825c0006035d005a
:1036e00087835d00aaff07000c00e000060032009f
:1036f0006022b8006033b8000000520081805a0098
:1037000002015b0083815b004f0678004f05be001d
:083710004f04be00000006009a
:020000040000fa
:10371800492400009248000001f80000e7e7000093
:1037280067420000424200004209000002410000d6
:1037380010440000111f0000f11000004c1200009e
:103748003fe1000020480000120400008120000032
:103758004804000007a20000190200004010000001
:10376800030000003c00000080100000060100007b
:10377800e0a70000c040000010040000003c00006a
:103788001984000021080000660f0000000c0000ea
:103798001c78000001e00000cc2100000843000074
:1037a800307800003e3000001008000002030000de
:1037b80003470000148a0000431100008f600000d6
:1037c800fda4000090050000252400009248000098
:1037d8009224000011240000892400009292000025
:1037e800900000000402000011070000f0c0000073
:1037f80050480000420000000804000002010000d8
:1038080000870000fc2000001008000004020000ef
:10381800003b00009cce000062000000ffe00000ba
:10382800ff80000000800000c04000002020000051
:103838001010000008080000040400000202000044
:10384800010100000080000080400000001c000012
:1038580031900000583800000c06000003010000f9
:1038680080c00000603000003413000018700000b1
:1038780030e100004481000002040000081000004c
:1038880020400000811f0000c01e000010900000b2
:1038980068100000080c0000040400000406000082
:1038a80006060000060e000007fe00003e1000009d
:1038b800400800000200000080400000e004000012
:1038c800008000001004000001000000d863000020
:1038d800e00600000a0a000012220000224200004e
:1038e8004282000082ff000002020000020f000076
:1038f8007f2000001008000004020000f18c000086
:103908000300000080400000201800001618000086
:10391800f00f00008c0800000804000004020000fa
:1039280079460000c1e0000060280000141900007a
:1039380008780000ff8100008102000002020000f8
:103948000204000004040000040800000808000045
:10395800083e000031b00000701800000c0500009f
:103968008c3800006340000060300000181b000025
:1039780018f800003c31000030500000280c00000e
:103988000f060000853c0000804000004020000039
:1039980020630000e0ff000080070000fc39000001
:1039a800ce0000000006000033980000c4000000ac
:1039b80000c00000601800000c0600000180000034
:1039c8000c0000006003000000300000010000004f
:1039d800fff00000000000000fff0000c00600001c
:1039e80000300000018000001801000080c00000c5
:1039f800301800000c020000000000003e600000cb
:103a0800a02000001008000008180000100800009e
:103a18000000000000010000c0e000001c310000b0
:103a280010500000281400003a25000022910000e0
:103a38004ca30000f008000002010000807c000098
:103a48003f0000000c0000004801000020040000b6
:103a58004021000000840000040800001fe000006e
:103a680040820000010800000420000013e100006b
:103a7800f0ff0000081100000120000024040000ed
:103a8800811f0000c2060000406800000500000019
:103a9800a014000005ff0000001e0000487400008c
:103aa80005010000802000000802000000800000de
:103ab800200400000101000030870000c0fe000063
:103ac80010440000090200004050000014050000e6
:103ad80001400000501400000d020000413f0000aa
:103ae80080ff0000c8090000012000000400000059
:103af800881f0000022000004008000001000000ac
:103b0800a014000003ff0000c0ff0000e80500004b
:103b180000a0000004000000881f00000220000030
:103b280040080000010000002004000001f000002f
:103b3800001f000046190000016000002801000075
:103b4800002000000400000083f000000b010000ca
:103b5800202300000c3e000000e10000d0240000fb
:103b6800090200004090000027f900000240000010
:103b7800902400000902000040b8000070fe000018
:103b8800204000008102000004080000102000000e
:103b9800408100001fc000000fe00000100200007c
:103ba8000040000008010000002000000480000020
:103bb8009012000002400000c63000007c000000a7
:103bc800f1e400000c41000004200000440400005f
:103bd800805c000006600000430400001040000004
:103be8008408000040cf000007f80000040000002f
:103bf80080100000020000004008000001000000e2
:103c080020040000048000009012000003ff000060
:103c1800c0e000003b01000094140000a0a40000d4
:103c2800892400004914000048a200004512000041
:103c3800109000000480000024010000783c00007f
:103c4800e0f60000025000002502000048240000b1
:103c5800c244000024220000432400001240000057
:103c6800a40a0000406f0000060f0000030c0000cb
:103c78006064000002800000180100008018000045
:103c880001800000180100004026000006300000f6
:103c9800c0f00000ff1000006405000001400000b3
:103ca8005034000019fc000040100000040100001e
:103cb800004000003e0000000f0300000c60000000
:103cc8006402000080180000018000001801000054
:103cd80080180000014000002606000030c10000e6
:103ce800f00c000001f1000030e00000ff040000cb
:103cf80018400000c4040000404400000c410000cb
:103d080087e0000043040000104000008404000025
:103d1800404f0000031f0000483400000501000068
:103d28004008000001c000000e000000401800001c
:103d380006010000e1a70000c0ff0000f0860000b7
:103d48001082000000400000080100000020000070
:103d5800040000008010000002000000407f000006
:103d680000f00000f40200004024000002400000bf
:103d78002402000040240000024000002402000049
:103d88004022000004300000c0f00000f87c000071
:103d98008022000001040000041000002040000000
:103da800808200000210000008400000110000009e
:103db80048010000a0030000000c000000f800000b
:103dc8007c8000002200000088c200002310000050
:103dd8008e42000029090000242400009091000070
:103de8004185000006140000187000006080000083
:103df800f0f20000063000004108000009800000d1
:103e080050060000006000000d000000881000004f
:103e1800c2040000602f00000ff00000f202000052
:103e28001041000004080000805000000500000058
:103e38002002000000200000020000002002000014
:103e480001fc0000ff400000a0900000404000007e
:103e58004020000020200000105000003018000012
:103e68000ffc0000f24900002492000049240000e1
:103e78009c800000601000000802000001000000a3
:103e8800402000000804000001000000802000001d
:103e9800100400000200000080400000e4920000ce
:103ea80049240000924900003c0800000c09000069
:103eb8000c4c000014040000fffc000084210000ea
:103ec8003e00000060080000023f00009828000043
:103ed8000a020000c39f000030e00000010000005b
:103ee800080000004002000000130000e0a00000ed
:103ef800860200002009000000480000024000007f
:103f080013010000141b00009f0000001f4c00005c
:103f180019010000402800000100000020020000f4
:103f28000060000043f0000000c00000080100002d
:103f380000200000043c00009852000006800000a9
:103f4800500a000001400000240c0000c287000055
:103f5800983f00001868000006010000ffe000001c
:103f68000803000000600000c7c000000f980000b0
:103f78000804000002070000f8800000402000004c
:103f8800100800000402000001030000f81e0000f1
:103f98006c390000034000002805000000a0000064
:103fa8001206000061430000c80100000020000064
:103fb800083e000000c000001004000001000000de
:103fc8004013000087110000824000009024000088
:103fd80009020000409000002e1c000008040000a8
:103fe8000200000000030000c020000010080000cc
:103ff800040200000100000080430000fe040000ed
:1040080008100000001f0000c0810000020400002a
:104018000810000020400000810200000be00000b2
:10402800e002000000200000020000002002000062
:104038003c210000026000002c03000080240000e6
:10404800022000002102000008e10000f0780000d2
:104058000402000001000000804000002010000061
:1040680008040000020100000080000043fe000078
:10407800dce3000019900000848400002421000083
:1040880021090000084800004242000017180000fb
:10409800c067000083840000202200000220000086
:1040a8002202000020220000022000002f0700004a
:1040b8001f04000011010000401800000300000068
:1040c800600a00000220000083e00000cf850000a5
:1040d80006600000240100004014000001400000b8
:1040e8001602000050440000f840000004000000e0
:1040f800400f0000001e00006c3b00000340000061
:104108002805000000a0000012060000614300001e
:10411800c80100000020000004030000c0e3000004
:104128008b130000808000002008000002000000bf
:10413800802000003f8000001f5800003405000068
:10414800801e00000060000006010000c0af0000f3
:10415800c020000004000000801000000ff00000e4
:10416800400800000100000020040000008000005a
:1041780010030000043f000000c10000c80900004f
:1041880001200000240400008090000012020000ba
:1041980061c70000ccf80000f90100000810000019
:1041a8006081000008080000402200000120000093
:1041b8000500000030000000f07a00000110000047
:1041c800088c00004262000012900000a505000063
:1041d80018280000c086000000780000f3040000e2
:1041e80018800000d006000000700000098100005f
:1041f8000c2000006f8f0000f0f200000220000089
:1042080041040000108000008809000000500000f0
:10421800060000002004000000400000080f000015
:10422800e0ff000041000000808000008080000066
:104238008080000040bf0000c01900000842000054
:104248001084000064180000421000008420000060
:10425800c0ff0000ffc00000c108000042100000bd
:10426800841000004c42000010840000260000006a
:10427800381300003838000000000000000000007b
:104288000e0000000100000000000000030f000005
:104298000e060000f20000000600000008070000fb
:1042a8000e030000f20000000d0000000a100000dc
:1042b8000e020000f2000000210000000a110000b8
:1042c8000e020000f2000000370000000a0f000094
:1042d8000e020000f20000004a000000090c000075
:1042e8000e030000f500000058000000030700005e
:1042f8000e050000f20000005b0000000312000041
:104308000e070000f2000000620000000312000027
:104318000e040000f2000000690000000909000016
:104328000e030000f200000074000000090b0000fa
:104338000e030000f50000008100000005070000e2
:104348000e030000fd000000860000000b010000c5
:104358000e020000fa0000008800000003030000bd
:104368000e050000fe0000008a000000091200008f
:104378000e030000f10000009f000000090f00007c
:104388000e030000f2000000b0000000070e00005d
:104398000e040000f3000000bd000000090f00003b
:1043a8000e020000f2000000ce0000000a0f00001c
:1043b8000e020000f2000000e1000000080f0000fb
:1043c8000e030000f2000000f0000000090f0000da
:1043d8000e030000f200000001010000090f0000b8
:1043e8000e030000f200000012010000080f000098
:1043f8000e030000f200000021010000090f000078
:104408000e030000f200000032010000090f000056
:104418000e030000f200000043010000030a000040
:104428000e050000f700000047010000050d000020
:104438000e030000f7000000500100000b0b000005
:104448000e020000f5000000600100000c040000ee
:104458000e010000f8000000660100000b0b0000d0
:104468000e020000f500000076010000090e0000b1
:104478000e030000f3000000860100000910000090
:104488000e030000f2000000980100000e0e00006c
:104498000e000000f3000000b10100000b0e000048
:1044a8000e020000f3000000c50100000a0e000023
:1044b8000e020000f3000000d70100000a0e000001
:1044c8000e020000f3000000e90100000b0e0000de
:1044d8000e020000f3000000fd0100000b0e0000ba
:1044e8000e020000f3000000110200000b0e000095
:1044f8000e020000f3000000250200000a0e000072
:104508000e020000f300000037020000070e000052
:104518000e040000f3000000440200000b0e00002f
:104528000e020000f3000000580200000c0e00000c
:104538000e020000f30000006d0200000b0e0000e8
:104548000e020000f3000000810200000d0e0000c2
:104558000e010000f3000000980200000c0e00009d
:104568000e010000f3000000ad0200000c0e000078
:104578000e010000f3000000c20200000a0e000055
:104588000e020000f3000000d40200000c1100002d
:104598000e010000f3000000ee0200000c0e000007
:1045a8000e020000f3000000030300000a0e0000e2
:1045b8000e020000f3000000150300000b0e0000bf
:1045c8000e020000f3000000290300000c0e00009a
:1045d8000e010000f30000003e0300000e0e000074
:1045e8000e000000f3000000570300000e0e00004c
:1045f8000e000000f3000000700300000c0e000025
:104608000e010000f3000000850300000c0e0000fe
:104618000e010000f30000009a030000090e0000dc
:104628000e030000f3000000aa03000003120000bc
:104638000e070000f2000000b1030000091200009c
:104648000e030000f1000000c60300000312000082
:104658000e050000f2000000cd030000090600006e
:104668000e030000f2000000d40300000e01000059
:104678000e00000003000000d60300000404000040
:104688000e040000f1000000d80300000a0a000030
:104698000e020000f7000000e50300000d0f000007
:1046a8000e000000f2000000fe0300000b0a0000ec
:1046b8000e020000f70000000c0400000b0f0000c1
:1046c8000e020000f2000000210400000a0a0000a7
:1046d8000e020000f70000002e040000090f000081
:1046e8000e040000f20000003f0400000b0e000062
:1046f8000e020000f7000000530400000a0f00003b
:104708000e020000f200000066040000090f00001d
:104718000e030000f20000007704000007130000f9
:104728000e030000f2000000880400000c0f0000d7
:104738000e010000f20000009f040000090f0000b5
:104748000e030000f2000000b00400000d0a000093
:104758000e010000f7000000c10400000c0a000070
:104768000e010000f7000000d00400000b0a000052
:104778000e020000f7000000de0400000c0e00002e
:104788000e010000f7000000f30400000b0e00000b
:104798000e020000f7000000070500000a0a0000ea
:1047a8000e030000f7000000140500000a0a0000cc
:1047b8000e020000f7000000210500000b0e0000ab
:1047c8000e010000f3000000350500000b0a000090
:1047d8000e020000f7000000430500000d0a00006b
:1047e8000e010000f7000000540500000d0a00004b
:1047f8000e010000f7000000650500000c0a00002b
:104808000e010000f7000000740500000c0e000007
:104818000e010000f700000089050000090a0000e9
:104828000e030000f70000009505000005120000c7
:104838000e050000f2000000a105000001120000b2
:104848000e070000f2000000a40500000512000099
:104858000e050000f2000000b00500000a03000089
:104868000e020000f90000008c9b000040a100002f
:10487800200000007e00000018000000000000007a
:1048880000000000ffff0000ffff0000ffff000026
:10489800ffff0000ffff0000ffff0000ffff000018
:1048a800ffff0000ffff0000ffff0000ffff000008
:1048b800ffff0000ff0000000000000000ff0000f4
:1048c800ffff0000ffff0000ffff0000ffff0000e8
:1048d800ffff0000ffff0000ffff0000ffff0000d8
:1048e800ffff0000ffff0000ffff0000ff000000c7
:1048f80000000000000000000000000000000000b0
:104908000000000000ff0000ffff0000ffff0000a4
:10491800ffff0000ff000000000000000000000092
:1049280000000000ffff0000ffff0000ffff000085
:10493800ffff000000000000000000000000000071
:104948000000000000000000ffff0000ffff000063
:10495800ffff0000ffff0000ffff0000ffff000057
:10496800ffff0000ffff0000ffff0000ffff000047
:10497800ffff000000000000000000000000000031
:1049880000000000ffff0000ffff0000ffff000025
:10499800ffff0000ffff0000ffff0000ffff000017
:1049a800ffff0000ffff0000ffff0000ffff000007
:1049b800ffff0000ff0000000000000000ff0000f3
:1049c800ffff0000ffff0000ffff0000ffff0000e7
:1049d800ffff0000ffff0000ffff0000ffff0000d7
:1049e800ffff0000ffff0000ffff0000ff000000c6
:1049f80000000000000000000000000000000000af
:104a08000000000000ff0000ffff0000ffff0000a3
:104a1800ffff0000ff000000000000000000000091
:104a280000000000ffff0000ffff0000ffff000084
:104a3800ffff000000000000000000000000000070
:104a48000000000000000000ffff0000ffff000062
:104a5800ffff0000ffff0000ffff0000ffff000056
:104a6800ffff0000ffff0000ffff0000ffff000046
:104a7800ffff000000000000000000000000000030
:104a880000ff0000ffff0000ffff0000ffff000025
:104a9800ffff0000ffff0000ffff0000ffff000016
:104aa800ffff0000ffff0000ffff0000ffff000006
:104ab800ffff0000ff0000000000000000ff0000f2
:104ac800ffff0000ffff0000ffff0000ffff0000e6
:104ad800ffff0000ffff0000ffff0000ffff0000d6
:104ae800ffff0000ffff0000ffff0000ffff0000c6
:104af80000000000000000000000000000000000ae
:104b08000000000000ff0000ffff0000ffff0000a2
:104b1800ffff0000ffff0000000000000000000091
:104b280000000000ffff0000ffff0000ffff000083
:104b3800ffff0000ff000000000000000000000070
:104b48000000000000ff0000ffff0000ffff000062
:104b5800ffff0000ffff0000ffff0000ffff000055
:104b6800ffff0000ffff0000ffff0000ffff000045
:104b7800ffff0000ff000000000000000000000030
:104b880000ff0000ffff0000ffff0000ffff000024
:104b9800ffff0000ffff0000ffff0000ffff000015
:104ba800ffff0000ffff0000ffff0000ffff000005
:104bb800ffff0000ff0000000000000000ff0000f1
:104bc800ffff0000ffff0000ffff0000ffff0000e5
:104bd800ffff0000ffff0000ffff0000ffff0000d5
:104be800ffff0000ffff0000ffff0000ffff0000c5
:104bf80000000000000000000000000000000000ad
:104c08000000000000ff0000ffff0000ffff0000a1
:104c1800ffff0000ffff0000000000000000000090
:104c280000000000ffff0000ffff0000ffff000082
:104c3800ffff0000ff00000000000000000000006f
:104c48000000000000ff0000ffff0000ffff000061
:104c5800ffff0000ffff0000ffff0000ffff000054
:104c6800ffff0000ffff0000ffff0000ffff000044
:104c7800ffff0000ff00000000000000000000002f
:104c8800ffff0000ffff0000ffff0000ffff000024
:104c9800ffff0000ffff0000ffff0000ffff000014
:104ca800ffff0000ffff0000ffff0000ffff000004
:104cb800ffff0000ff0000000000000000ff0000f0
:104cc800ffff0000ffff0000ffff0000ffff0000e4
:104cd800ffff0000ffff0000ffff0000ffff0000d4
:104ce800ffff0000ffff0000ffff0000ffff0000c4
:104cf800ff000000000000000000000000000000ad
:104d08000000000000ff0000ffff0000ffff0000a0
:104d1800ffff0000ffff0000ff0000000000000090
:104d280000000000ffff0000ffff0000ffff000081
:104d3800ffff0000ffff000000000000000000006f
:104d48000000000000ff0000ffff0000ffff000060
:104d5800ffff0000ffff0000ffff0000ffff000053
:104d6800ffff0000ffff0000ffff0000ffff000043
:104d7800ffff0000ffff000000000000000000002f
:104d8800ffff0000ffff0000ffff0000ffff000023
:104d9800ffff0000ffff0000ffff0000ffff000013
:104da800ffff0000ffff0000ffff0000ffff000003
:104db800ffff0000ff0000000000000000ff0000ef
:104dc800ffff0000ffff0000ffff0000ffff0000e3
:104dd800ffff0000ffff0000ffff0000ffff0000d3
:104de800ffff0000ffff0000ffff0000ffff0000c3
:104df800ff000000000000000000000000000000ac
:104e08000000000000ff0000ffff0000ffff00009f
:104e1800ffff0000ffff0000ff000000000000008f
:104e280000000000ffff0000ffff0000ffff000080
:104e3800ffff0000ffff000000000000000000006e
:104e48000000000000ff0000ffff0000ffff00005f
:104e5800ffff0000ffff0000ffff0000ffff000052
:104e6800ffff0000ffff0000ffff0000ffff000042
:104e7800ffff0000ffff00000000000000ff00002f
:104e8800ffff0000ffff0000ffff0000ffff000022
:104e9800ffff0000ffff0000ffff0000ffff000012
:104ea800ffff0000ffff0000ffff0000ffff000002
:104eb800ffff0000ff0000000000000000ff0000ee
:104ec800ffff0000ffff0000ffff0000ffff0000e2
:104ed800ffff0000ffff0000ffff0000ffff0000d2
:104ee800ffff0000ffff0000ffff0000ffff0000c2
:104ef800ffff0000ff0000000000000000000000ad
:104f08000000000000ff0000ffff0000ffff00009e
:104f1800ffff0000ffff0000ffff0000000000008f
:104f280000000000ffff0000ffff0000ffff00007f
:104f3800ffff0000ffff0000ff000000000000006e
:104f480000000000ffff0000ffff0000ffff00005f
:104f5800ffff0000ffff0000ffff0000ffff000051
:104f6800ffff0000ffff0000ffff0000ffff000041
:104f7800ffff0000ffff0000ff00000000ff00002f
:104f8800ffff0000ffff0000ffff0000ffff000021
:104f9800ffff0000ffff0000ffff0000ffff000011
:104fa800ffff0000ffff0000ffff0000ffff000001
:104fb800ffff0000ff0000000000000000ff0000ed
:104fc800ffff0000ffff0000ffff0000ffff0000e1
:104fd800ffff0000ffff0000ffff0000ffff0000d1
:104fe800ffff0000ffff0000ffff0000ffff0000c1
:104ff800ffff0000ff0000000000000000000000ac
:105008000000000000ff0000ffff0000ffff00009d
:10501800ffff0000ffff0000ffff0000000000008e
:1050280000000000ffff0000ffff0000ffff00007e
:10503800ffff0000ffff0000ff000000000000006d
:1050480000000000ffff0000ffff0000ffff00005e
:10505800ffff0000ffff0000ffff0000ffff000050
:10506800ffff0000ffff0000ffff0000ffff000040
:10507800ffff0000ffff0000ff000000ffff00002f
:10508800ffff0000ffff0000ffff0000ffff000020
:10509800ffff0000ffff0000ffff0000ffff000010
:1050a800ffff0000ffff0000ffff0000ffff000000
:1050b800ffff0000ff0000000000000000ff0000ec
:1050c800ffff0000ffff0000ffff0000ffff0000e0
:1050d800ffff0000ffff0000ffff0000ffff0000d0
:1050e800ffff0000ffff0000ffff0000ffff0000c0
:1050f800ffff0000ffff00000000000000000000ac
:105108000000000000ff0000ffff0000ffff00009c
:10511800ffff0000ffff0000ffff0000ff0000008e
:1051280000000000ffff0000ffff0000ffff00007d
:10513800ffff0000ffff0000ff000000000000006c
:1051480000ff0000ffff0000ffff0000ffff00005e
:10515800ffff0000ffff0000ffff0000ffff00004f
:10516800ffff0000ffff0000ffff0000ffff00003f
:10517800ffff0000ffff0000ffff0000ffff00002f
:10518800ffff0000ffff0000ffff0000ffff00001f
:10519800ffff0000ffff0000ffff0000ffff00000f
:1051a800ffff0000ffff0000ffff0000ffff0000ff
:1051b800ffff0000ff0000000000000000ff0000eb
:1051c800ffff0000ffff0000ffff0000ffff0000df
:1051d800ffff0000ffff0000ffff0000ffff0000cf
:1051e800ffff0000ffff0000ffff0000ffff0000bf
:1051f800ffff0000ffff00000000000000000000ab
:105208000000000000ff0000ffff0000ffff00009b
:10521800ffff0000ffff0000ffff0000ff0000008d
:1052280000000000ffff0000ffff0000ffff00007c
:10523800ffff0000ffff0000ff000000000000006b
:1052480000ff0000ffff0000ffff0000ffff00005d
:10525800ffff0000ffff0000ffff0000ffff00004e
:10526800ffff0000ffff0000ffff0000ffff00003e
:10527800ffff0000ffff0000ffff0000ffff00002e
:10528800ffff0000ffff0000ffff0000ffff00001e
:105298000000000000000000000000000000000006
:1052a80000000000000000000000000000000000f6
:1052b80000000000000000000000000000ff0000e7
:1052c800ffff0000ffff0000ffff0000ff000000dd
:1052d80000000000000000000000000000000000c6
:1052e8000000000000000000ffff0000ffff0000ba
:1052f800ffff0000ffff00000000000000000000aa
:10530800000000000000000000000000ffff000097
:10531800ffff0000ffff0000ffff0000ff0000008c
:10532800000000000000000000ff0000ffff000078
:10533800ffff0000ffff0000ff000000000000006a
:1053480000ff0000ffff0000ffff0000ffff00005c
:10535800ffff000000000000000000000000000047
:10536800000000000000000000ff0000ffff000038
:10537800ffff0000ffff0000ffff0000ffff00002d
:10538800ffff0000ffff0000ffff0000ffff00001d
:105398000000000000000000000000000000000005
:1053a80000000000000000000000000000000000f5
:1053b80000000000000000000000000000ff0000e6
:1053c800ffff0000ffff0000ffff0000ff000000dc
:1053d80000000000000000000000000000000000c5
:1053e8000000000000000000ffff0000ffff0000b9
:1053f800ffff0000ffff00000000000000000000a9
:10540800000000000000000000000000ffff000096
:10541800ffff0000ffff0000ffff0000ff0000008b
:10542800000000000000000000ff0000ffff000077
:10543800ffff0000ffff0000ff0000000000000069
:1054480000ff0000ffff0000ffff0000ffff00005b
:10545800ffff000000000000000000000000000046
:10546800000000000000000000ff0000ffff000037
:10547800ffff0000ffff0000ffff0000ffff00002c
:10548800ffff0000ffff0000ffff0000ff0000001b
:105498000000000000000000000000000000000004
:1054a80000000000000000000000000000000000f4
:1054b80000000000000000000000000000ff0000e5
